:020000022000DC
:1060000000000120756302005D6302005F6302000F
:106010006163020063630200656302000000000028
:1060200000000000000000000000000067630200A4
:1060300069630200000000006B6302006D630200F0
:106040006F6302006F6302006F6302006F63020000
:106050006F6302006F6302006F6302006F630200F0
:106060006F6302006F6302006F6302006F630200E0
:106070006F6302006F6302006F6302006F630200D0
:106080006F6302006F6302006F6302006F630200C0
:106090006F6302006F630200716702006F630200AA
:1060A0006F6302006F6302006F6302006F630200A0
:1060B0006F6302006F630200000000000000000038
:1060C0006F6302006F6302006F6302006F63020080
:1060D0006F6302006F6302006F6302000000000044
:1060E00000000000000000000000000000000000B0
:1060F00000000000000000000000000000000000A0
:10610000000000000000000000000000000000008F
:10611000000000000000000000000000000000007F
:10612000000000000000000000000000000000006F
:10613000000000000000000000000000000000005F
:10614000000000000000000000000000000000004F
:10615000000000000000000000000000000000003F
:10616000000000000000000000000000000000002F
:10617000000000000000000000000000000000001F
:10618000000000000000000000000000000000000F
:1061900000000000000000000000000000000000FF
:1061A00000000000000000000000000000000000EF
:1061B00000000000000000000000000000000000DF
:1061C00000000000000000000000000000000000CF
:1061D00000000000000000000000000000000000BF
:1061E00000000000000000000000000000000000AF
:1061F000000000000000000000000000000000009F
:10620000354936480A1A02D0072291438D4634494F
:1062100034480A1A06D00722914381F309880222E2
:1062200082F3148830483149314A00F044F831484B
:106230003149324A00F03FF831483249324A00F0E1
:106240003AF832483249334A00F035F83248334997
:10625000334A00F030F833483349344A00F02BF821
:1062600033483449344A00F026F83448344900228F
:1062700000F02CF833483449002200F027F8334866
:106280003349091A082902DB002202604160314AC1
:1062900090471F481F49884205D00268043003B464
:1062A000904703BCF7E700208646EC46002000211B
:1062B000294A9047FEE7884207D0521A05D0037852
:1062C00001300B700131013AF9D17047884202D098
:1062D00002700130FAE770470000012000E0002062
:1062E0000000012000000120E0670200B8570020F4
:1062F000BC570020D4630200D4630200B8670200D8
:10630000E0670200B8570020B8570020C0670200BD
:10631000C0670200C0670200C0670200C0670200D9
:10632000C0670200C0670200C0670200E0670200A9
:10633000E4670200BC570020BC570020BC57002077
:10634000BC570020BC570020BC570020BC57002081
:10635000BC7700209D6302004D640200FEE7FEE76B
:10636000FEE7FEE7FEE7FEE7FEE7FEE7FEE7FEE705
:10637000704700BF1048804710484FF0070188431E
:1063800085460F4880470F48016841F4700101605D
:10639000BFF34F8FBFF36F8FFFF732BF0A480B4930
:1063A0000B4A884207D0521A05D0037801300B708F
:1063B0000131013AF9D170477163020000000120F8
:1063C000ED64020088ED00E0C0670200B8570020CD
:0463D000B85700209A
:1063D4001FB50021039001AA44F20100CDE9011187
:1063E40000F004F805B05DF804FB000072B6094B38
:1063F400D3F8F020D20700D500BEBFF34F8FD96881
:10640400054A01F4E0610A43DA60BFF34F8F00BF2D
:10641400FDE700BF00ED00E00400FA050B684A68E0
:106424004360934208BF0023016008BF4360704784
:10643400436843B10268916852680B4493424360D5
:1064440004BF0023436070470E4C4FF0A045032364
:1064540080B544F00104C5F864374FF00077C5F8FF
:1064640008754FF4FA764FF47A40A047013EFAD10A
:10647400C5F80C754FF4FA764FF47A40A047013E04
:10648400FAD1ECE7C06702004FF0704393F8E02FB5
:10649400062A10D1D3F8E42F12070CD1D3F8E80F51
:1064A40000F0F003302B08D000F0E000A0F140032E
:1064B40058425841704700207047012070474FF000
:1064C400704393F8E02F062A0CD1D3F8E42F120777
:1064D40008D1D3F8E80F00F0F000A0F130035842DF
:1064E400584170470020704708B5FFF7CDFF40B111
:1064F4004FF08053884AD3F82433C3F30423C2F8FB
:106504004035FFF7DCFF10B1844B854A5A67FFF72B
:10651400BBFF48B14FF080534FF08042D3F8443270
:10652400C3F34233C2F83C35FFF7C9FF30B17D4AAB
:10653400D2F8FC3023F08073C2F8FC30FFF7A4FFDC
:1065440040B14FF080430022C3F80C21C3F810215E
:10655400C3F83825FFF7B3FF20B14FF0804303227F
:10656400C3F8A025FFF7ABFF60B16F4B0522C3F85A
:1065740010260122C3F888260022C3F818263F22D9
:10658400C3F814264FF0704393F8E02F062A50D135
:10659400D3F8E42F11074CD1D3F8E83F03F0F0030C
:1065A400502B46D14FF08052604BD2F80414C3F8FC
:1065B4002015D2F80814C3F82415D2F80C14C3F823
:1065C4002815D2F81014C3F82C15D2F81414C3F8F3
:1065D4003015D2F81814C3F83415D2F81C14C3F8C3
:1065E4004015D2F82014C3F84415D2F82414C3F883
:1065F4004815D2F82814C3F84C15D2F82C14C3F853
:106604005015D2F83014C3F85415D2F83414C3F822
:106614006015D2F83814C3F86415D2F83C14C3F8E2
:106624006815D2F84014C3F86C15D2F84424C3F8A2
:106634007025FFF729FF48B14FF080534FF0804297
:10664400D3F8583203F04F03C2F8E43EFFF71CFFBF
:1066540048B14FF08043D3F80024D20744BF6FF011
:106664000102C3F800244FF08053D3F83021062AE6
:106674000AD1D3F83431062B01BF2D4AD2F83C3766
:1066840043F48063C2F83C37264AD2F8883043F496
:106694007003C2F88830BFF34F8FBFF36F8F4FF092
:1066A4001023D3F80022002A03DBD3F80432002B92
:1066B4002EDA204B0122C3F80425D3F80024002A43
:1066C400FBD04FF010221521C2F80012D3F8002499
:1066D400002AFBD04FF010231522C3F80422154BD7
:1066E400D3F80024002AFBD00022C3F80425D3F8F1
:1066F4000024002AFBD0BFF34F8F0A490E4BCA680F
:1067040002F4E0621343CB60BFF34F8F00BFFDE799
:106714000A4B0B4A1A6008BD0030014000C0074014
:106724000DF0ADBA00ED00E00050004000C00040A4
:106734000010004000E001400400FA05B8570020B2
:106744000090D00307B508496846FFF767FE019B30
:1067540013B903B05DF804FBD3E900209047684601
:10676400FFF766FEF3E700BFC8670200FFF7EABF62
:106774004BDF70471FB50E4C01A8FFF7F9FF70B946
:10678400214602A8FFF74AFE039B002BF4D0019890
:10679400D3E90021904702A8FFF74AFEF4E7052851
:1067A40004D004B0BDE81040FFF712BE04B010BD21
:0467B400D4670200A4
:0867B8007967020000000000F7
:1067C0000338FDD870470000B8670200C0670200B8
:1067D00008000000B8670200B86702000800000067
:0467E0000090D00352
:040000032000637501
:00000001FF
