:020000022000DC
:1060000000000120756302005D6302005F6302000F
:106010006163020063630200656302000000000028
:1060200000000000000000000000000067630200A4
:1060300069630200000000006B6302006D630200F0
:106040006F6302006F6302006F6302006F63020000
:106050006F6302006F6302006F6302006F630200F0
:106060006F6302006F6302006F6302006F630200E0
:106070006F6302006F6302006F6302006F630200D0
:106080006F6302006F6302006F6302006F630200C0
:106090006F6302006F630200096802006F63020011
:1060A0006F6302006F6302006F6302006F630200A0
:1060B0006F6302006F630200000000000000000038
:1060C0006F6302006F6302006F6302006F63020080
:1060D0006F6302006F6302006F6302000000000044
:1060E00000000000000000000000000000000000B0
:1060F00000000000000000000000000000000000A0
:10610000000000000000000000000000000000008F
:10611000000000000000000000000000000000007F
:10612000000000000000000000000000000000006F
:10613000000000000000000000000000000000005F
:10614000000000000000000000000000000000004F
:10615000000000000000000000000000000000003F
:10616000000000000000000000000000000000002F
:10617000000000000000000000000000000000001F
:10618000000000000000000000000000000000000F
:1061900000000000000000000000000000000000FF
:1061A00000000000000000000000000000000000EF
:1061B00000000000000000000000000000000000DF
:1061C00000000000000000000000000000000000CF
:1061D00000000000000000000000000000000000BF
:1061E00000000000000000000000000000000000AF
:1061F000000000000000000000000000000000009F
:10620000354936480A1A02D0072291438D4634494F
:1062100034480A1A06D00722914381F309880222E2
:1062200082F3148830483149314A00F044F831484B
:106230003149324A00F03FF831483249324A00F0E1
:106240003AF832483249334A00F035F83248334997
:10625000334A00F030F833483349344A00F02BF821
:1062600033483449344A00F026F83448344900228F
:1062700000F02CF833483449002200F027F8334866
:106280003349091A082902DB002202604160314AC1
:1062900090471F481F49884205D00268043003B464
:1062A000904703BCF7E700208646EC46002000211B
:1062B000294A9047FEE7884207D0521A05D0037852
:1062C00001300B700131013AF9D17047884202D098
:1062D00002700130FAE770470000012000E0002062
:1062E000000001200000012068700200B857002063
:1062F000BC570020D4630200D4630200087002007F
:1063000068700200B8570020B857002010700200D3
:106310001070020010700200107002001070020075
:10632000107002001070020010700200677002000E
:106330006C700200BC570020BC570020BC570020E6
:10634000C8570020C8570020C8570020C857002051
:10635000C87700209D630200E9640200FEE7FEE7C3
:10636000FEE7FEE7FEE7FEE7FEE7FEE7FEE7FEE705
:10637000704700BF1048804710484FF0070188431E
:1063800085460F4880470F48016841F4700101605D
:10639000BFF34F8FBFF36F8FFFF732BF0A480B4930
:1063A0000B4A884207D0521A05D0037801300B708F
:1063B0000131013AF9D170477163020000000120F8
:1063C0008565020088ED00E010700200B8570020DB
:0463D000B85700209A
:1063D40000F0F2BD044B1A5C012393404FF0A0423D
:1063E400C2F80835704700BF1070020008B50020DD
:1063F400FFF7F0FF0120FFF7EDFF0220FFF7EAFFB0
:10640400BDE808400320FFF7E5BF0000074A4FF04E
:10641400A041105CD1F804350122824022EA030035
:106424001340C1F80805C1F80C357047107002001C
:10643400C20708B501460CD54FF0A0430322C3F8A8
:106444004427C3F84827C3F84C27C3F85027FFF75D
:10645400CDFF8B070AD54FF0A0430C22C3F8342795
:10646400C3F83827C3F83C27C3F8402708BD1FB535
:106474000021039001AA44F20100CDE9011100F0CA
:1064840003F805B05DF804FB72B6094BD3F8F020AD
:10649400D20700D500BEBFF34F8FD968054A01F477
:1064A400E0610A43DA60BFF34F8F00BFFDE700BF2E
:1064B40000ED00E00400FA050B684A68436093426B
:1064C40008BF0023016008BF43607047436843B1BD
:1064D4000268916852680B449342436004BF0023EE
:1064E4004360704770B5012000F0E6F90120FFF722
:1064F4009FFF0420094D00F0DFF945F00105002459
:106504002046FFF783FF4FF4FA764FF47A40A8470A
:10651400013EFAD10134042CF2D1F0E720700200DC
:106524004FF0704393F8E02F062A10D1D3F8E42FEC
:1065340012070CD1D3F8E80F00F0F003302B08D089
:1065440000F0E000A0F14003584258417047002099
:106554007047012070474FF0704393F8E02F062AEC
:106564000CD1D3F8E42F120708D1D3F8E80F00F0C8
:10657400F000A0F1300358425841704700207047A2
:1065840008B5FFF7CDFF40B14FF08053884AD3F8E8
:106594002433C3F30423C2F84035FFF7DCFF10B102
:1065A400844B854A5A67FFF7BBFF48B14FF08053CD
:1065B4004FF08042D3F84432C3F34233C2F83C353F
:1065C400FFF7C9FF30B17D4AD2F8FC3023F0807365
:1065D400C2F8FC30FFF7A4FF40B14FF08043002223
:1065E400C3F80C21C3F81021C3F83825FFF7B3FF13
:1065F40020B14FF080430322C3F8A025FFF7ABFF7F
:1066040060B16F4B0522C3F810260122C3F8882617
:106614000022C3F818263F22C3F814264FF0704313
:1066240093F8E02F062A50D1D3F8E42F11074CD168
:10663400D3F8E83F03F0F003502B46D14FF08052DB
:10664400604BD2F80414C3F82015D2F80814C3F828
:106654002415D2F80C14C3F82815D2F81014C3F872
:106664002C15D2F81414C3F83015D2F81814C3F842
:106674003415D2F81C14C3F84015D2F82014C3F80A
:106684004415D2F82414C3F84815D2F82814C3F8D2
:106694004C15D2F82C14C3F85015D2F83014C3F8A2
:1066A4005415D2F83414C3F86015D2F83814C3F86A
:1066B4006415D2F83C14C3F86815D2F84014C3F832
:1066C4006C15D2F84424C3F87025FFF729FF48B1AC
:1066D4004FF080534FF08042D3F8583203F04F0309
:1066E400C2F8E43EFFF71CFF48B14FF08043D3F8F3
:1066F4000024D20744BF6FF00102C3F800244FF016
:106704008053D3F83021062A0AD1D3F83431062B2A
:1067140001BF2D4AD2F83C3743F48063C2F83C37BA
:10672400264AD2F8883043F47003C2F88830BFF3A5
:106734004F8FBFF36F8F4FF01023D3F80022002A3E
:1067440003DBD3F80432002B2EDA204B0122C3F8EA
:106754000425D3F80024002AFBD04FF01022152181
:10676400C2F80012D3F80024002AFBD04FF0102303
:106774001522C3F80422154BD3F80024002AFBD0B9
:106784000022C3F80425D3F80024002AFBD0BFF369
:106794004F8F0A490E4BCA6802F4E0621343CB6080
:1067A400BFF34F8F00BFFDE70A4B0B4A1A6008BDC9
:1067B4000030014000C007400DF0ADBA00ED00E02C
:1067C4000050004000C000400010004000E00140C4
:1067D4000400FA05B85700200090D00307B5084913
:1067E4006846FFF769FE019B13B903B05DF804FB2B
:1067F400D3E9002090476846FFF768FEF3E700BF3F
:1068040028700200FFF7EABF4BDF70471FB50E4C3C
:1068140001A8FFF7F9FF70B9214602A8FFF74CFE63
:10682400039B002BF4D00198D3E90021904702A8E0
:10683400FFF74CFEF4E7052804D004B0BDE810408F
:10684400FFF715BE04B010BD3470020010B5044645
:106854000846A2684AB12368616803F1010C8C45BB
:1068640008BF00208B4208D2D054E3682BB12168C2
:106874006268914201D2214698472368013323601C
:1068840010BD70B54C1E09D41646C5B22946304613
:10689400FFF7DCFF013CB4F1FF3FF7D170BD10F00E
:1068A400100F08D108B510F4007F14BF3020202049
:1068B400FFF7E7FF08BD70470FB410B586B008AB0B
:1068C40053F8044B0593002303936FF000430293A2
:1068D400084B049300F06EFB059A214601A800F0D2
:1068E4004DF8044600F067FB204606B0BDE81040B2
:1068F40004B07047D5630200037853B159B1014421
:10690400034613F8012F12B18B42FAD10B46181A21
:1069140070470346FBE70346F9E700F1010110F075
:10692400030F11D010F8012B002A23D010F0030F0D
:106934000AD010F8012B002A1CD010F0030F03D04A
:1069440010F8012B002A15D02DE970004FF0013208
:106954004FF0803350F8044BA4EB020525EA0405FC
:106964001D4000D1F6E7A0F1040070BC10F8012B23
:10697400002AFBD1A0EB0100704700002DE9F04F85
:1069840089B007460392002303600C4614F8011BE8
:10699400002900F0FC82DFF818B5EBE2002507E0DF
:1069A4005E2868D145F4805501E045F040051C4659
:1069B400234613F8010B3028F2D81F2837D9A0F149
:1069C4002002102A33D801A151F822F0AF69020045
:1069D400336A0200336A0200156A0200336A020055
:1069E400336A0200336A02001B6A0200336A02003F
:1069F400336A0200336A0200216A0200336A020029
:106A0400276A0200336A0200336A02002D6A020018
:106A140045F08005CBE745F40045C8E745F020057F
:106A2400C5E745F01005C2E745F40075BFE72A281D
:106A340021D1039A111D0391D2F800A0BAF1000FDD
:106A4400BCBFCAF1000A45F010051878A31C2AEA55
:106A5400EA7A2E2826D00021742847D07A2845D0F7
:106A64006C2800F0A8804C2800F0AB80682800F067
:106A7400B8801C463DE0A0F13002D2B2092A88BF9A
:106A84004FF0000AE3D84FF0000A0AEB8A0A3038C4
:106A940000EB4A0A13F8010BA0F13002D2B2092A22
:106AA400F3D9D4E718782A280AD1039A111D03913F
:106AB4001168587802330029CEDB45F48075CBE7A2
:106AC4000133A0F13002D2B2092A88BF0021F4D8E0
:106AD400002101EB8101303800EB410113F8010B77
:106AE400A0F13002D2B2092AF3D9E4E71C4614F823
:106AF400010B002800F05782A0F12503DBB2532BD1
:106B040062D8A0F12503532B5ED8DFE813F076009A
:106B14005D005D005D005D005D005D005D005D0089
:106B24005D005D005D005D005D005D005D005D0079
:106B34005D005D005D005D005D005D005D005D0069
:106B44005D005D005D005D005D005D005D005D0059
:106B54005D005D005D005D005D005D005D005D0049
:106B64005D005D005D005D005D005D005D005D0039
:106B74005D005D00EC005D005D005D005D005D009A
:106B84005D005D005D005D005D007B0021015D0036
:106B94005D005D005D0021015D005D005D005D0044
:106BA40095000F01D2005D005D00A6005D001A0192
:106BB4005D005D00EE001C4614F8010B45F0010574
:106BC40097E745F001051C46B54B1E68002E00F002
:106BD400CE8103AB0193009153462A463946B04710
:106BE400C5E11878682803D05C1C45F0040580E7EB
:106BF40045F008059C1C58787BE725213846FFF7AB
:106C040025FEB4E1039B1A1D03921E780AF1FF3A94
:106C14003A4651462846FFF742FE31463846FFF7CA
:106C240015FEA94619F0100F00F0A1813A4651460D
:106C34002020FFF726FE9AE115F0080F06D03A68E7
:106C4400039B191D03911B681A7090E1039B1A1D85
:106C540003921B683A681A6089E1039B1A1D039228
:106C6400D3F800808F4BB8F1000F08BF9846464612
:106C740025F4007915F4807F16D04046FFF73CFEDA
:106C84000546AAEB050A3A4651464846FFF707FE71
:106C9400002DC7D016F8011B3846FFF7D7FDA8EB27
:106CA4000603EB42F6D1BDE74046FFF736FE054644
:106CB400E7E7039B1A1D03921B6815F0800F0CBFB6
:106CC4000026232645F4807508211A46002B00F07F
:106CD4002A8105AB4FF0000805F4005CA646604627
:106CE4008C460146D2E045F4005515F0800F1BD0C8
:106CF40043F2780643F25803782818BF1E4615F469
:106D0400807F01D025F4007515F4804F32D0039BA9
:106D14001A1D03921B6815F0040F1FD01BB2002B21
:106D240020DA5B422D262DE00026E8E715F0800FDF
:106D34000CBF0026302615F4807FE5D025F40075BD
:106D4400E2E715F4807F07D025F400750026DBE721
:106D540045F480450026D7E70026D5E715F0080F4F
:106D6400DDD0DBB215F0200F61D115F0400F18BF54
:106D7400202607E0039B1A1D03921B6815F0040FDD
:106D840050D09BB215F4807F14BF25F40075012107
:106D94005838202800F2AF8001A252F820F000BF3A
:106DA400CF6C0200FB6E0200FB6E0200FB6E020061
:106DB400FB6E0200FB6E0200FB6E0200FB6E020023
:106DC400FB6E0200FB6E0200FB6E0200FB6E020013
:106DD4005F6E0200FB6E0200FB6E0200FB6E02009F
:106DE400FB6E02005F6E0200FB6E0200FB6E02008F
:106DF400FB6E0200FB6E0200FB6E0200376E0200A7
:106E0400CF6C0200FB6E0200FB6E0200FB6E020000
:106E1400FB6E02005F6E0200FB6E0200FB6E02005E
:106E2400CF6C020015F0080FACD0DBB2AAE72B261A
:106E3400A8E71A464FF00008002B5ED005A84FF0D3
:106E4400000803F00703303300F8013B08F10108A0
:106E5400D2081346002AF4D14FE018464FF0000838
:106E6400002B4AD04FF0000805F4004E4FF02C09D7
:106E740073468E4619462FE002F00F000A4C205C40
:106E840003F8010B08F10108120906D00029F3D018
:106E940002F00F00054C205CF2E7744661462CE0DA
:106EA400BC57002060700200407002005070020065
:106EB400CDCCCCCC08AB03EB080CABFB0032D20836
:106EC40002EB8203A0EB430330330CF80C3C08F1D3
:106ED400010809280DD910460029EBD008F0030356
:106EE400032BE7D108AB434403F80C9C08F10108D9
:106EF400E0E7714601E04FF00008A1EB080121EA48
:106F0400E179AAEB090AAAEB080AFF2E0ED9AAF125
:106F1400020AC6F307213846FFF798FCF1B2384657
:106F2400FFF794FC04E04FF00008E6E7002E3DD1A3
:106F34003A4651462846FFF7B2FC3A4649463020C5
:106F4400FFF79FFCB8F1000F0EDD0DF1140908F1F5
:106F5400FF38C84498F8001046463846FFF776FCD8
:106F6400C14508F1FF38F5D115F0100F09D114F817
:106F7400011B61B125293FF411AD3846FFF766FCCA
:106F8400F5E73A4651462020FFF77BFCEFE7BB6864
:106F94002BB13A6879688A423CBF00219954386819
:106FA40009B0BDE8F08F4FF0FF30F9E70AF1FF3A7E
:106FB400B4E700BF7047704710B504460146172078
:106FC40000F008F800280CBF20464FF0FF3010BD39
:106FD4007047704738B504460D46FFF7F9FF074B75
:106FE4001D6044F08004064B1C601A461368002B95
:106FF400FCD1FFF7EEFF014B186838BDC4570020E1
:04700400C057002051
:08700800116802000000000005
:107010001112131400000000000000000000000026
:107020000338FDD87047000008700200107002009D
:10703000080000000870020008700200080000004C
:1070400030313233343536373839616263646566DE
:10705000303132333435363738394142434445468E
:07706000286E756C6C29001D
:047068000090D003C1
:040000032000637501
:00000001FF
