:020000022000DC
:1060000000000120756302005D6302005F6302000F
:106010006163020063630200656302000000000028
:1060200000000000000000000000000067630200A4
:1060300069630200000000006B6302006D630200F0
:10604000919702006F630200A599020069A3020004
:106050002DA302006F6302002D980200E9A5020043
:10606000E9AA0200F9AA02006F6302006F6302004E
:106070006F6302006F6302006F6302006F630200D0
:106080006F6302008D6F02006F6302006F63020096
:10609000297002006F630200210F03006F6302008A
:1060A0006F6302006F6302006F6302006F630200A0
:1060B0006F6302006F630200000000000000000038
:1060C0006F6302006F6302006F63020001A30200AE
:1060D0006F6302006F6302006F6302000000000044
:1060E00000000000000000000000000000000000B0
:1060F00000000000000000000000000000000000A0
:10610000000000000000000000000000000000008F
:10611000000000000000000000000000000000007F
:10612000000000000000000000000000000000006F
:10613000000000000000000000000000000000005F
:10614000000000000000000000000000000000004F
:10615000000000000000000000000000000000003F
:10616000000000000000000000000000000000002F
:10617000000000000000000000000000000000001F
:10618000000000000000000000000000000000000F
:1061900000000000000000000000000000000000FF
:1061A00000000000000000000000000000000000EF
:1061B00000000000000000000000000000000000DF
:1061C00000000000000000000000000000000000CF
:1061D00000000000000000000000000000000000BF
:1061E00000000000000000000000000000000000AF
:1061F000000000000000000000000000000000009F
:10620000354936480A1A02D0072291438D4634494F
:1062100034480A1A06D00722914381F309880222E2
:1062200082F3148830483149314A00F044F831484B
:106230003149324A00F03FF831483249324A00F0E1
:106240003AF832483249334A00F035F83248334997
:10625000334A00F030F833483349344A00F02BF821
:1062600033483449344A00F026F83448344900228F
:1062700000F02CF833483449002200F027F8334866
:106280003349091A082902DB002202604160314AC1
:1062900090471F481F49884205D00268043003B464
:1062A000904703BCF7E700208646EC46002000211B
:1062B000294A9047FEE7884207D0521A05D0037852
:1062C00001300B700131013AF9D17047884202D098
:1062D00002700130FAE770470000012000E0002062
:1062E000000001200000012058520300DC2900209A
:1062F000442A0020D4630200D46302002420030057
:1063000058520300DC290020DC290020F021030082
:10631000F0210300F0210300F0210300F02103002D
:10632000F0210300F0210300F02103005752030085
:10633000C0520300442A0020442A0020442A00209E
:106340000C4900200C4900200C4900200C49002079
:106350000C6900209D63020055B00200FEE7FEE7D5
:10636000FEE7FEE7FEE7FEE7FEE7FEE7FEE7FEE705
:10637000704700BF1048804710484FF0070188431E
:1063800085460F4880470F48016841F4700101605D
:10639000BFF34F8FBFF36F8FFFF732BF0A480B4930
:1063A0000B4A884207D0521A05D0037801300B708F
:1063B0000131013AF9D170477163020000000120F8
:1063C000F991020088ED00E0DC210300C8290020DB
:0463D000DC290020A4
:1063D4007047000007B5044B0093044A402300F0C3
:1063E40032F803B05DF804FBF5630200452A00208F
:1063F4002DE9F84388461446B2B10F4B0F4E0325DE
:10640400002743F00109224608EB0701002005F0AC
:1064140003FF0744241A48B933782BB14FF47A4068
:10642400C847013D02D13570BDE8F88301233370BC
:10643400002CE8D1F8E700BFF0210300442A002033
:10644400704705F047BFF0B595B01D46164608469F
:106454000C4602F0AFFD1A9B0D93CDE908650025AB
:106464002B46082205A920460A958DF82C500C9538
:1064740002F0BCFD079B0293069B03939DF8143026
:106484008DF8115003F00302012A1DD1BDF8142028
:10649400059DC3F3C203C2F383168DF81030B20016
:1064A40008230EA9204602F0A1FDC5F3952508ABEB
:1064B4000093324602AB0EA9284600F0FBFB2046AF
:1064C40002F07CFD15B0F0BD022AF8D1BDF81650DB
:1064D400C3F3C203C5F389158DF810300827082DBE
:1064E4002E4628BF08263B4632460EA9204602F017
:1064F4007DFDAD1B08AB02AA31460EA8374400F05F
:106504003DFC002DEBD1DAE7014B01221A707047F4
:10651400C62A00207047000070B50E4D06460FCD08
:1065240088B06C460FC495E80F00002E84E80F0075
:10653400094A0A484FF0130308BF00226946009332
:1065440003F0B2F808B100F073FC054B1E7008B0FC
:1065540070BD00BF042203000D650200DC29002089
:10656400852A002007B5044B0093044A4023FFF713
:106574006AFF03B05DF804FB85650200862A0020EB
:1065840038B50D480D4C0E4D002323700378EB5C99
:10659400D2B263B1043003F051FE08B100F048FCFC
:1065A400084B1A7812B12378002BFBD038BD0C307D
:1065B40003F034FCF1E700BFDC290020C62A0020E8
:1065C40088330020852A002008B50848084A037843
:1065D400D35C3BB1043003F0C3FDBDE808400020A8
:1065E400FFF79ABF0C3003F0ABFBF6E7DC29002081
:1065F400883300200120FFF78FBF000038B50A4D13
:10660400FFF71FFF0421284600F0BEFA074B0124C0
:106614005C71FFF7EFFF042105F1100000F0B4FAFC
:10662400034B5C7138BD00BFBC210300F02900207E
:10663400F8290020037813F0040216D003F00303B2
:10664400012B03D0022B09D0012070470A6800886F
:106654000232C0F3831002440A60F5E70B684288F3
:10666400023303EB92130B60EEE710467047000011
:106674002DE9F04FDFF830A187B00F460023044620
:10668400861C0DF1070015468DF8073000F0CAFE90
:10669400DAF800103960DAE90132134401335B1A85
:1066A4000AF21C470AF583690AF21448B3421CD360
:1066B4000020002D73D004F00F039B0143F0050369
:1066C40063F30F00DAF80020DAF8083013400333DC
:1066D40032444AF823009DF80700CAF8002000F06D
:1066E400C5FE012007B0BDE8F08F0121384601F056
:1066F400D4FE484601F0ECFE404601F0E9FEDAF82B
:106704000400DAF808B0029000EA0B0003300AEB48
:10671400800002A9FFF78EFF029B50BB0BEA030225
:106724000AEB820203F1020CD2680392013303EAFA
:106734000B0B0AEB8B0B02F00302012ADBF80C10A3
:10674400CDF808C023D0022A16D08346404601F073
:10675400C2FE10B1029BCAF804305946384601F013
:106764009CFEDAE901231344DAF8002001339B1A72
:106774009CE70BEA0300C9E7BDF80E30C3F38913A5
:1067840003334FEA114B0CEB93030293DEE7BDF89E
:106794000C30C3F383134FEA114B6344F5E7A405AC
:1067A40044F006008EE700BF982B00200B4B0C48EA
:1067B400FF2210B59A600022C3F81824C3E900220E
:1067C400C3F8142483F8202402F0ADFB044610B966
:1067D400044802F085FC204610BD00BF982B002021
:1067E400C02003006822030030B50A4C71B10A4A84
:1067F4000A49121BD20800239A4201D1002030BD5D
:1068040031F82350854202D00133F5E7034654F8AA
:106814003300F4E7D4200300BC210300DC2900206A
:10682400094B013903EBC000032909D8DFE801F063
:106834000A020406042070470079704740797047C3
:106844000020704702207047D4200300034BD3E993
:106854000030C31A58425841704700BF982B00209B
:106864002DE9F04387B0FFF7F1FF0646002840F01A
:10687400FE80804CC4F81804BFF34F8F6368A5688A
:1068840002932B40033304EB830002A9FFF7D2FEEB
:10689400029B18B1D4F81824002A62D005EA030236
:1068A400991C013304EB82022B4004EB8303D2686E
:1068B400DB68049302F00303022B0392029163D179
:1068C400BDF80E306C48C3F38917502FB84628BF63
:1068D4004FF0500808F1080168F38F13C1F3090160
:1068E400ADF80E3002F037FB0646002800F0AA800F
:1068F40002F060FB0023082203A9304602F06CFB7F
:10690400029925EA01020132B8EB820F4FEA8203B1
:1069140033D95FFA88F863B32940DDB2A8EB0508E0
:1069240003315FFA88F9A846544D04EB810108232A
:106934004246304602F050FB3DB108F10803DBB299
:106944004A462946304602F047FB029B033703EBD5
:1069540097070297D4F81834002B4BD1D4F810546D
:106964005BE022689A428CD86260304607B0BDE88A
:10697400F08342491D469946D9E72940033108234B
:10698400424604EB8101DDE7012B5BD1BDF80C30FD
:106994003948C3F38311062928BF062161F38913FB
:1069A400023101F00F018900ADF80C3002F0D3FA86
:1069B4000646002846D002F0FDFA0023082203A967
:1069C400304602F009FB0027BDF80C20C2F3831205
:1069D400BB00974203F10803BCD202994A1C294028
:1069E4000331029204EB81010422304602F0F4FAEE
:1069F4000137E9E7304602F0E1FAFFF727FF80F0BC
:106A04000100C6B2B1E7EB685B7923B12B6831466C
:106A14001B6828469847EB681D68002DF3D1304663
:106A240002F0CCFA0DF107008DF8075000F0FAFCE3
:106A3400D4F818340BB9029B63609DF8070000F08A
:106A440015FDDAE7D4F8104454B90D4B0D480E493E
:106A5400C01AC008000440F0020000F063F8CCE75C
:106A6400236820469B689847E3681C68ECE7002687
:106A74007BE700BF982B0020C0200300A42B00203C
:106A8400D420030024210300512203002DE9F74FF1
:106A9400224E04460F46924601A901221846D6F812
:106AA40008909B46FFF7E4FD20B3019D4FF00008DA
:106AB400AA1CD84508EB020126D11948002101F08F
:106AC400A5FC80F31000000440EA1440E4006B1CB1
:106AD40004F0380403EA090305EA090544F0010453
:106AE40006EB8303033544EA881444EA8724D86018
:106AF40046F8254096F820341BB1FFF7B1FE002874
:106B0400FBD103B0BDE8F08F09EA010106EB810176
:106B14005AF82830CB6008F10108CAE7982B002006
:106B2400B42F002000231A46FFF7B0BF07B5012396
:106B3400019201AAFFF7AAFF03B05DF804FB07B5B1
:106B4400CDE9002302236A46FFF7A0FF03B05DF8F6
:106B540004FB1FB5CDE90123069B039301AA03237C
:106B6400FFF794FF05B05DF804FB1FB5CDE90023E2
:106B7400069B0293079B03936A460423FFF786FF51
:106B840005B05DF804FB000030B50F4CD4F81024B8
:106B940003460020114631B9D96808714AB9C4F8CE
:106BA40010340A6030BDC9680D79854206D0096881
:106BB400F1E7D26814680C601360F3E701300A2827
:106BC400E8D14FF0FF30EDE7982B002038B5084BA3
:106BD4000125D3F8104483F8205404B938BDE36880
:106BE4005D71236820465B689847E3681C68F4E796
:106BF400982B002030B5C38885B004460D4633B1C8
:106C0400144A00921449154A284601F0C7FC217A17
:106C140005291DD0637A4BB1A088FFF701FE104B04
:106C2400104953F82020284601F0B8FC227A0E4B74
:106C3400A08853F8222003920021FFF7D5FD039A80
:106C44000A490346284605B0BDE8304001F0A6BC19
:106C540005B030BD942203007C220300742203009B
:106C640000230300BF4403002423030099220300EC
:106C740007B503460846197A052911D05B7A2BB16A
:106C8400094A0A49019001F089FC019808490190D8
:106C940001F084FC019803B05DF804EB01F073BCCF
:106CA400002AF8D0F2E700BF94220300BF44030097
:106CB4000C4F03002DE9F04385B01F460C9D0023C3
:106CC40095F80C902B7306460C4690462946384698
:106CD400FFF790FFB8F1060F09D8DFE808F00412B7
:106CE400181F283340003146284601F057FC002283
:106CF40029463846FFF7BCFF85F80C9005B0BDE87F
:106D0400F08322683146284601F048FCEFE7D4E9D5
:106D140000233146284601F041FCE8E7A3680093CC
:106D24003146D4E90023284601F038FCDFE7E36864
:106D34000193A36800933146D4E90023284601F067
:106D44002DFCD4E723690293E3680193A3680093BD
:106D54003146D4E90023284601F020FCC7E76369E3
:106D6400039323690293E3680193A3680093314674
:106D7400D4E90023284601F011FCB8E708292DE9DD
:106D8400F74F80460E4617461C4639D8002593F81F
:106D94000C901D7319461046FFF72CFFDFF880A0F6
:106DA400DFF880B0AE422ED918F8052059462046A7
:106DB40001F0F4FB0135082DF4D11849DFF868A07F
:106DC400DFF868B0204601F0E9FB0025AE421FD988
:106DD40018F80520019210460AF0FCFC0028019ADC
:106DE400594608BF2E22204601F0D8FB0135082D54
:106DF400ECD1012221463846FFF73AFF84F80C9083
:106E040003B0BDE8F08F5146204601F0C7FBD1E73F
:106E14005146204601F0C2FBE8E700BFAD22030063
:106E2400A9220300A3220300E82A0300AF220300DF
:106E34001FB50021039001AA44F20100CDE901111C
:106E440000F004F805B05DF804FB000038B572B634
:106E5400FFF7BCFEFFF704FD0028FBD1104B114CDB
:106E6400114D1249E41AE408240444F00100FFF728
:106E740059FED5F8F030DB0700D500BE0C4944F0CC
:106E84000200FFF74FFEBFF34F8FEA68094B02F48D
:106E9400E0621343EB60BFF34F8F00BFFDE700BF19
:106EA400D42003002421030000ED00E03823030074
:106EB400442303000400FA05094B5A7899780132F7
:106EC400D2B2914208BF0022197891421FBF0270CA
:106ED4005878182202FB003014BF04300020704799
:106EE4005430002073B5054600240DF107000E460A
:106EF4008DF8074000F096FA0DF10600FFF7DCFF6D
:106F040090B10670094B9DF8062045605A709DF8B3
:106F1400070000F0ABFA24B9054B4FF48012C3F814
:106F24000021204602B070BD0424F0E75430002054
:106F340000E100E0024B4FF43C6043F001031847CA
:106F44006023030038B50C4B0C4C4FF40032C3F8EB
:106F5400802001254FF48033C4F84833C4F8083343
:106F64006560FFF7E7FF064BA56000241C60FFF790
:106F7400E1FF044B1C7038BD00E100E0001001404B
:106F84007031002061310020F8B51F4B1F491B6888
:106F94000025C1F84051C1F84451C1F84851C1F825
:106FA4004C51C1F80051C1F804514BB3D1F8044518
:106FB40017490968641A24F07F442F461A68A242CC
:106FC40009D8A41A15441A7CDE691AB1D3E905203C
:106FD4001F749047AEB90F4A0F4B11781B788B4240
:106FE40005D10133DBB2022B08BF002313701278E2
:106FF4000A4B43F822500A4B4FF48012C3F8002185
:10700400F8BD3346DAE700BF7431002000100140B8
:10701400703100206D3100206C310020643100207B
:1070240000E100E02DE9F04FA14AA2491378097864
:10703400A14D994285B03CD00133DBB2022B08BF8D
:10704400002313709D4912789D4B0F6853F822005A
:107054003B1823F07F4300220B602B68164614462E
:10706400944613B942B12B6006E0196881420ED9E7
:1070740002B12B60091A196001272B68DFF848A2B6
:1070840001934FF00008BEB9DFF844B260E0401A43
:107094000C44D968D3F81CE0C3F800C031B13A19E4
:1070A40022F07F42C3E90121DE611E4673460122BC
:1070B400D7E700263746E0E73446F6697F4B606839
:1070C4001B68DFF810C2A168C21A22F07F42624531
:1070D40000F2A6800A442260012222742A68002356
:1070E400C4E90133E361002A40F0A3802C60CAE7BD
:1070F4009BF802105A1CD2B291428BF8002004BFB4
:1071040000228BF80020182202FB03B32A681979A5
:107114009C68022975D003297FD0012918D1207CCD
:10712400B0B9D3E90312A2605A69E2609A69654B67
:10713400A2611A78002A18BF01466160BEE78C423A
:1071440000F094808946C9690029F8D1002323748A
:107154009BF800309BF801209A42C9D12B68B8F102
:10716400000F04D1019A9A4201D1002F43D0002B81
:1071740079D0D3F800A0544D504BD5F804751C6851
:10718400DFF854813E1B98F8003026F07F46033622
:107194009BB94FF48033C5F84433C5F804334B4BE3
:1071A4004FF400324FF00109C3F880211A60C5F88A
:1071B4000090FFF7BFFE88F80090B2452CBF5444FE
:1071C400A41924F07F44C5F84045D5F80435DB1BE9
:1071D40023F07F43E41B033324F07F44A3420AD902
:1071E400D5F80435C5F84035FFF7A4FE374B4FF406
:1071F4000032C3F80021334B00221A7005B0BDE8F9
:10720400F08F114691469FE71174D2690123002A39
:10721400FAD1002B9CD02A609AE700231946F6E79E
:107224001B1A23F07F438B4234BFCB1A0023236005
:1072340052E721681368994213D85B1A1360E2611C
:1072440054E7091AD8691A4638B1034618688842BF
:10725400F7D3401A1860184613462160E061DC61D8
:1072640011E71346F2E7FFF76DFEC4E74C4511D171
:10727400D3692B6073B9DFF844E00120CDE9021231
:10728400CAF80800CEF800300E4B1870FFF752FE13
:10729400DDE902120B68C969C9F81C1011B108684C
:1072A40003440B602B68934218BF4FF001084DE76D
:1072B4006C3100206D3100207431002070310020C9
:1072C40064310020603100200010014000E100E042
:1072D40054300020FEFF7F006131002008B5FFF725
:1072E40031FE104B00200B2218809A700E4B186050
:1072F4000E4B18700E4B18700E4B4FF48012C021B9
:10730400C3F8802183F814131A6002F18042A2F5B5
:107314006F22C2F8080583F81113074BD2F804252D
:107324001A6008BD54300020743100206C310020F4
:107334006D31002000E100E070310020074B9B78A4
:107344004BB132B128B10368187C20B959745A6121
:107354007047072070470820704700BF5430002052
:107364002DE9F743DFF8848098F8023005460E468D
:107374001746ABB3A0B3042930D9436983B3437C24
:107384000024012B0DF107000CBF8946A1468DF89E
:10739400074000F047F80DF10600FFF78DFDD8B166
:1073A400012303700F4B4560D3F80435C0E90497FB
:1073B400C0E902369DF8063088F801309DF80700D0
:1073C40000F054F824B9084B4FF48012C3F800219C
:1073D400204603B0BDE8F0830424EFE70724F7E771
:1073E4000824F5E70010014000E100E054300020DB
:1073F400064A92783AB130B1426922B1002202744D
:107404000221FFF76FBD0820704700BF54300020F1
:10741400014BD3F80405704700100140401A20F0D6
:107424007F40704770B5EFF3108672B60C4A9468CB
:1074340001239CB993600B4B0B4DD3F8801029406A
:107444001160C3F88050D3F8841051604FF0FF32BC
:10745400C3F88420047006B962B670BD0370FAE7FD
:107464007831002000E100E0FC06FFBD084B9A687B
:1074740010B55AB150B9EFF3108172B6054A1C68C1
:1074840014605C685460986001B962B610BD00BFB6
:107494007831002000E100E070B5064D0646002476
:1074A40055F8043B0BB1304698470134042CF7D10E
:1074B40070BD00BF903100204388033300EB830389
:1074C400994209D382884FF6FF739A4206D0008806
:1074D400B0FA80F0400970470220704701207047DD
:1074E400033080B240F2FD33984230B51FD8124BBE
:1074F4001A783AB91C895D892C440444A4B2B4F5C1
:10750400806F0AD31A7DA2B99A8BDC8B2244024481
:1075140092B2B2F5806F0CD201220A801446142272
:1075240002FB04335A8910445881002030BD0920DD
:10753400FCE70720FAE700BFC43100200B4A0C49DE
:107544005388142000FB0311CB6833B90420496825
:1075540010700122074801F0AFBA074905231370E0
:1075640002238B80012209680023F3E7A83100205D
:10757400C4310020C82900208C32002007B5002324
:1075840005490093054A09680548082301F0FAF9FA
:1075940003B05DF804FB00BF8C32002074230300A9
:1075A400C829002007B5002301460093034A044874
:1075B400082301F0E7F903B05DF804FB6C23030032
:1075C400C829002013B500230C4600930146084A3D
:1075D4000848042301F0D6F938B9074B142101FBFC
:1075E400043101230B7402B010BD0E20FBE700BF71
:1075F40068230300C8290020C431002037B50A4895
:107604000A4B42689C881968538803250333057024
:107614009BB2002000909B0001EB8401044801F020
:10762400B1F903B030BD00BFA83100208C32002076
:10763400C829002010B50146044800F01BFE1C2296
:10764400044600210AF04AF9204610BD7832002091
:1076540068B10268084B9A4209D14068074B9842C6
:1076640007D00133984214BF032001207047032040
:1076740070470020704700BFDEC0ADDEFE011EF182
:107684002DE9F0410D460223154F2B80164600F5D7
:10769400805100F108044FF001088C420ED2236897
:1076A40001330BD02046FFF707FF48B10EB186F82F
:1076B4000080022809D14FF480632B80BDE8F0815B
:1076C400A3683A68934200D93B602B8862880333ED
:1076D40013442B806388033304EB8304DDE700BF8A
:1076E400BC31002038B5144B14220D4602FB003087
:1076F4002B68446804F58051A3B15C88033403EB20
:1077040084048C4215D22368013312D02046FFF73B
:10771400D3FE012808D002280BD00028F1D12C6018
:10772400012038BD0834ECE76388033304EB830499
:10773400E7E70020F5E700BFC4310020426873B5D5
:1077440004460D4662B3234BD9688A4228D31B6989
:107754009A4225D812F0030322D11F4900890989CE
:1077640088421DD120689168884219D11B4841681C
:107774008A4203D901F580518A420DD381698A4234
:107784000CD901F580518A4208D201222A80B3FA29
:1077940083F0400902B070BD1A46F7E70A23F6E702
:1077A40000262E800196288801A9FFF79BFF30B997
:1077B4002B8801339BB2012B2B80F3D9EAE7019B81
:1077C400226899689142EED16360034B1B8923813F
:1077D400E0E700BFC8290020A8310020C431002000
:1077E4002DE9F8431C461C4B1B7806460F461546EC
:1077F4006BB372B36CB3DFF868804FF01409A388DD
:10780400012B01D90A2020E009FB03F318F8033007
:107814002BB9A0882146FFF765FF20B92060A38813
:107824000133A380EBE723681EB199883288914223
:10783400EFD11FB119883A889142EAD19A68C5E913
:107844000023064B1B892B810020BDE8F88302200E
:10785400FBE70520F9E700BFA0310020A831002094
:10786400C431002008B5074B5888191DFFF73AFFAB
:1078740018B1BDE80840FFF7C1BEBDE80840FFF7F6
:107884005DBE00BFA83100202DE9F0479F4FDFF80F
:10789400A08288B006463B6823B99D48414600F063
:1078A40023FD38603D6829784B1E052B07D8DFE897
:1078B40013F01F0077007700070107015B010F2415
:1078C4001422002103A80AF009F841F61D539C4232
:1078D40008BF00243B6804941A78023A042A00F290
:1078E400F981DFE812F0DA01E6010802100217025A
:1078F40026B1884B00225A600124E1E72B79032B3F
:107904001CD8DFE803F014022934834A1378022BCD
:1079140019D0137D022B4FF0010316D114214B43D0
:10792400D1180020D0544868FFF73CFE03E001233F
:107934002B71FFF723FE002800F0BD80754B002259
:107944005A600E24BCE70023E8E7724A1370002350
:10795400536041F61D54B3E7704971480023022275
:107964002B718A800968012201F0A6F8E3E76B4CC9
:1079740000262E712068FFF715FE6A4BDFF898C1C8
:107984005B882568142253430CEB03020CF8036054
:1079940051685560A588158102222160A280CAE73A
:1079A400B5F814A0AA7DDFF87091AEB1022AEB8875
:1079B40006D9142101FB0A91DA1C088902440A81C0
:1079C400142202FB0A99C3F57F43B9F80A20FD3358
:1079D4001344A9F80A308FE7142303FB0A93188988
:1079E4005C6804EB8004062A68D8DFE802F0274DBF
:1079F40035431D59040041F61D54AA7DEB88022A23
:107A040006D9142101FB0A91DA1C088902440A816F
:107A1400142202FB0A99C3F57F43B9F80A20FD3307
:107A24001344A9F80A304BE73F4840490023436018
:107A3400AB690360FFF782FE002859D00223AB75BF
:107A4400002300930423EA182146354800F09AFFE6
:107A5400002830D00E24D0E72B69002B14BF032359
:107A64000123AB750023009305F10C02042304F1F8
:107A74000801EAE70123AB750022EB8800922A692A
:107A84009B0004F10C01E0E703290CBF0523062346
:107A9400AB7500230093042305F10802E118D4E731
:107AA4000623AB75214B19881F4B5868FFF78AFDD5
:107AB40004460028A1D108B0BDE8F0870F249CE754
:107AC400002E7FF419AF2B79012B33D0022B3FF416
:107AD40040AF002B7FF4F3AE02232B710DF10A01AA
:107AE400EB68039303A8CDE90466FFF727FE08B902
:107AF4000A24E5E60498BDF80A108388EB8003881D
:107B04002B81FFF75FFD044627E000BFC031002052
:107B140078320020A0310020C43100208C320020B3
:107B2400C8290020A8310020843100209832002088
:107B3400B8310020DFF8F89103AA4B463146A81D5E
:107B4400FFF74EFE044660B9B9F804100498FFF735
:107B540039FD04460A2C3FF4FCAE002C7FF4B0AE91
:107B6400A9E7C9E90066F5E7002E7FF4C5AE6B4BC3
:107B74001A7BBAB11E731A78013A062A3FF69FAEF1
:107B840001A151F822F000BF337C0200597C0200AD
:107B9400777C02007D7C0200C3780200837C0200B3
:107BA400957C02001A78072AE5D801A151F822F041
:107BB400D57B02007B7B02007B7B0200FB7B020007
:107BC4000F7C02002F7C02002F7C0200F77B020056
:107BD4001A89534901321A8100225A801A730A7889
:107BE400B2FA82F252099A720A7DB2FA82F2520908
:107BF400DA72012207E04B4958688A8840880332C8
:107C040002448A8002221A70B5E75C88444A4549D6
:107C1400142505FB04220868546850608888108184
:107C240002228A800C600622EDE70722EBE79A7AAB
:107C340032B9DA7A8AB900221A705A805A6088E610
:107C4400374900229A72CA68002AF2D1097C0029B5
:107C5400EFD05A80FFF706FE55E70022DA72304A69
:107C6400116A0029E7D192F82420002AE3D00122E6
:107C7400EFE7FFF7C3FC46E7FFF760FC43E75A88EA
:107C8400274B142101FB02335868FFF78BFC3AE7BA
:107C940000225A60FFF772FC35E701228DF80C20B0
:107CA4001A89ADF818209A88DB68ADF81A20059374
:107CB40010E002228DF80C201A89ADF818209A8859
:107CC400ADF81A20DA689B7D05929A1F53425341FE
:107CD4008DF81C3003A8FFF7DFFB0026414612484D
:107CE4003E6000F02CFB1148012100F0E2FB00286B
:107CF4007FF4D1ADDFE603228DF80C20DA88ADF8ED
:107D040018201A89D0E704228DF80C20DB88ADF8FE
:107D14001830DFE705238DF80C30DBE7A8310020AD
:107D2400C43100208C3200207832002088320020B8
:107D34009C3200204068FFF7A7BD000008B5054845
:107D4400012100F09EFB18B9BDE80840FFF79CBD77
:107D540008BD00BF883200202DE9F3419846354B19
:107D64001B7806460D46002B5BD000295BD00988A2
:107D74004FF6FF73994258D06B88002B55D06B682F
:107D84009B0754D14AB92F890DF102013846FFF7F8
:107D9400A7FB30B102B0BDE8F08113885788ADF875
:107DA400023001A8FFF746FC044658B9BDF802208A
:107DB400214B142101FB023358890338C01B58811D
:107DC4000820E7E780F8008000238375BDF80230BF
:107DD40083826B6803610121184800F05EFB2B88E5
:107DE4002381B8F1030F6B88A38004BF0423A37518
:107DF4004FF0000508BF3368E06008BFA361104876
:107E0400E780658101A900F05FFA36B1E368336069
:107E14000C4B75601B89B5723381FFF78FFF00200F
:107E2400B8E70220B6E70520B4E70420B2E7032050
:107E3400B0E700BFA0310020C4310020BC310020D5
:107E440078320020A831002008B5034607480268AC
:107E5400042A08D00168064A42F82130012100F0C2
:107E64001CFB002008BD0C20FCE700BF943200205E
:107E7400903100202DE9F04F89B01422002103A88D
:107E840009F02CFD724B1B7803F0FF0201923BB109
:107E940003A8FFF701FB0026304609B0BDE8F08FC8
:107EA4006B4B181D00F011FB0028F4D14FF0102388
:107EB4004FF080525B6911695269DFF8ACB1581C0C
:107EC40008BF02FB01F3CBF810306249A3F540531D
:107ED40000225846CBF80C3000F022FD064600285C
:107EE400DAD11C235C495D48DFF880A1DFF880818A
:107EF4008C2200F08AF90323B146354600933446B8
:107F0400DBF80C704F443846FFF7A2FB01283946D2
:107F14004AD0032815D0002835D11421614308EB39
:107F2400010208F80100576001F1100208314244CF
:107F340041443846FFF7A4FB45F002050134A4B2DE
:107F440021E007F580520868013074D10431914270
:107F5400F9D1DAF800203AB902220123CAF80070F4
:107F6400AAF8042001930CE014226243022008EBD7
:107F7400020108F802003A4A4F6054800134088133
:107F8400A4B245F0010509F58059B9F5405FB7D1B0
:107F9400009B012B98BF0025EDB2022D02D0062DC7
:107FA40020D045BB0B2677E7019B63B114226243C3
:107FB40008EB0201022008F802000134DAF800207C
:107FC4004A600881A4B200222649CAF800703846E3
:107FD400FFF756FBBAF80420022A0CBF0422082239
:107FE4001543D0E71A4A0123137003A800235360F2
:107FF400FFF752FA50E702A8FFF71CFBC8B10123B0
:10800400013D03700A2D09D8DFE805F006080608CB
:10801400070807080F110F000023037102A90F4876
:1080240000F052F9FFF78AFE36E70323F5E702234F
:10803400F3E7082630E7009B5A1E93B214226243EA
:1080440008EB020100934F60032108F8021075E762
:10805400A031002068250300EC3100207832002094
:10806400A831002090320020C82900208C32002042
:10807400C431002073B50D460446C8B1C1B10DF139
:108084000601FFF75BFBA8B1BDF806300A48666835
:10809400142202FB030001210C3000F0FEF9636896
:1080A4002E600C336B600123A372002002B070BDFC
:1080B4000520FBE70A20F9E7C431002013B5044684
:1080C400A8B10DF10601FFF739FB90B1BDF8062008
:1080D4000A4B142101FB0233DA6862B1A27A52B16D
:1080E400DA680020013ADA60A07202B010BD0520FF
:1080F400FBE70A20F9E70620F7E700BFC4310020B8
:1081040002230022FFF728BE18B103230022FFF741
:1081140023BE052070470000104B1B7813B504469E
:10812400ABB14FF6FF73984213D001A8FFF782FA60
:1081340088B10523037001230371C48001A9084891
:1081440000F0C2F8FFF7FAFD002002B010BD0220D3
:10815400FBE70420F9E70820F7E700BFA03100207F
:10816400783200200E4B1B7807B5A3B101A8FFF7A6
:1081740061FA90B10623037001A90A4800F0A4F83B
:10818400094B1A780AB101221A73FFF7D7FD0020B0
:1081940003B05DF804FB0220FAE70820F8E700BF0B
:1081A400A031002078320020A831002007B5ADF8B6
:1081B4000600ADF804100DF1060001A9FFF710FB4D
:1081C40003B05DF804FB07B51346ADF806000A4694
:1081D40000200DF10601FFF703FB03B05DF804FB7B
:1081E40007B51346ADF806000A460DF10600002156
:1081F400FFF7F6FA03B05DF804FB20B119B1036888
:108204000B60002070470520704710B561B1B2FBC8
:10821400F3F403FB1424A4B244B9C0E90014846049
:108224008281C381204610BD0E20FCE70920FAE7B5
:1082340082B050E8022FC188B2EB324F4FF00003F6
:1082440017BF92B241EA014142EA014104E04268A7
:10825400B2EB324F08BF012340E80212002AE8D1F2
:108264008DF807309DF80730002B0CBF112000203B
:1082740002B0704737B550E8013F9DB2C489254428
:108284008489A54228BF2D1B0489A54202BFBFF3E0
:108294002F8F002207E0C5EA030540E80154002CB3
:1082A400E9D14FF001028DF803200193019A0A608D
:1082B4009DF8031001F0FF0321B1006810FA82F069
:1082C40003B030BD1846FBE70A884B889A4209D1AF
:1082D40050E8012FC2EA024240E80123002BF7D103
:1082E400012070470020704737B550E8023F1FFA5D
:1082F400A3F5C488A54202BFBFF32F8F00220DE06F
:10830400C48925448489A54228BF2D1BC3EA054599
:1083140040E80254002CE8D14FF001028DF803200C
:108324000193019A0A609DF8031001F0FF0321B143
:10833400006800EB124003B030BD1846FBE70A8822
:108344004B889A4209D150E8022FC2EA224240E8FF
:108354000223002BF7D1012070470020704701F061
:108364001F024B090121914000EB830000F065B826
:108374004B0910B501F01F040121A14000EB83005B
:1083840000F04FF8E04000F0010010BD01F01F03C1
:1083940001229A404B0900EB8300D14300F065B8F9
:1083A4004B0901F01F0150F82300C84000F0010000
:1083B40070472DE9F0474F1E7F0980460E4601376E
:1083C400002558F8254008EB8509E44394FAA4F401
:1083D400B4FA84F44FEA451A202C06D10135AF4291
:1083E400EFD834462046BDE8F0875444A642F5D978
:1083F40021464046FFF7BCFF0028F3D0D9F80040DF
:10840400E44394FAA4F4B4FA84F4E5E710B503461B
:1084140053E8000F0A4643E8002494F0000FF7D114
:1084240010BD10B5034653E8000F40EA010243E8CB
:10843400002494F0000FF6D110BD10B5034653E8A4
:10844400002F42EA010043E8000494F0000FF6D143
:1084540010BD10B5034653E8000F00EA010243E8DB
:10846400002494F0000FF6D110BD10B5034653E874
:10847400002F02EA010043E8000494F0000FF6D153
:1084840010BD10B5034653E8000F00EB010243E8AA
:10849400002494F0000FF6D110BD10B5034653E844
:1084A400002F02EB010043E8000494F0000FF6D122
:1084B40010BD10B5034653E8002FA2EB010043E8BA
:1084C400000494F0000FF6D110BD0121FFF7A9BFFD
:1084D4000121FFF7B2BF0021FFF7BBBF10B590B178
:1084E400D0E9012301689B1ADBB20A60013BDBB2CD
:1084F400FF2B026802D10020107110BD11684C1CC2
:1085040014600B70F2E70E20F7E737B50546002438
:108514000DF107008DF80740FEF784FF2A686B68A9
:10852400116899420ED9481E106011F8013CEC689C
:10853400298A01FB0344AB6811791B1ADBB2994207
:1085440038BF13719DF80700FEF790FF204603B073
:1085540030BD37B5054600230DF107000C468DF8F4
:108564000730FEF75FFF2A681368591C1160E96839
:10857400641A298AB4FBF1F41C709DF80700FEF715
:1085840075FF03B030BD826810B504462AB1436953
:108594000168006998470023A36010BD0EB403B5B9
:1085A400039921B104AB01AA019300F06FF802B062
:1085B4005DF804EB03B07047826830B40468551C5E
:1085C4008560A154D0E901329A4202D330BCFFF74E
:1085D400DABF30BC704700002DE9F84F9846DDE95A
:1085E4000A43154682460F460A464FF00109AA423D
:1085F4000FD2C14538BFC14613F0010B01D16CB98C
:1086040000240126B8F1010F1BD908F1FF386E438D
:10861400F8E709F10109B2FBF5F2E8E79B070ED58B
:10862400B8F1000F0CBF30262026A145E9D2013C49
:1086340031465046FFF7C0FF002CF6D1E0E7202674
:10864400F3E7B7FBF6F39D42E1D9DFF83C80B7FBD3
:10865400F6F3504618F8031006FB1377FFF7ACFF48
:108664003346AB42B6FBF5F6F1D2BBF1000F02D0B4
:108674000CB1A14501D3BDE8F88F20215046013C3F
:10868400FFF79AFFF4E700BF7C2303002DE9F74FBF
:10869400054617468846002900F03E8118F8011B5C
:1086A40049B92B7B002B00F03781284603B0BDE885
:1086B400F04FFFF768BF252940F0B780002698F8EF
:1086C40000302D2B424608F1010823D0302B24D052
:1086D4002B2B25D000242A2B02F1010123D13B6846
:1086E4001A1D1B683A601C440A4613782E2B26D1A7
:1086F40001324FF0000A104610F8011BA1F1300CB2
:10870400BCF1090F1DD80A2303FB0A13A3F1300A95
:108714000246F0E746F00106D1E746F00206CEE74E
:1087240046F00406CBE711F8013CA3F13000092818
:10873400DBD80A2202FB0434303C0A46CBE74FF074
:10874400000A12F8011B01F0FB0068289046F8D0DB
:10875400782909D86F290CD8632962D022D8252911
:1087640063D0582900F0888098F80030002B95D108
:1087740097E770390829F7D801A353F821F000BF0F
:10878400F78802006D8702006D8702008D88020061
:108794006D8702006B8802006D8702006D870200FE
:1087A4007D880200642901D06929DDD13A68D2F8B4
:1087B4000090111D89EAE9723960A2EBE9724FF069
:1087C400010B092A35DCD34538BFD3462CB1B9F1A6
:1087D400000F01DB720700D5013CB30702D5BAF1E3
:1087E400000F03D0F00701D44CBB0024B9F1000FF3
:1087F4002DDAC9F100092D212846FFF7DDFE06F028
:108804000302022A04D1BAF1000F01D11CBB0024D7
:10881400CDE9004653460A2249462846FFF7DCFEC6
:10882400A2E73B681A1D19783A602846FFF7C4FE90
:108834009AE70A230BF1010BB2FBF3F2C1E7A3455C
:10884400D4D220212846013CFFF7B6FECCE77107BD
:10885400D5D52B21D0E7A345DAD230212846013CD7
:10886400FFF7AAFED2E73968CDE900460A1D3A604F
:1088740053460A220968D0E739680A1D3A60CDE9EF
:10888400004653461022F5E73B681A1D3A6016F07D
:108894000106D3F8009024D1B9F1000F03D0484663
:1088A40009F071F80646B4421DD809F1FF3919F8E8
:1088B400011F00293FF458AF2846FFF77DFEF6E775
:1088C40028460136FFF778FE19F806100029F7D17B
:1088D400A642BFF449AF20212846013CFFF76CFEB5
:1088E400F6E70026F0E720212846013CFFF764FE66
:1088F400D9E73B681A1D3A60302128461C68FFF707
:108904005BFE78212846FFF757FE00220823CDE9B5
:1089140000322146102280E703B0BDE8F08F00BF8B
:1089240013B50B46114680B9104B1148114AC01AB1
:108934000E23C0080093104B0004104940F00100BE
:10894400FEF707F90E2002B010BD4BB9074B0848DB
:108954000B4AC01AC0080E2300930004064BECE730
:1089640003601B6802B0BDE810401847D420030020
:10897400442103008C2303004825030091230300B2
:10898400C02303002DE9F743DDF8288088B93E4B66
:108994003E483F4AC01AC0080E243E4B00940004CF
:1089A4003D4940F00100FEF7D4F8204603B0BDE88D
:1089B400F0834AB9344B3548384AC01AC0080E24EB
:1089C400344B00940004EBE7D0F800E0BEF1000F54
:1089D40009D12D4B2D48324AC01AC00808242D4B0A
:1089E40000940004DCE74BB9274B28482D4AC01AF1
:1089F400C0080924274B00940004D1E74568D5F842
:108A04000490B3FBF9F509FB15354DB11E4B1F4816
:108A1400254AC01AC00809241E4B00940004BFE76D
:108A24008D0709D0184B1948204AC01AC0081024D1
:108A3400184B00940004B3E712F0030F09D0124B53
:108A440012481B4AC01AC0081024124B0094000498
:108A5400A6E7C568A9420DD34D1EEC180569AC42C2
:108A640008D8CDF82880DEF80C40A44603B0BDE851
:108A7400F0436047044B05480E4AC01AC00810244E
:108A8400044B009400048BE7D4200300442103002A
:108A94008C23030035250300912303000E240300D7
:108AA400BA230300CD230300142403003E2403004F
:108AB4005624030079240300F7B580B92A4B2B48C8
:108AC4002B4AC01AC0080E242A4B009400042A49D9
:108AD40040F00100FEF73DF8204603B0F0BDD0F8A9
:108AE40000C0BCF1000F09D11F4B2048234AC01A13
:108AF400C00808241F4B00940004E8E74AB91A4B45
:108B04001A481F4AC01AC00809241A4B00940004CA
:108B1400DDE74568D5F800E00EF1FF350D4209D0D8
:108B2400114B1248174AC01AC0081024114B009464
:108B34000004CCE7C568A9420CD34D1E0EFB0254B9
:108B44000569AC4206D8DCF81040A44603B0BDE881
:108B5400F0406047044B05480B4AC01AC008102473
:108B6400044B00940004B2E7D42003004421030022
:108B74008C2303002225030091230300BA2303005E
:108B8400CD230300A0240300C624030029DF70477B
:108B940028DF704770B503689E6886B004460D46AA
:108BA4006EB114220021684608F098FEA36805936C
:108BB400237901952BB1012B0DD06846B04706B03F
:108BC40070BD01238DF8003023690293E368039399
:108BD40063690493F1E702238DF80030E3681B0313
:108BE4000293F5E70846704700207047024B187A55
:108BF400003818BF0120704740330020034B187A17
:108C04000122B0FA80F05A744009704740330020C2
:108C140008B510461A4608F038FE002008BD0000CA
:108C240008B514220021044808F058FE0348FFF751
:108C3400FFFA002008BD00BF40330020303300207D
:108C440010B5094C094B43602046FFF73EFC40B980
:108C540008F04AF9064920741C2306488C22FFF7C1
:108C6400D4FA002010BD00BF403300205C2503006F
:108C7400A43200203033002038B5234D234C2B7A06
:108C84003BB923492348FFF72FFB206008B96860EC
:108C940038BD022324682B72237973B1012B24D0AD
:108CA40020460321FFF776FF00232B726B601849DF
:108CB4001848BDE83840FFF742BBD4E90523D21A6F
:108CC400B2F5805FD4E9031028BF4FF480529208B4
:108CD400012A38BF012219441844FFF757FF50B145
:108CE4001128DDD101232B72D2E7D4E90303184400
:108CF400FFF74EFFF3E72B7C002BC9D1BDE83840CA
:108D0400022000F009B800BF40330020583300208F
:108D1400543300203033002038B5234C237A002B01
:108D240041D0022B09D1032830D0204B00221B68EC
:108D3400E2601A793AB1012A22D0637C7BBBBDE898
:108D44003840FFF799BFD3E905128D1AB5F5805F56
:108D540094BF521902F580529A619142EDD10228D2
:108D64004FF0000308BF19462372104B18BF0D21A2
:108D74001868FFF70FFF0E490E48FFF7E0FADCE72B
:108D84001A6901321A615B699A42E7E7E3680133C1
:108D9400082B01D8E360D0E70023E360DFE7BDE8F8
:108DA400384008F091B838BD4033002058330020D3
:108DB4005433002030330020831E012B01D8FFF7E9
:108DC400ABBF704700F0FD03012B08D1044B002218
:108DD4005A74421E504250411874FFF74DBF7047F9
:108DE4004033002010B5064C201DFFF76EFB28B958
:108DF400637C1BB9BDE81040FFF73EBF10BD00BF48
:108E0400403300202DE9F34180460D46104801A966
:108E140016461F46FFF72EFA0446B0B11822002169
:108E2400043008F05BFD2D0B0123237101A90848D0
:108E3400C4F80080A760E5606661FFF745FAFFF7B4
:108E4400D1FF002002B0BDE8F0810420FAE700BFA2
:108E5400303300202DE9F34180460F460F4801A925
:108E640016461D46FFF706FA0446A8B1182200214B
:108E7400043008F033FD089BA36001A9C4E903672B
:108E84000648C4F800806561FFF71EFAFFF7AAFFE1
:108E9400002002B0BDE8F0810420FAE7303300205E
:108EA4002DE9F84FB0F806A04579D2F800B09DF846
:108EB40028900AFB05F5043D88460BEB0301A94203
:108EC40003F1040488BFA5EB030BB4FBFAF60746D1
:108ED4000AFB1644C2F800B04EB9AAEB04055D457E
:108EE40028BF5D46BBF1000F04D1BDE8F88F3F6891
:108EF400013EF1E7043408EB06003C442A46B9F18C
:108F0400000F0DD02146ABEB050B08F0BEFCDA4593
:108F14002E443F6855464FF0000428BF5D46E1E704
:108F240001462046EFE7FFF7D9BAF8B5467901467E
:108F3400721E0546002393422D6803D30024A642E3
:108F440002D8F8BD0133F6E70F682846FFF701FBA6
:108F540001343946F3E72DE9F843068ACD1C074668
:108F6400FFF7D3FA043E35440446B5FBF6F5F0B1F9
:108F74004FF48073EDB28380C680013D0760814663
:108F84004FF00008A84512D23846FFF7BEFA06464D
:108F940048B163790133637108F10108C9F800002D
:108FA40007608146EEE72046FFF7BFFF34462046C0
:108FB400BDE8F88301210430FFF76FBA10B5012131
:108FC40004460430FFF775FAC0B220B92046BDE864
:108FD4001040FFF7AABF10BD1FB5039200220092F4
:108FE40003AAFFF75DFF05B05DF804FB1FB503920C
:108FF4000122009203AAFFF753FF05B05DF804FBBA
:1090040033DF7047064B10B500241C70054B1C6001
:10901400BFF35F8F0449054800F06BF8204610BD8C
:109024006533002068330020942503005C3300205E
:109034007047000070B5244D044601212846FFF70F
:10904400E5F9BFF35F8F38B9042C0AD01F4B1A78A7
:109054001AB1BFF35F8F286070BD1D4A14700122DE
:109064001A701C4C1A4E6368BBB9FDF7AFFDFDF7CF
:10907400F7FB0028FBD1164B1B78023B012B15D8BC
:10908400BFF34F8F1449154BCA6802F4E0621343CF
:10909400CB60BFF34F8F00BFFDE71B683078984764
:1090A4000028D6D0204600F02EF8DCE707F01CFF9D
:1090B40008B1FFF7A5FF4FF080430122C3F8002554
:1090C400BFF34F8F20BFFDE76833002065330020D6
:1090D400643300205C33002000ED00E00400FA0556
:1090E400836800225A60C3E904229A60DA601A6035
:1090F40070470B684A684360934208BF00230160CD
:1091040008BF43607047436843B10268916852687E
:109114000B449342436004BF002343607047000044
:1091240010B50D49A1F59472914201D800200FE0C9
:109134008C1AE30F03EBE4035B1002EBC30452F855
:109144003330834205D802D204F10802ECE76068A8
:1091540010BD2146E8E700BF982A030008B5FFF7D1
:10916400DFFF024B002808BF184608BD5A29030038
:10917400BFF34F8F0549064BCA6802F4E0621343FC
:10918400CB60BFF34F8F00BFFDE700BF00ED00E0F1
:109194000400FA054FF0704393F8E02F062A10D12B
:1091A400D3F8E42F12070CD1D3F8E80F00F0F00342
:1091B400302B08D000F0E000A0F1400358425841A1
:1091C400704700207047012070474FF0704393F8B8
:1091D400E02F062A0CD1D3F8E42F120708D1D3F8D4
:1091E400E80F00F0F000A0F13003584258417047F6
:1091F4000020704708B5FFF7CDFF40B14FF0805312
:10920400934AD3F82433C3F30423C2F84035FFF759
:10921400DCFF10B18F4B904A5A67FFF7BBFF48B190
:109224004FF080534FF08042D3F84432C3F34233BB
:10923400C2F83C35FFF7C9FF30B1884AD2F8FC3098
:1092440023F08073C2F8FC30FFF7A4FF40B14FF065
:1092540080430022C3F80C21C3F81021C3F8382539
:10926400FFF7B3FF20B14FF080430322C3F8A025DA
:10927400FFF7ABFF60B17A4B0522C3F81026012239
:10928400C3F888260022C3F818263F22C3F8142600
:109294004FF0704393F8E02F062A50D1D3F8E42F0F
:1092A40010074CD1D3F8E83F03F0F003502B46D11C
:1092B4004FF080526B4BD2F80414C3F82015D2F847
:1092C4000814C3F82415D2F80C14C3F82815D2F8DE
:1092D4001014C3F82C15D2F81414C3F83015D2F8AE
:1092E4001814C3F83415D2F81C14C3F84015D2F876
:1092F4002014C3F84415D2F82414C3F84815D2F83E
:109304002814C3F84C15D2F82C14C3F85015D2F80D
:109314003014C3F85415D2F83414C3F86015D2F8D5
:109324003814C3F86415D2F83C14C3F86815D2F89D
:109334004014C3F86C15D2F84424C3F87025FFF721
:1093440029FF48B14FF080534FF08042D3F8583290
:1093540003F04F03C2F8E43EFFF71CFF48B14FF09F
:109364008043D3F80024D10744BF6FF00102C3F84F
:1093740000244FF08053D3F83021062A0AD1D3F8C1
:109384003431062B01BF384AD2F83C3743F48063AA
:10939400C2F83C37314AD2F8883043F47003C2F83B
:1093A4008830BFF34F8FBFF36F8F4FF01023D3F884
:1093B4000C22D2071DD52D4B0122C3F80425D3F866
:1093C4000024002AFBD04FF01022D2F80C3223F0F4
:1093D4000103C2F80C32254BD3F80024002AFBD039
:1093E4000022C3F80425D3F80024002AFBD0FFF799
:1093F400BFFED3F80022002A03DBD3F80432002B8B
:1094040022DA1A4B0122C3F80425D3F80024002AD7
:10941400FBD04FF010221521C2F80012D3F800241B
:10942400002AFBD04FF010231522C3F804220F4B5F
:10943400D3F80024002AFBD00022C3F80425D3F873
:109444000024002AFBD0D2E7094B0A4A1A6008BD5F
:109454000030014000C007400DF0ADBA00ED00E05F
:109464000050004000C000400010004000E00140F7
:10947400002A00200090D003054A4FF0A043105C5E
:10948400D3F8043523FA00F0C04300F0010070471C
:10949400982A0300044B1A5C012393404FF0A04226
:1094A400C2F80C35704700BF982A0300044B1A5CBD
:1094B400012393404FF0A042C2F80835704700BF23
:1094C400982A030008B50020FFF7F0FF0120FFF7FA
:1094D400EDFF0220FFF7EAFFBDE808400320FFF795
:1094E400E5BF08B50020FFF7D5FF0120FFF7D2FF45
:1094F4000220FFF7CFFFBDE808400320FFF7CABFF3
:10950400074A4FF0A041105CD1F804350122824093
:1095140022EA03001340C1F80805C1F80C3570476E
:10952400982A030038B5074C051E04F1080318BF38
:109534001C4623682BB11A6822605B68284698474A
:10954400F7E738BD7433002020B9054B01225A7067
:10955400FFF7E8BF012802D1014A9070F8E770478D
:109564006C33002020B9034B01225A70FFF7DABF95
:10957400704700BF6C33002038B50B4C237883B997
:109584000A486360A3602361E36000F0D5F80546F0
:1095940007F0AAFC08B900F0DBF801232370284681
:1095A40038BD8525FBE700BF6C3300204D950200D4
:1095B40037B50B4C00230DF107008DF80730FDF78C
:1095C40031FFE368013BE360E56815B900F0D4F8C6
:1095D400A5709DF80700FDF749FF03B030BD00BF3B
:1095E4006C330020012813B508D003281CD018B907
:1095F400114B0122C3F8802002B010BD0F4C002390
:109604000DF107008DF80730FDF70CFF23780BB937
:10961400FFF7B2FFE3689DF807000133E36001231D
:10962400A370FDF723FFE7E700F092F802B0BDE86E
:109634001040FFF7BDBF00BF00E100E06C33002025
:109644001FB503788DF8003043680193037A8DF8D1
:109654000830C368054A0393054B684653F8213024
:1096640052F82110984705B05DF804FB80330020C0
:10967400843300201FB503788DF8003043680193CC
:1096840083688DF80830C368054A0393054B684620
:1096940053F8213052F82110984705B05DF804FBC7
:1096A4008033002084330020F0B5194B90F800C0BB
:1096B40091F81DE043F82C20164B16460A6943F82E
:1096C4002C20154B03F80CE00C4607460FCC89B050
:1096D4006D460FC594E80F0085E80F00CDF810C063
:1096E400BEF1000F09D0002E0C4A694608BF32466D
:1096F400381D00F06FFC09B0F0BD002E084A694621
:1097040008BF324607F10C0000F05CFAF3E700BF33
:1097140084330020803300208833002045960200E3
:109724007996020000F18040002382B00360036850
:109734000193019B02B07047044A137923B90121B4
:109744001060918018467047852070478C33002044
:10975400084B1A68D20706D4C02283F800230122DA
:10976400C3F880211A604FF080430122C3F8182502
:10977400704700BF00E100E04FF080430122DA604F
:10978400D3F81824D203FBD4704700004FF0804173
:1097940010B5D1F8003163B14FF48070FFF7C2FF08
:1097A4000D4B58790122C1F8082310B95A711B686E
:1097B40098474FF08042D2F8043163B14FF482707D
:1097C400FFF7B0FF0223C2F80833034BBDE8104093
:1097D4001B680120184710BD8C33002000F1804025
:1097E40000F5C040002382B0036003680193019B2D
:1097F40002B07047800000F1A040D0F8002722F4A6
:109804004032C0F80027D0F8003743EA0141C0F8DD
:1098140000177047C208012300F0070003FA00F0A4
:109824008B5C1843885470472DE9F04F87B00024AF
:10983400584D03944FF48072012102F1804303F5E3
:10984400C04390B21B68012B06D1D5F804330B42F8
:1098540002D0FFF7C3FF0C430432B2F5907F4FEA06
:109864004101EAD14B4BD3F87C31012B0AD14FF49F
:10987400BE70FFF7B3FF4FF0A04344F00044D3F8A9
:1098840010350393E3B2D3B1434F0025012634428C
:1098940010D0AB0003F1804303F5C043D3F81005A7
:1098A400D3F8101557F8253023B1C1F30141C0F3A3
:1098B400042098470135082D4FEA4606E7D1002CCD
:1098C40061DA00224FF0FF33CDE90423DFF8C880CA
:1098D400DFF8C89000273E464FF0A04B19F9014B22
:1098E400631C45D0C4F3C2030122E5B204F03F0077
:1098F40004F0070402FA04F406AA134413F8042C2F
:10990400224235D008EB0002AD0992F9302058F814
:1099140022A0BAF1000F09D1032D29D104A9019382
:109924000090FFF777FFDDE9000301E0032DF5D098
:1099340000F5E07113F80C3C5BF821102342C1F3ED
:10994400014105D0022913D1032D0CD1294604E08D
:1099540003290DD1032D06D1022100900136FFF712
:1099640049FF0098F6B2BAF1000F01D02946D0475A
:109974000137042FB2D136B14FF0A043039AD3F884
:109984001035934202D107B0BDE8F08F0393049BD6
:1099940005939DE70060004094330020E4330020E9
:1099A400014B1B68184700BFF03300200E4B984250
:1099B40037B50C4602D0002003B030BD00230DF1B2
:1099C40007008DF80730FDF72DFD084B1D7915B9FB
:1099D40001221C601A719DF80700FDF747FD002D58
:1099E400E9D01120E8E700BF00200040F033002058
:1099F400034B984201BF034B00221A601A7170474F
:109A040000200040F03300200023435082B043582C
:109A14000193019B02B070470A4610B54FF48E7152
:109A2400FFF7F2FF136A9168C95C136A013313628A
:109A3400C0F81C1510BD8B690A4610B54FF484712B
:109A440023B9FFF7E1FFD0F8183510BDFFF7DCFFAD
:109A5400536AD168D0F81805C854536A0133536265
:109A6400F3E700001FB501238DF80030044BCDE966
:109A74000110D3E900126846904705B05DF804FB75
:109A8400F833002030B54D4DD5F804339A0585B030
:109A940051D5D5F82431002B4DD04FF4927128467E
:109AA400FFF7B2FF4FF40173C5F80833444B93F842
:109AB40029200AB901226A60404902228DF8002057
:109AC400D1F88024C1F8802403929A690292DA685A
:109AD40001920022C3E906226846D3E900129047A6
:109AE4003648D0F81C315BB1354A116A5369994242
:109AF4004DD292F82830002B49D11146FFF78CFF44
:109B04002E48D0F84431002B55D04FF4A271FFF702
:109B14007BFF2B4B93F829200AB1012202609A693A
:109B2400002A48D0586AD96800229A6105B0BDE875
:109B34003040FFF797BFD5F804335B07D0D5D5F88D
:109B44000831002BCCD01E4C1C482146FFF773FF74
:109B5400636AA2699A42C3D1E369E1684BB1A36124
:109B64002369E3600023606AE3616362FFF77AFFBD
:109B7400B6E794F829300BB901236B600F4B4FF40F
:109B84000172C3F808230023606AA361EEE74FF46F
:109B94008E710A48FFF738FF51690029B0D00023BD
:109BA400029191688DF80030019153616846D2E9C1
:109BB40000139847A4E705B030BD00BF0020004063
:109BC400F83300202DE9F843594D90F804802C23F4
:109BD40003FB0853064693F82A300C469146002BA3
:109BE40040F0A28053490068FFF7E0FE07460028D2
:109BF40040F09C8022683068511C0BD04FF0A0418B
:109C040001239340C1F8083502F5E0734FF0030CCB
:109C140041F823C061684B1C1FBF01F5E0734FF08E
:109C2400A04C4FF0000E4CF823E0A369C0F8243593
:109C340094F814C0637DBCF1010F4CEA0303C0F82F
:109C44006C35C0F81415C0F80C251DD1A268531C3E
:109C54001FBF02F5E0734FF0A0414FF0000C41F834
:109C640023C0E368591C0BD04FF0A04C012199404C
:109C7400CCF8081503F5E0714FF0030E4CF821E021
:109C8400C0F80835C0F810252C2202FB08F2AB18E6
:109C9400C3F804902369AB50B9F1000F31D04FF4ED
:109CA4008E71227FFFF7B0FE30684FF4A271FFF788
:109CB400ABFE33682049C3F80413190B43F307338D
:109CC400002BA8BF03F160404FEA5313BCBF01F05F
:109CD4000F041A484FEA4212A8BF00F561404FEA48
:109CE4008303D2B203F16043B4BF025580F800236A
:109CF40003F5614301F01F0101228A40C3F880216A
:109D04001A6033680422C3F800252C2303FB08538C
:109D14000022C3E9062283F829205A61012283F82C
:109D24002A203846BDE8F8830827FAE71127F8E720
:109D3400F8330020899A02008000020014ED00E04C
:109D4400F8B5057900682C4C0023C0F800352C23A5
:109D540003FB05435B686BB1284BC0F8083340F341
:109D64000733C0F304315B0901228A4020332449BC
:109D740041F82320D0F80C65D0F81415D0F8083534
:109D8400D0F810254FF0FF37BE42C0F8147518BF45
:109D940006F5E076C0F80C75C0F80875C0F81075C3
:109DA4001EBF4FF0A0474FF0020C47F826C04E1CD0
:109DB4001FBF4FF0A04601F5E071022746F821705D
:109DC400511C1FBF4FF0A04102F5E072022641F87A
:109DD40022605A1C1FBF03F5E0734FF0A04202211A
:109DE40042F82310FFF704FE2C2303FB0544002351
:109DF40084F82A306360F8BDF8330020840202003E
:109E040000E100E00279044B2C2101FB0233586984
:109E1400003818BF01207047F83300202DE9F84FAF
:109E2400064689469246FFF7EDFF044600283DD1D9
:109E340096F804801F4F2C2508FB057B4FF48E7188
:109E4400CBF82000CBF814A08BF82800CBF80890AE
:109E54003068FFF7D9FD3068012383605946FFF766
:109E6400DBFDDBF804305D4613BB30682A6A6B699E
:109E74009A4211D33368D3F81C21002AFBD0012263
:109E8400DA6000202C2303FB087700237B61BDE804
:109E9400F88F95F828303BB9D0F81C31002BF8D056
:109EA4005946FFF7B9FDE1E70F20EBE71120EEE794
:109EB4002046ECE7F83300200023435082B0435897
:109EC4000193019B02B070471FB501238DF8003048
:109ED400054B8DF8080001916846D3E900129047BC
:109EE40005B05DF804FB00BF243400207FB5374A79
:109EF400D2F82461002E47D010464FF49271FFF738
:109F0400DBFF02238DF80030D2F88034C2F88034AD
:109F14000393D2F83C358DF808302D4BDA68019262
:109F24000022C3E906226846D3E900129047274875
:109F3400D0F844316BB14FF4A271FFF7BDFF244B4D
:109F44009A6932B100229A61D0F83C05D968FFF7CA
:109F5400BBFF1E48D0F82031A3B14FF49071FFF736
:109F6400ABFF1B4B5A696AB1D0F84C158DF8081039
:109F7400002299688DF8002001915A616846D3E95E
:109F84000012904704B070BDD2F81031002BCED02F
:109F94004FF488711046FFF78FFF0D4BD2F83C0544
:109FA40099698842C3D1DC69D96864B1D2F8005296
:109FB40025F02005C2F800521A699C61DA60DE615E
:109FC400FFF782FFB3E79C61FAE700BF002000407F
:109FD400243400202DE9F8435D4E90F804802423B6
:109FE40003FB0863054693F820300C469146002B8A
:109FF40040F0AA8057490068FFF7D8FC07460028BC
:10A0040040F0A48022682868511C0BD04FF0A04176
:10A0140001239340C1F8083502F5E0734FF0030CB7
:10A0240041F823C061684B1C1FBF01F5E0734FF07A
:10A03400A04C4FF0000E4CF823E0A369C0F824357F
:10A0440094F814C0637DBCF1010F4CEA0303C0F81B
:10A054006C35C0F80C25C0F814151DD1A268531C2A
:10A064001FBF02F5E0734FF0A0414FF0000C41F820
:10A0740023C0E368591C0BD04FF0A04C0121994038
:10A08400CCF8081503F5E0714FF0030E4CF821E00D
:10A09400C0F80835C0F81025242202FB08F2B318D2
:10A0A400C3F804902369B350B9F1000F3BD04FF4C7
:10A0B4008871227FFFF700FF28684FF49071FFF743
:10A0C400FBFE28684FF49271FFF7F6FE28684FF400
:10A0D400A271FFF7F1FE2B681F49C3F80413190B93
:10A0E40043F30733002BA8BF03F160404FEA531337
:10A0F400BCBF01F00F0419484FEA4212A8BF00F593
:10A1040061404FEA8303D2B203F16043B4BF025506
:10A1140080F8002303F5614301F01F0101228A4006
:10A12400C3F880211A602B680822C3F80025242371
:10A1340003FB08660023C6E906337361012386F82E
:10A1440020303846BDE8F8830827FAE71127F8E7F6
:10A1540024340020F19E02001003020014ED00E0FC
:10A16400F8B5057900682C4C0023C0F80035242389
:10A1740003FB05435B686BB1284BC0F8083340F31D
:10A184000733C0F304315B0901228A402033244998
:10A1940041F82320D0F80C65D0F81415D0F8083510
:10A1A400D0F810254FF0FF37BE42C0F80C7518BF29
:10A1B40006F5E076C0F81475C0F80875C0F8107597
:10A1C4001EBF4FF0A0474FF0020C47F826C04E1CAC
:10A1D4001FBF4FF0A04601F5E071022746F8217039
:10A1E400511C1FBF4FF0A04102F5E072022641F856
:10A1F40022605A1C1FBF03F5E0734FF0A0420221F6
:10A2040042F82310FFF7F4FB242303FB0544002347
:10A2140084F820306360F8BD243400201003020069
:10A2240000E100E00279044B242101FB0233586968
:10A23400003818BF01207047243400202DE9F8436A
:10A2440001F06043B3F1005F06468846914634D17D
:10A25400FFF7E8FF044690BB32791B4F3068242592
:10A2640005FB02754FF49071C5F81490C5F8088089
:10A27400FFF722FE30684FF4AC71FFF71DFE336820
:10A284006969A868C3F84405C3F8481501219960B1
:10A294006968B1B9D3F82011D3F8580149B9002835
:10A2A400F8D00F20242303FB027700237B61BDE851
:10A2B400F883002818BF0F20F4E71020F7E71120D7
:10A2C400F5E72046F3E700BF24340020C27FFF2ACD
:10A2D40007D0817F012393404FF0A04251B1C2F8CF
:10A2E4000C350023037243770346416853F8082B67
:10A2F40018461047C2F80835F3E70000084BD3F8B6
:10A30400182182B052B10022C3F81821D3F81831B1
:10A314000193019B034802B0FFF7D8BF02B0704716
:10A32400003002406C3400204FF0402382B0D3F858
:10A33400182152B10022C3F81821D3F8183101931F
:10A34400019B034802B0FFF7C1BF02B0704700BFD2
:10A35400483400200023435082B043580193019BAA
:10A3640002B07047F0B55F485F4CD0F8503187B009
:10A3740023B34FF4A871FFF7EDFF4FF48013C0F837
:10A384000833D0F82435CBB9C0F800350623C0F81B
:10A394000035636BC0F82435236A13F0010218BF3B
:10A3A4000122C0F8502513F002034E4A18BF0123BE
:10A3B400C2F840350123936007B0F0BD494DD5F88C
:10A3C40024319BB14FF492712846FFF7C3FFD5F8AF
:10A3D40004315BB9A368C5F808330223A360A368FA
:10A3E400C5F8043301232B626B61E5E7D5F804312A
:10A3F400002B48D03D4F3B484FF48271FFF7AAFF32
:10A404000FCF01AE0FC63B68336094F82E307BB19A
:10A41400237B012B0CBFD5F83C25D5F84C250292A3
:10A42400022B304B0CBFD3F83C35D3F84C35039397
:10A434002C484FF4B071FFF78DFF4FF4AE71FFF766
:10A4440089FF94F8303013B194F82E303BB1254B8A
:10A454000022C3F80022A260254AC3F80823214A37
:10A46400D2F8C434C2F8C4349A0736D501238DF81F
:10A47400003094F830300BB984F82F30D4E900312F
:10A484006846984798E717484FF4A471FFF762FFAE
:10A49400237B83B9154F0FCF01AE0FC63B683360E2
:10A4A40094F83030002BDAD1C5F80032A360104B99
:10A4B400C5F80833D3E74FF40073C5F8003240F20F
:10A4C4000223A36003F1CE73C5F80833A368C5F86B
:10A4D40004330123AB602B626EE713F0040318BF4F
:10A4E4000223C4E700300040903400209C34002054
:10A4F40002029C012DE9F74F4FF00009154D164F4C
:10A5040006464FF0040AC8465FFA89FB01240DF1A0
:10A51400070004FA0BF48DF80780FCF783FF2C4244
:10A5240008D03B6814EA030201BF23433B6086F86A
:10A5340000B092469DF80700FCF798FFBAF1000FAF
:10A5440003D0A54309F10109DED1504603B0BDE8AB
:10A55400F08F00BFFFFF0100C834002010B5A1B187
:10A564009AB101238340C3F3100484B10A4C2468D4
:10A5740023420ED0C00000F1804000F5F830C0F84E
:10A584001015C0F81425002010BD0E20FCE707208C
:10A59400FAE70820F8E700BFC8340020012202FAD5
:10A5A40000F3580C400440B91BB1064A1268134228
:10A5B40005D0054AC2F804357047072070470820C3
:10A5C400704700BFC834002000F0014000F1804013
:10A5D40000F5E040002382B0036003680193019B0F
:10A5E40002B07047F0B5524B524CD3F8043185B0E9
:10A5F400002B3DD094F82E204FF48270FFF7E6FF35
:10A604002AB394F82F3013BB494AD2F80031002BF7
:10A6140032D04FF48070FFF7D9FF638B94F82D008C
:10A62400834250D921891B1A9BB289B26383CB1A06
:10A63400616801EB4303C2F82C36C2F830064FF4CC
:10A644008270FFF7C3FF3A4B01225A6014E063683B
:10A6540002932389ADF80C30E36800218DF80410CF
:10A6640033BB2374236801A89847002384F82F3050
:10A6740094F82E30002BC7D12D4BD3F810315BB199
:10A684004FF48870FFF7A2FF0023237402238DF890
:10A69400043001A823689847254BD3F81431EBB153
:10A6A4004FF48A70FFF792FF0023237405B0F0BDC6
:10A6B400208B608363602081E160002AD2D11C4B2F
:10A6C40001221A60CEE7BAD1E368012184F82F1081
:10A6D40013B100216183AEE76383B0E766694FF08D
:10A6E40000470125002EE1D0B6FA86F227FA02F3DC
:10A6F4004632920026EA030602F1804303F5E04362
:10A704001B68002BEED01046A2F58C72FFF75EFF9B
:10A71400D30882F00402C2F380028DF808308DF869
:10A72400045023688DF8092001A89847DAE700BF90
:10A7340000700040CC34002038B51D4B044693F81B
:10A744002C0098BB1B4A19602178C2F8F015617877
:10A75400C2F8F415E5781874012183F82D005861C6
:10A7640083F82F0083F82E5083F82C106FF00043E9
:10A77400C2F808334FF48270FFF728FF4FF480705B
:10A78400FFF724FFA3780C485B01DBB280F80733A2
:10A794008023C0F8803103600223C2F804330DB172
:10A7A400C2F80413C2F80015002038BD0820FCE7E5
:10A7B400CC3400200070004000E100E070B52A4B6A
:10A7C4001A7C02F0FF05002A4BD10A79012A9CBFAA
:10A7D400264CC4F8005500F10C0503EB450424791C
:10A7E40024B993F82D40013483F82D4003EB45033D
:10A7F400CC790D7A8E781C715D714B7836021B0111
:10A8040006F4E06603F0300333430E7806F00306E3
:10A814003343CE78360306F480563343160406F4E5
:10A82400E02633434E798979360506F48016090605
:10A83400334301F080710B430C4901EB0016000116
:10A8440000F1804000F5E040012AC6F81835C0F850
:10A854001455C0F8104502D80123C1F80035002072
:10A8640000E0112070BD00BFCC3400200070004017
:10A87400054B93F82E30002B14BF0020042000F168
:10A88400804000F5E0407047CC34002070B5264A83
:10A89400264B05461220C2F808031C7C022C03D167
:10A8A400C2F80403112070BD187C01281CD1D8689B
:10A8B40018B10223C2F80433F4E7DD60198393F876
:10A8C4002E305BB9D2F80031002BFBD04FF48070EE
:10A8D400FFF77CFEC2F82C56C2F83016124B022247
:10A8E400C3F804230020DEE7022093F82E40C2F8C8
:10A8F4000403012600201E745D601981D8603CB1F8
:10A90400598393F82D30C2F82C56C2F83036CAE772
:10A91400C2F82C564FF48070C2F83016FFF756FE7A
:10A9240016602046BFE700BF00700040CC34002012
:10A93400034B187810B901221A70704785207047AC
:10A94400FC3400202DE9F743002406460F4600F5A9
:10A95400A0754FF48038A146A30003F5A07398B204
:10A964002B686BB1D6F8043308FA04F21A4207D004
:10A97400C5F800902B680193019BD7E900319847F3
:10A984000134042C05F10405E6D103B0BDE8F083DD
:10A99400F7B50679334D0C2474432F193B7A002BF9
:10A9A4005ED12A514A687A60447902681F46D8B257
:10A9B40084424CD842F30733CC78002BA8BF03F170
:10A9C4006047C2F307304FEA5313BCBF00F00F0CCB
:10A9D400254F4FEA4414A8BF07F561474FEA8303A4
:10A9E400E4B203F16043B4BF07F80C4087F80043B6
:10A9F40003F56143012400F01F0004FA00F0C3F8DA
:10AA040080011860D2F804054B7820F0030003F0AD
:10AA140003030343C2F804358B78D2F8080503F026
:10AA2400030320F003000343C2F808350B78D2F87F
:10AA3400100503F00F0320F00F010B43C2F810358B
:10AA44000C2303FB065500202C7203B0F0BD9800C4
:10AA540000F5A07001331750105801900198A6E733
:10AA64000820F2E70035002014ED00E0036801221D
:10AA74001A600279034B0C2101FB023302221A7281
:10AA8400704700BF0035002037B54FF480340068AC
:10AA94008C407BB101F150039B000025C550C35885
:10AAA4000193019BC0F8044301F5A87140F82120EB
:10AAB40003B030BDC0F80843F6E770B4046840F250
:10AAC4000116D4F800528E4025EA0605C4F8005257
:10AAD400D4F800522B43C4F800329DF80C3070BCFB
:10AAE400FFF7D2BF01490248FFF72CBF0035002011
:10AAF4000080004001490248FFF724BF0C350020C4
:10AB04000090004008B5094B1B7853B10020FEF7B4
:10AB1400CDFC0120FEF7CAFCBDE808400320FEF787
:10AB2400C5BCBDE80840FEF7CDBC00BF1835002009
:10AB3400F8B57A4C237805461BB100232370FFF740
:10AB4400E1FF172D00F28780DFE805F00C171742AC
:10AB54005364757F878C878C949999999999C3C804
:10AB6400D0D8E3E3FFF7CEFF6D48FCF741FC6D4B13
:10AB7400002204461A702046F8BD0020FEF77CFC33
:10AB8400F0B10020FEF792FC022D0CBF4FF4E164FB
:10AB94004FF47A64634B1D7000254FF400464FF464
:10ABA400FA7029464FF47A720023E4FB060106F09A
:10ABB4001BFD2A460146BDE8F8405948FCF7D0BBC6
:10ABC400FEF768FC022D0CBFC8244FF4C874E1E7FB
:10ABD4000020FEF751FC40B10020FEF767FC4FF463
:10ABE4004874504B03221A70D6E7FEF753FCC8246E
:10ABF400F7E70020FEF740FC38B10020FEF756FCD2
:10AC04004FF47A64474B0422EDE7FEF743FC4FF41C
:10AC1400C874F7E70020FEF72FFC48B10020FEF7C8
:10AC240045FC404B05221A7041F69A110022C2E7F6
:10AC3400FEF730FCF5E70020FEF762FC394B0622F4
:10AC44001A70002240F6CD41B5E70020FEF722FC41
:10AC5400344B07221A7000248DE701202070FEF780
:10AC64004FFCEEE701202070FEF74AFC00224FF46F
:10AC74008041A0E7FEF735FC2A4B0C22EAE72A487C
:10AC84002A4EFCF7B5FBD5F1110504461CD0D8B902
:10AC9400012D13D0C820454321464FF400474FF4FB
:10ACA400FA704FF47A720023C5FB070106F09CFC8E
:10ACB400224601461C48FCF753FB04460220FEF7DB
:10ACC400E9FB0123337056E70220FEF7EFFB002374
:10ACD400F8E7FFF717FF134B1222BBE7FFF712FF4A
:10ACE4000020FEF7D7FB0F4B1322B3E7FFF70AFF51
:10ACF4000120FEF7CFFB0B4B1422ABE7FFF702FF5B
:10AD04000020FEF7C7FB0120FEF7C4FB054B15220C
:10AD1400A0E7FEF7E6FB034B1D709CE76C350020B3
:10AD24003C3500206D3500201C35002018350020EE
:10AD3400044B1B6813F0010301D0FFF7F9BE18465A
:10AD4400704700BF68350020032811D8012A0AD1B2
:10AD540001290FD100F10E02D2B20D4B00EB4000DD
:10AD64001A54002070470129F7D0022904D049B1B0
:10AD7400072070470022F8E7054B00EB4000184419
:10AD84004270EEE7024B00EB400018448270E8E7A3
:10AD94005C35002008B5012202210020FFF7D4FF12
:10ADA40008B1072810D1072202210120FFF7CCFFA8
:10ADB40008B1072808D100210A220846FFF7C4FF7A
:10ADC40010B1072808BF002008BD00000388102B1D
:10ADD40010B502D0112B1ED010BD1A4C2168B1B988
:10ADE40001220846FFF7B0FF08B1072824D1072243
:10ADF40002210120FFF7A8FF08B107281CD1042273
:10AE040002210020FFF7A0FF08B1072814D123680E
:10AE140001332360E0E70B4A1368013B1360002B06
:10AE2400DAD1FFF7B7FF0028D6D0074B1B68002BF9
:10AE3400D2D0BDE810401847034B1B68002BE6D066
:10AE44009847E4E7743500207035002041DF7047EF
:10AE54007047000010B50378044633BB40680221F4
:10AE6400FFF714FD08B1FBF7E3FF63680F4AB3F97A
:10AE740000300F4823EAE373D9B21B1251701370E8
:10AE8400490001F029FA63680A4AB3F902300A4812
:10AE940023EAE373D9B21B1251701370490001F015
:10AEA4001BFA064A13680133136010BD793500207C
:10AEB400D82A03007B350020EA2A030080350020CD
:10AEC40038B5054D044645F001054FF47A40A847CE
:10AED400013CFAD138BD00BFF02B03001FB5FFF7CA
:10AEE40027FD08B1FBF7A4FF174A18480023CDE952
:10AEF400022302A9164AFFF74BFD08B1FBF798FF9E
:10AF0400144B1548D3F810250021D2B220FA02F2CE
:10AF1400009101230D48FFF7D0FD0C48FFF7A6FD73
:10AF2400FFF7A6FC04460D48FFF7E4FA08B1FBF767
:10AF34007FFF0A4B0A4918782246FFF70FFB08B136
:10AF4400FBF776FF04B010BD00000306F82B0300E6
:10AF540055AE0200009000400024F4008C3500201F
:10AF64004091004008B5054B1878FFF717FB18B15E
:10AF7400BDE80840FBF75CBF08BD00BF8C3500206E
:10AF84007FB51A4B186859686A4603C2197A11705A
:10AF9400D3F80900D3F80D105B7C03AA03C214494B
:10AFA40014481370FFF7C8FB08B1FBF741FF69466B
:10AFB4000020FFF703FC08B1FBF73AFF03A90120C7
:10AFC400FFF7FCFB08B1FBF733FF0B480221FFF747
:10AFD4005DFC08B1FBF72CFF08480221FFF756FC83
:10AFE40008B1FBF725FF07B05DF804FBCB2B03008A
:10AFF40059AE0200DD2B0300843500208835002083
:10B004004FF0A0434FF0007210B9C3F80C257047FD
:10B01400C3F80825704770B505460C460026F3B200
:10B02400AB4204D340F2DC50FFF74AFFF6E70120BD
:10B03400FFF7E6FF14B12046FFF742FF0020FFF7B9
:10B04400DFFF14B12046FFF73BFF0136E7E70000BE
:10B0540008B500F0A1FC3048304C01F05AF94FF02B
:10B06400A04340F20332C3F864270120FFF7C8FF6E
:10B074002B4801F04EF92B4801F04BF900F06CFB22
:10B08400FFF77EFFFFF72AFFFFF76CFF264801F06A
:10B0940040F900F08EFC00F0DDFB00F073FB00F0E3
:10B0A40099FB00F0C5FE00F0A3FB00F0EBFB0020D1
:10B0B40000F030FC1D4B1E481E49E02283F8162385
:10B0C4001D4BC01AC008000440F00300FBF72AFD22
:10B0D4001A4801F01EF900F0ADFB002000F072FCEC
:10B0E4000020FFF78DFFFBF7BBFB0028FBD1237883
:10B0F400012B09D11846FFF783FFFBF7B1FB0028AA
:10B10400F1D1FFF7A3FEEEE7002BF4D04FF4FA7170
:10B114000520FFF780FF00BFFA2A030078350020DE
:10B12400092B03003E2B0300732B030000E100E016
:10B1340024210300972B0300D4200300B02B030029
:10B1440076DF704778DF70477ADF70477CDF7047BF
:10B154008FDF7047A8DF7047AADF7047AEDF704704
:10B16400B5DF704762DF704733DF70474CDF7047ED
:10B174007047FBF75DBE000010B51F4B1F4A9B1ABA
:10B18400DB088CB01B04032833D8DFE800F002246A
:10B194002C3043F0030420461949FBF7C3FC2C224E
:10B1A400002101A806F09AFB01234FF4967201A92D
:10B1B40014488DF8083005928DF8043001F088FEAB
:10B1C4000021114802F0FEF8104902462046FBF720
:10B1D400ADFC0CB010BD0E4943F003000CB0BDE84B
:10B1E4001040FBF79FBC0B4943F00100F6E70A4906
:10B1F400FAE70A49F8E700BF24210300D42003003A
:10B20400002C0300703600200DB502002E2C030024
:10B21400452C0300682C0300A12C0300CE2C030052
:10B2240030B5044685B004F0F9FE204604F012FD62
:10B2340023780D2B49D8DFE803F0077D1030374819
:10B244004A7648614868546F3E483F4B3F49C01AAC
:10B25400C008000440F003004BE03B4B394D6088CC
:10B26400ED1AED0802F026F82D04237A009345F038
:10B2740003056388364902462846FBF76AFC237AAD
:10B28400012B22D128463349FBF74CFC608800216E
:10B2940005B0BDE8304004F025B92A482A4B2E49B0
:10B2A400C01AC0080004D5E7274B26482B49C01A0A
:10B2B400C008000440F00300FBF734FC012360885D
:10B2C4008DF80C3003A904F01BF905B030BDFCF770
:10B2D40049FF30F00803F8D005B0BDE83040FBF773
:10B2E400A7BD1848184B1E49C01AC008000440F0F6
:10B2F400040005B0BDE83040FBF714BC1148124B04
:10B304001849C01AC0080004A4E70E480E4B164999
:10B31400C01AC00800049DE70A480B4B1349C01A21
:10B32400C008000496E70748074B1149C01AC00833
:10B3340000048FE70348044B0E49C01AC0080004F8
:10B3440088E700BF24210300D4200300F52C030068
:10B354001E2D03005E2D0300852D0300A02D030088
:10B36400D42D0300F22D0300112E03002B2E030015
:10B37400462E03005E2E03007FB508220346019289
:10B3840001A94FF6FF7202A804F032F908B1FBF7E5
:10B394004FFD019902A804F0CFF808B1FBF748FD6E
:10B3A40007B05DF804FB000010B5B2B008285DD802
:10B3B400DFE800F0125C5C055C4B5C215E00364B00
:10B3C40036483749C01AC008000440F0030032B0C0
:10B3D400BDE81040FBF7A6BB0020FFF7A9FC08B1AD
:10B3E400FBF726FDFFF7C0FE00283FD032B0BDE8D2
:10B3F4001040FBF71DBD2B4800F08BFF802200217D
:10B4040012A806F06BFA3822002104A806F066FAA6
:10B414000823CDE9023312AA6B4403A904A804F05B
:10B4240073F808B1FBF704FD029B0093039A1E48CE
:10B4340012AB04A901F03BFD04460220FFF79CFF78
:10B44400A4B12046FBF7F4FC10E0184800F061FFBB
:10B454000223CDE9023312AA02A903AB04A804F023
:10B4640053F8DDE90212124800F036FF32B010BD85
:10B4740012A9002004F066F90528F7D008B1FBF7FB
:10B48400D7FC0620FFF778FF07480DF1590101F0BA
:10B49400FBFC0028EAD0D5E7D420030024210300D4
:10B4A400712E0300832E030070360020952E0300B6
:10B4B400C02E0300022807B50ED1094B09480A49DA
:10B4C400C01AC008000440F003000190FBF72AFBF7
:10B4D40006490198FBF726FB012003B05DF804FB45
:10B4E400D420030024210300DF2E03000C2F0300CB
:10B4F400032807D14FF08043A922C3F82025002058
:10B50400FDF798BD7047000013B513210D4C019051
:10B51400FFF716FE0C4B019AE41AE40824040346D0
:10B5240038B10A4944F0020002B0BDE81040FBF70C
:10B5340006BB074944F0040002B0BDE81040FBF725
:10B54400F5BA00BF24210300D42003003B2F0300DD
:10B554007C2F030008B50548032101F053FB18B103
:10B56400BDE80840FBF764BC08BD00BF703600208E
:10B5740003883B2B13B5044600F086800ED8212B9C
:10B5840064D005D8102B33D0112B1BD002B010BDC2
:10B59400222B73D0242BF9D1594870E0533B9AB233
:10B5A400042AF3D8042BF1D801A252F823F000BFE7
:10B5B400C1B6020091B50200A5B602008DB6020024
:10B5C400B5B602004F4B50485049C01AC008000499
:10B5D40040F00300FBF7A6FA4D4B4FF6FF721A80BA
:10B5E4004C4B00221A7002B0BDE81040FFF7B2BF06
:10B5F400444B45484849C01AC008000440F00300C1
:10B60400FBF790FA454BA188454801221A70404B3C
:10B61400198003F0E7F808B1FBF70AFC414BA06876
:10B62400A189A27B186099809A713F4BA0881B88DE
:10B63400ADF8043001A9FFF78BFD08B1FBF7F8FB67
:10B64400FDF7F6FC334B01221A709FE72D4B2E4871
:10B654003649C01AC008000440F00400FBF762FA3F
:10B664000023A0888DF8043001A98DF80530FFF778
:10B674006FFD08B1FBF7DCFB284BE4E72C4800F036
:10B6840048FE264B0022DFE7A0881321FFF758FD70
:10B6940000283FF47BAF02B0BDE81040FBF7C8BB05
:10B6A4001E4BA0880122C8211A70FFF759FDEFE74D
:10B6B400204802B0BDE8104000F02BBE1E4AE388CB
:10B6C400B2F844209A4201D11C48F2E71C4AB2F86D
:10B6D4006411994201D11B48EBE7B2F8AC119942CD
:10B6E40001D11948E5E7B2F88C10994201D1174805
:10B6F400DFE7B2F844209A427FF448AF1448D8E711
:10B70400AF300300D4200300242103009E2F030044
:10B71400142A002078350020B82F03009B35002020
:10B72400DC38002094350020D0320300CF2F0300F2
:10B73400E32F0300FF2F0300E8380020113003003B
:10B74400803900202E30030055300300723003008E
:10B7540092300300FBF76CBB08B5FBF7BFFD08B1E3
:10B76400FBF766FB054A06480121FBF7E7FD18B124
:10B77400BDE80840FBF75CBB08BD00BF89C0020000
:10B78400F83203001FB5112311498DF80430032248
:10B7940001A8FFF7DBFC08B1FBF74AFB6420FFF7C5
:10B7A400D1FC08B1FBF744FB0023ADF80C300623B1
:10B7B400ADF80830ADF80A3002A86423ADF80E30B5
:10B7C400FFF7C2FC08B1FBF733FB05B05DF804FBDF
:10B7D400BB30030008B50548002102F063FE18B130
:10B7E400BDE80840FBF724BB08BD00BFC8380020F3
:10B7F40000B589B01422002101A806F06FF84FF4B7
:10B8040070234FF4C812CDE9022306238DF81030BB
:10B81400064B069301A8064B079301F065FC08B19B
:10B82400FBF706FB09B05DF804FB00BF75B102002D
:10B8340059B7020008B5064800224FF4C031FBF79F
:10B844008FFD18B1BDE80840FBF7F2BA08BD00BF90
:10B85400383B002007B505F0C9FA08B1FBF7E8FA50
:10B86400002301A90120019305F090FB08B1FBF727
:10B87400DFFA01A805F04EFC08B1FBF7D9FA03B0D2
:10B884005DF804FB07B503F089FD08B1FBF7D0FAB6
:10B8940031238DF8003007238DF8013010238DF803
:10B8A4000230684603238DF803308DF8043003F02A
:10B8B4000FFE08B1FBF7BCFA044803F0F1FD08B130
:10B8C400FBF7B6FA03B05DF804FB00BF25B2020033
:10B8D40008B503F071FE98B10A4B0B480B49C01A26
:10B8E400C008000440F00300FBF71CF903F042FF1A
:10B8F40008B1FBF79DFABDE80840054800F009BD12
:10B9040008BD00BFD420030024210300BF3003007E
:10B91400CC30030010B5AEB0AC220021044603A81D
:10B9240005F0DCFF02238DF80C3040F20163ADF822
:10B934000E300323ADF81C30134B08934FF4967369
:10B9440025935923ADF8003004231049ADF8043091
:10B9540001220F4B8DF888200293CDF830D02C9122
:10B964007CB18DF88520DA700A4803A901F0CDF87E
:10B9740008B1FBF75DFA0748012101F0C3F82EB0C6
:10B9840010BDDC70F0E700BF082A0020ADB3020050
:10B99400042A00207036002008B54FF4004100202E
:10B9A400FAF704FF08B1FBF743FABDE80840FAF7D9
:10B9B40025BE08B5FDF726FB18B1BDE80840FBF726
:10B9C40037BA08BD08B1FFF783BFFFF7C3BD000056
:10B9D400F0B5454B85B06A4603F110051646186864
:10B9E4005968144603C40833AB422246F7D13F4C8E
:10B9F4004BF6772304F10A0130462381FFF7B2FBAB
:10BA040008B1FBF715FA3A4D00210223A1636961DD
:10BA1400A387A5F120032185C4E90C35A970354B12
:10BA2400A4F82B102364A36A697103F47902324BDE
:10BA34001343A362A38D23F4DF6323F0070343F4CA
:10BA4400047343F00103A3851C22A5F11C0005F037
:10BA540045FF2223EF1C2373A088276205F11C03F2
:10BA640005F10802A5F11C01FFF776FB08B1FBF70D
:10BA7400DFF94BF678232149A4F850303046FFF71C
:10BA840071FB08B1FBF7D4F941F21113A4F870303B
:10BA940002224FF000031A4D62F34203002184F89E
:10BAA40072300A23C4F880106961A4F88430A5F1C7
:10BAB4002003C4E91E351C22124BC4F88830A5F1BA
:10BAC4001C0005F00BFF0A2384F85430A08805F10C
