:020000022000DC
:1060000000000120756302005D6302005F6302000F
:106010006163020063630200656302000000000028
:1060200000000000000000000000000067630200A4
:1060300069630200000000006B6302006D630200F0
:10604000E59602006F630200F9980200BDA202000B
:1060500081A202006F6302008197020065A4020022
:1060600005A6020015A602006F6302006F6302001E
:106070006F6302006F6302006F6302006F630200D0
:106080006F6302008D6F02006F6302006F63020096
:10609000297002006F630200A9EF02006F63020023
:1060A0006F6302006F6302006F6302006F630200A0
:1060B0006F6302006F630200000000000000000038
:1060C0006F6302006F6302006F63020055A202005B
:1060D0006F6302006F6302006F6302000000000044
:1060E00000000000000000000000000000000000B0
:1060F00000000000000000000000000000000000A0
:10610000000000000000000000000000000000008F
:10611000000000000000000000000000000000007F
:10612000000000000000000000000000000000006F
:10613000000000000000000000000000000000005F
:10614000000000000000000000000000000000004F
:10615000000000000000000000000000000000003F
:10616000000000000000000000000000000000002F
:10617000000000000000000000000000000000001F
:10618000000000000000000000000000000000000F
:1061900000000000000000000000000000000000FF
:1061A00000000000000000000000000000000000EF
:1061B00000000000000000000000000000000000DF
:1061C00000000000000000000000000000000000CF
:1061D00000000000000000000000000000000000BF
:1061E00000000000000000000000000000000000AF
:1061F000000000000000000000000000000000009F
:10620000354936480A1A02D0072291438D4634494F
:1062100034480A1A06D00722914381F309880222E2
:1062200082F3148830483149314A00F044F831484B
:106230003149324A00F03FF831483249324A00F0E1
:106240003AF832483249334A00F035F83248334997
:10625000334A00F030F833483349344A00F02BF821
:1062600033483449344A00F026F83448344900228F
:1062700000F02CF833483449002200F027F8334866
:106280003349091A082902DB002202604160314AC1
:1062900090471F481F49884205D00268043003B464
:1062A000904703BCF7E700208646EC46002000211B
:1062B000294A9047FEE7884207D0521A05D0037852
:1062C00001300B700131013AF9D17047884202D098
:1062D00002700130FAE770470000012000E0002062
:1062E00000000120000001202C290300DC290020EF
:1062F000342A0020D4630200D463020084FD02002B
:106300002C290300DC290020DC29002050FF02009A
:1063100050FF020050FF020050FF020050FF020039
:1063200050FF020050FF020050FF02002B29030023
:1063300084290300342A0020342A0020342A002033
:106340008847002088470020884700208847002091
:10635000886700209D63020099A70200FEE7FEE720
:10636000FEE7FEE7FEE7FEE7FEE7FEE7FEE7FEE705
:10637000704700BF1048804710484FF0070188431E
:1063800085460F4880470F48016841F4700101605D
:10639000BFF34F8FBFF36F8FFFF732BF0A480B4930
:1063A0000B4A884207D0521A05D0037801300B708F
:1063B0000131013AF9D170477163020000000120F8
:1063C000F991020088ED00E03CFF0200C82900209E
:0463D000DC290020A4
:1063D4007047000007B5044B0093044A402300F0C3
:1063E40032F803B05DF804FBF5630200352A00209F
:1063F4002DE9F84388461446B2B10F4B0F4E0325DE
:10640400002743F00109224608EB0701002004F0AD
:10641400F7FD0744241A48B933782BB14FF47A4076
:10642400C847013D02D13570BDE8F88301233370BC
:10643400002CE8D1F8E700BF50FF0200342A002006
:10644400704704F03BBEF0B595B01D4616460846AD
:106454000C4602F0AFFD1A9B0D93CDE908650025AB
:106464002B46082205A920460A958DF82C500C9538
:1064740002F0BCFD079B0293069B03939DF8143026
:106484008DF8115003F00302012A1DD1BDF8142028
:10649400059DC3F3C203C2F383168DF81030B20016
:1064A40008230EA9204602F0A1FDC5F3952508ABEB
:1064B4000093324602AB0EA9284600F0FBFB2046AF
:1064C40002F07CFD15B0F0BD022AF8D1BDF81650DB
:1064D400C3F3C203C5F389158DF810300827082DBE
:1064E4002E4628BF08263B4632460EA9204602F017
:1064F4007DFDAD1B08AB02AA31460EA8374400F05F
:106504003DFC002DEBD1DAE7014B01221A707047F4
:10651400B62A00207047000070B50E4D06460FCD18
:1065240088B06C460FC495E80F00002E84E80F0075
:10653400094A0A484FF0130308BF00226946009332
:1065440003F05CF808B100F073FC054B1E7008B052
:1065540070BD00BF64FF02000D650200DC2900204D
:10656400752A002007B5044B0093044A4023FFF723
:106574006AFF03B05DF804FB85650200762A0020FB
:1065840038B50D480D4C0E4D002323700378EB5C99
:10659400D2B263B1043003F0FBFD08B100F048FC53
:1065A400084B1A7812B12378002BFBD038BD0C307D
:1065B40003F0DEFBF1E700BFDC290020B62A00204F
:1065C40078330020752A002008B50848084A037863
:1065D400D35C3BB1043003F06DFDBDE808400020FE
:1065E400FFF79ABF0C3003F055FBF6E7DC290020D7
:1065F400783300200120FFF78FBF000038B50A4D23
:10660400FFF71FFF0421284600F0BEFA074B0124C0
:106614005C71FFF7EFFF042105F1100000F0B4FAFC
:10662400034B5C7138BD00BF1CFF0200F029002041
:10663400F8290020037813F0040216D003F00303B2
:10664400012B03D0022B09D0012070470A6800886F
:106654000232C0F3831002440A60F5E70B684288F3
:10666400023303EB92130B60EEE710467047000011
:106674002DE9F04FDFF830A187B00F460023044620
:10668400861C0DF1070015468DF8073000F0CAFE90
:10669400DAF800103960DAE90132134401335B1A85
:1066A4000AF21C470AF583690AF21448B3421CD360
:1066B4000020002D73D004F00F039B0143F0050369
:1066C40063F30F00DAF80020DAF8083013400333DC
:1066D40032444AF823009DF80700CAF8002000F06D
:1066E400C5FE012007B0BDE8F08F0121384601F056
:1066F400D4FE484601F0ECFE404601F0E9FEDAF82B
:106704000400DAF808B0029000EA0B0003300AEB48
:10671400800002A9FFF78EFF029B50BB0BEA030225
:106724000AEB820203F1020CD2680392013303EAFA
:106734000B0B0AEB8B0B02F00302012ADBF80C10A3
:10674400CDF808C023D0022A16D08346404601F073
:10675400C2FE10B1029BCAF804305946384601F013
:106764009CFEDAE901231344DAF8002001339B1A72
:106774009CE70BEA0300C9E7BDF80E30C3F38913A5
:1067840003334FEA114B0CEB93030293DEE7BDF89E
:106794000C30C3F383134FEA114B6344F5E7A405AC
:1067A40044F006008EE700BF882B00200B4B0C48FA
:1067B400FF2210B59A600022C3F81824C3E900220E
:1067C400C3F8142483F8202402F0ADFB044610B966
:1067D400044802F085FC204610BD00BF882B002031
:1067E40020FE0200C8FF020030B50A4C71B10A4A0B
:1067F4000A49121BD20800239A4201D1002030BD5D
:1068040031F82350854202D00133F5E7034654F8AA
:106814003300F4E734FE02001CFF0200DC290020F0
:10682400094B013903EBC000032909D8DFE801F063
:106834000A020406042070470079704740797047C3
:10684400002070470220704734FE0200034BD3E956
:106854000030C31A58425841704700BF882B0020AB
:106864002DE9F04387B0FFF7F1FF0646002840F01A
:10687400FE80804CC4F81804BFF34F8F6368A5688A
:1068840002932B40033304EB830002A9FFF7D2FEEB
:10689400029B18B1D4F81824002A62D005EA030236
:1068A400991C013304EB82022B4004EB8303D2686E
:1068B400DB68049302F00303022B0392029163D179
:1068C400BDF80E306C48C3F38917502FB84628BF63
:1068D4004FF0500808F1080168F38F13C1F3090160
:1068E400ADF80E3002F037FB0646002800F0AA800F
:1068F40002F060FB0023082203A9304602F06CFB7F
:10690400029925EA01020132B8EB820F4FEA8203B1
:1069140033D95FFA88F863B32940DDB2A8EB0508E0
:1069240003315FFA88F9A846544D04EB810108232A
:106934004246304602F050FB3DB108F10803DBB299
:106944004A462946304602F047FB029B033703EBD5
:1069540097070297D4F81834002B4BD1D4F810546D
:106964005BE022689A428CD86260304607B0BDE88A
:10697400F08342491D469946D9E72940033108234B
:10698400424604EB8101DDE7012B5BD1BDF80C30FD
:106994003948C3F38311062928BF062161F38913FB
:1069A400023101F00F018900ADF80C3002F0D3FA86
:1069B4000646002846D002F0FDFA0023082203A967
:1069C400304602F009FB0027BDF80C20C2F3831205
:1069D400BB00974203F10803BCD202994A1C294028
:1069E4000331029204EB81010422304602F0F4FAEE
:1069F4000137E9E7304602F0E1FAFFF727FF80F0BC
:106A04000100C6B2B1E7EB685B7923B12B6831466C
:106A14001B6828469847EB681D68002DF3D1304663
:106A240002F0CCFA0DF107008DF8075000F0FAFCE3
:106A3400D4F818340BB9029B63609DF8070000F08A
:106A440015FDDAE7D4F8104454B90D4B0D480E493E
:106A5400C01AC008000440F0020000F063F8CCE75C
:106A6400236820469B689847E3681C68ECE7002687
:106A74007BE700BF882B002020FE0200942B00201F
:106A840034FE020084FE0200B1FF02002DE9F74F3C
:106A9400224E04460F46924601A901221846D6F812
:106AA40008909B46FFF7E4FD20B3019D4FF00008DA
:106AB400AA1CD84508EB020126D11948002101F08F
:106AC400A5FC80F31000000440EA1440E4006B1CB1
:106AD40004F0380403EA090305EA090544F0010453
:106AE40006EB8303033544EA881444EA8724D86018
:106AF40046F8254096F820341BB1FFF7B1FE002874
:106B0400FBD103B0BDE8F08F09EA010106EB810176
:106B14005AF82830CB6008F10108CAE7882B002016
:106B2400A42F002000231A46FFF7B0BF07B50123A6
:106B3400019201AAFFF7AAFF03B05DF804FB07B5B1
:106B4400CDE9002302236A46FFF7A0FF03B05DF8F6
:106B540004FB1FB5CDE90123069B039301AA03237C
:106B6400FFF794FF05B05DF804FB1FB5CDE90023E2
:106B7400069B0293079B03936A460423FFF786FF51
:106B840005B05DF804FB000030B50F4CD4F81024B8
:106B940003460020114631B9D96808714AB9C4F8CE
:106BA40010340A6030BDC9680D79854206D0096881
:106BB400F1E7D26814680C601360F3E701300A2827
:106BC400E8D14FF0FF30EDE7882B002038B5084BB3
:106BD4000125D3F8104483F8205404B938BDE36880
:106BE4005D71236820465B689847E3681C68F4E796
:106BF400882B002030B5C38885B004460D4633B1D8
:106C0400144A00921449154A284601F0C7FC217A17
:106C140005291DD0637A4BB1A088FFF701FE104B04
:106C2400104953F82020284601F0B8FC227A0E4B74
:106C3400A08853F8222003920021FFF7D5FD039A80
:106C44000A490346284605B0BDE8304001F0A6BC19
:106C540005B030BDF4FF0200DCFF0200D4FF0200E7
:106C6400600003003B1E030084000300F9FF0200E0
:106C740007B503460846197A052911D05B7A2BB16A
:106C8400094A0A49019001F089FC019808490190D8
:106C940001F084FC019803B05DF804EB01F073BCCF
:106CA400002AF8D0F2E700BFF4FF02003B1E030005
:106CB400F02503002DE9F04385B01F460C9D002309
:106CC40095F80C902B7306460C4690462946384698
:106CD400FFF790FFB8F1060F09D8DFE808F00412B7
:106CE400181F283340003146284601F057FC002283
:106CF40029463846FFF7BCFF85F80C9005B0BDE87F
:106D0400F08322683146284601F048FCEFE7D4E9D5
:106D140000233146284601F041FCE8E7A3680093CC
:106D24003146D4E90023284601F038FCDFE7E36864
:106D34000193A36800933146D4E90023284601F067
:106D44002DFCD4E723690293E3680193A3680093BD
:106D54003146D4E90023284601F020FCC7E76369E3
:106D6400039323690293E3680193A3680093314674
:106D7400D4E90023284601F011FCB8E708292DE9DD
:106D8400F74F80460E4617461C4639D8002593F81F
:106D94000C901D7319461046FFF72CFFDFF880A0F6
:106DA400DFF880B0AE422ED918F8052059462046A7
:106DB40001F0F4FB0135082DF4D11849DFF868A07F
:106DC400DFF868B0204601F0E9FB0025AE421FD988
:106DD40018F805200192104608F0ACFB0028019A2F
:106DE400594608BF2E22204601F0D8FB0135082D54
:106DF400ECD1012221463846FFF73AFF84F80C9083
:106E040003B0BDE8F08F5146204601F0C7FBD1E73F
:106E14005146204601F0C2FBE8E700BF0D00030025
:106E24000900030003000300250C03000F00030006
:106E34001FB50021039001AA44F20100CDE901111C
:106E440000F004F805B05DF804FB000038B572B634
:106E5400FFF7BCFEFFF704FD0028FBD1104B114CDB
:106E6400114D1249E41AE408240444F00100FFF728
:106E740059FED5F8F030DB0700D500BE0C4944F0CC
:106E84000200FFF74FFEBFF34F8FEA68094B02F48D
:106E9400E0621343EB60BFF34F8F00BFFDE700BF19
:106EA40034FE020084FE020000ED00E098000300BE
:106EB400A40003000400FA05094B5A7899780132BA
:106EC400D2B2914208BF0022197891421FBF0270CA
:106ED4005878182202FB003014BF04300020704799
:106EE4004430002073B5054600240DF107000E461A
:106EF4008DF8074000F096FA0DF10600FFF7DCFF6D
:106F040090B10670094B9DF8062045605A709DF8B3
:106F1400070000F0ABFA24B9054B4FF48012C3F814
:106F24000021204602B070BD0424F0E74430002064
:106F340000E100E0024B4FF43C6043F001031847CA
:106F4400C000030038B50C4B0C4C4FF40032C3F8AE
:106F5400802001254FF48033C4F84833C4F8083343
:106F64006560FFF7E7FF064BA56000241C60FFF790
:106F7400E1FF044B1C7038BD00E100E0001001404B
:106F84006031002051310020F8B51F4B1F491B68A8
:106F94000025C1F84051C1F84451C1F84851C1F825
:106FA4004C51C1F80051C1F804514BB3D1F8044518
:106FB40017490968641A24F07F442F461A68A242CC
:106FC40009D8A41A15441A7CDE691AB1D3E905203C
:106FD4001F749047AEB90F4A0F4B11781B788B4240
:106FE40005D10133DBB2022B08BF002313701278E2
:106FF4000A4B43F822500A4B4FF48012C3F8002185
:10700400F8BD3346DAE700BF6431002000100140C8
:10701400603100205D3100205C31002054310020BB
:1070240000E100E02DE9F04FA14AA2491378097864
:10703400A14D994285B03CD00133DBB2022B08BF8D
:10704400002313709D4912789D4B0F6853F822005A
:107054003B1823F07F4300220B602B68164614462E
:10706400944613B942B12B6006E0196881420ED9E7
:1070740002B12B60091A196001272B68DFF848A2B6
:1070840001934FF00008BEB9DFF844B260E0401A43
:107094000C44D968D3F81CE0C3F800C031B13A19E4
:1070A40022F07F42C3E90121DE611E4673460122BC
:1070B400D7E700263746E0E73446F6697F4B606839
:1070C4001B68DFF810C2A168C21A22F07F42624531
:1070D40000F2A6800A442260012222742A68002356
:1070E400C4E90133E361002A40F0A3802C60CAE7BD
:1070F4009BF802105A1CD2B291428BF8002004BFB4
:1071040000228BF80020182202FB03B32A681979A5
:107114009C68022975D003297FD0012918D1207CCD
:10712400B0B9D3E90312A2605A69E2609A69654B67
:10713400A2611A78002A18BF01466160BEE78C423A
:1071440000F094808946C9690029F8D1002323748A
:107154009BF800309BF801209A42C9D12B68B8F102
:10716400000F04D1019A9A4201D1002F43D0002B81
:1071740079D0D3F800A0544D504BD5F804751C6851
:10718400DFF854813E1B98F8003026F07F46033622
:107194009BB94FF48033C5F84433C5F804334B4BE3
:1071A4004FF400324FF00109C3F880211A60C5F88A
:1071B4000090FFF7BFFE88F80090B2452CBF5444FE
:1071C400A41924F07F44C5F84045D5F80435DB1BE9
:1071D40023F07F43E41B033324F07F44A3420AD902
:1071E400D5F80435C5F84035FFF7A4FE374B4FF406
:1071F4000032C3F80021334B00221A7005B0BDE8F9
:10720400F08F114691469FE71174D2690123002A39
:10721400FAD1002B9CD02A609AE700231946F6E79E
:107224001B1A23F07F438B4234BFCB1A0023236005
:1072340052E721681368994213D85B1A1360E2611C
:1072440054E7091AD8691A4638B1034618688842BF
:10725400F7D3401A1860184613462160E061DC61D8
:1072640011E71346F2E7FFF76DFEC4E74C4511D171
:10727400D3692B6073B9DFF844E00120CDE9021231
:10728400CAF80800CEF800300E4B1870FFF752FE13
:10729400DDE902120B68C969C9F81C1011B108684C
:1072A40003440B602B68934218BF4FF001084DE76D
:1072B4005C3100205D310020643100206031002009
:1072C40054310020503100200010014000E100E062
:1072D40044300020FEFF7F005131002008B5FFF745
:1072E40031FE104B00200B2218809A700E4B186050
:1072F4000E4B18700E4B18700E4B4FF48012C021B9
:10730400C3F8802183F814131A6002F18042A2F5B5
:107314006F22C2F8080583F81113074BD2F804252D
:107324001A6008BD44300020643100205C31002024
:107334005D31002000E100E060310020074B9B78C4
:107344004BB132B128B10368187C20B959745A6121
:107354007047072070470820704700BF4430002062
:107364002DE9F743DFF8848098F8023005460E468D
:107374001746ABB3A0B3042930D9436983B3437C24
:107384000024012B0DF107000CBF8946A1468DF89E
:10739400074000F047F80DF10600FFF78DFDD8B166
:1073A400012303700F4B4560D3F80435C0E90497FB
:1073B400C0E902369DF8063088F801309DF80700D0
:1073C40000F054F824B9084B4FF48012C3F800219C
:1073D400204603B0BDE8F0830424EFE70724F7E771
:1073E4000824F5E70010014000E100E044300020EB
:1073F400064A92783AB130B1426922B1002202744D
:107404000221FFF76FBD0820704700BF4430002001
:10741400014BD3F80405704700100140401A20F0D6
:107424007F40704770B5EFF3108672B60C4A9468CB
:1074340001239CB993600B4B0B4DD3F8801029406A
:107444001160C3F88050D3F8841051604FF0FF32BC
:10745400C3F88420047006B962B670BD0370FAE7FD
:107464006831002000E100E0FC06FFBD084B9A688B
:1074740010B55AB150B9EFF3108172B6054A1C68C1
:1074840014605C685460986001B962B610BD00BFB6
:107494006831002000E100E070B5064D0646002486
:1074A40055F8043B0BB1304698470134042CF7D10E
:1074B40070BD00BF803100204388033300EB830399
:1074C400994209D382884FF6FF739A4206D0008806
:1074D400B0FA80F0400970470220704701207047DD
:1074E400033080B240F2FD33984230B51FD8124BBE
:1074F4001A783AB91C895D892C440444A4B2B4F5C1
:10750400806F0AD31A7DA2B99A8BDC8B2244024481
:1075140092B2B2F5806F0CD201220A801446142272
:1075240002FB04335A8910445881002030BD0920DD
:10753400FCE70720FAE700BFB43100200B4A0C49EE
:107544005388142000FB0311CB6833B90420496825
:1075540010700122074801F0AFBA074905231370E0
:1075640002238B80012209680023F3E7983100206D
:10757400B4310020C82900207C32002007B5002344
:1075840005490093054A09680548082301F0FAF9FA
:1075940003B05DF804FB00BF7C320020D40003007C
:1075A400C829002007B5002301460093034A044874
:1075B400082301F0E7F903B05DF804FBCC000300F5
:1075C400C829002013B500230C4600930146084A3D
:1075D4000848042301F0D6F938B9074B142101FBFC
:1075E400043101230B7402B010BD0E20FBE700BF71
:1075F400C8000300C8290020B431002037B50A4868
:107604000A4B42689C881968538803250333057024
:107614009BB2002000909B0001EB8401044801F020
:10762400B1F903B030BD00BF983100207C32002096
:10763400C829002010B50146044800F01BFE1C2296
:107644000446002107F0FAFF204610BD68320020EE
:1076540068B10268084B9A4209D14068074B9842C6
:1076640007D00133984214BF032001207047032040
:1076740070470020704700BFDEC0ADDEFE011EF182
:107684002DE9F0410D460223154F2B80164600F5D7
:10769400805100F108044FF001088C420ED2236897
:1076A40001330BD02046FFF707FF48B10EB186F82F
:1076B4000080022809D14FF480632B80BDE8F0815B
:1076C400A3683A68934200D93B602B8862880333ED
:1076D40013442B806388033304EB8304DDE700BF8A
:1076E400AC31002038B5144B14220D4602FB003097
:1076F4002B68446804F58051A3B15C88033403EB20
:1077040084048C4215D22368013312D02046FFF73B
:10771400D3FE012808D002280BD00028F1D12C6018
:10772400012038BD0834ECE76388033304EB830499
:10773400E7E70020F5E700BFB4310020426873B5E5
:1077440004460D4662B3234BD9688A4228D31B6989
:107754009A4225D812F0030322D11F4900890989CE
:1077640088421DD120689168884219D11B4841681C
:107774008A4203D901F580518A420DD381698A4234
:107784000CD901F580518A4208D201222A80B3FA29
:1077940083F0400902B070BD1A46F7E70A23F6E702
:1077A40000262E800196288801A9FFF79BFF30B997
:1077B4002B8801339BB2012B2B80F3D9EAE7019B81
:1077C400226899689142EED16360034B1B8923813F
:1077D400E0E700BFC829002098310020B431002020
:1077E4002DE9F8431C461C4B1B7806460F461546EC
:1077F4006BB372B36CB3DFF868804FF01409A388DD
:10780400012B01D90A2020E009FB03F318F8033007
:107814002BB9A0882146FFF765FF20B92060A38813
:107824000133A380EBE723681EB199883288914223
:10783400EFD11FB119883A889142EAD19A68C5E913
:107844000023064B1B892B810020BDE8F88302200E
:10785400FBE70520F9E700BF9031002098310020B4
:10786400B431002008B5074B5888191DFFF73AFFBB
:1078740018B1BDE80840FFF7C1BEBDE80840FFF7F6
:107884005DBE00BF983100202DE9F0479F4FDFF81F
:10789400A08288B006463B6823B99D48414600F063
:1078A40023FD38603D6829784B1E052B07D8DFE897
:1078B40013F01F0077007700070107015B010F2415
:1078C4001422002103A807F0B9FE41F61D539C427F
:1078D40008BF00243B6804941A78023A042A00F290
:1078E400F981DFE812F0DA01E6010802100217025A
:1078F40026B1884B00225A600124E1E72B79032B3F
:107904001CD8DFE803F014022934834A1378022BCD
:1079140019D0137D022B4FF0010316D114214B43D0
:10792400D1180020D0544868FFF73CFE03E001233F
:107934002B71FFF723FE002800F0BD80754B002259
:107944005A600E24BCE70023E8E7724A1370002350
:10795400536041F61D54B3E7704971480023022275
:107964002B718A800968012201F0A6F8E3E76B4CC9
:1079740000262E712068FFF715FE6A4BDFF898C1C8
:107984005B882568142253430CEB03020CF8036054
:1079940051685560A588158102222160A280CAE73A
:1079A400B5F814A0AA7DDFF87091AEB1022AEB8875
:1079B40006D9142101FB0A91DA1C088902440A81C0
:1079C400142202FB0A99C3F57F43B9F80A20FD3358
:1079D4001344A9F80A308FE7142303FB0A93188988
:1079E4005C6804EB8004062A68D8DFE802F0274DBF
:1079F40035431D59040041F61D54AA7DEB88022A23
:107A040006D9142101FB0A91DA1C088902440A816F
:107A1400142202FB0A99C3F57F43B9F80A20FD3307
:107A24001344A9F80A304BE73F4840490023436018
:107A3400AB690360FFF782FE002859D00223AB75BF
:107A4400002300930423EA182146354800F09AFFE6
:107A5400002830D00E24D0E72B69002B14BF032359
:107A64000123AB750023009305F10C02042304F1F8
:107A74000801EAE70123AB750022EB8800922A692A
:107A84009B0004F10C01E0E703290CBF0523062346
:107A9400AB7500230093042305F10802E118D4E731
:107AA4000623AB75214B19881F4B5868FFF78AFDD5
:107AB40004460028A1D108B0BDE8F0870F249CE754
:107AC400002E7FF419AF2B79012B33D0022B3FF416
:107AD40040AF002B7FF4F3AE02232B710DF10A01AA
:107AE400EB68039303A8CDE90466FFF727FE08B902
:107AF4000A24E5E60498BDF80A108388EB8003881D
:107B04002B81FFF75FFD044627E000BFB031002062
:107B14006832002090310020B43100207C320020F3
:107B2400C8290020983100207431002088320020B8
:107B3400A8310020DFF8F89103AA4B463146A81D6E
:107B4400FFF74EFE044660B9B9F804100498FFF735
:107B540039FD04460A2C3FF4FCAE002C7FF4B0AE91
:107B6400A9E7C9E90066F5E7002E7FF4C5AE6B4BC3
:107B74001A7BBAB11E731A78013A062A3FF69FAEF1
:107B840001A151F822F000BF337C0200597C0200AD
:107B9400777C02007D7C0200C3780200837C0200B3
:107BA400957C02001A78072AE5D801A151F822F041
:107BB400D57B02007B7B02007B7B0200FB7B020007
:107BC4000F7C02002F7C02002F7C0200F77B020056
:107BD4001A89534901321A8100225A801A730A7889
:107BE400B2FA82F252099A720A7DB2FA82F2520908
:107BF400DA72012207E04B4958688A8840880332C8
:107C040002448A8002221A70B5E75C88444A4549D6
:107C1400142505FB04220868546850608888108184
:107C240002228A800C600622EDE70722EBE79A7AAB
:107C340032B9DA7A8AB900221A705A805A6088E610
:107C4400374900229A72CA68002AF2D1097C0029B5
:107C5400EFD05A80FFF706FE55E70022DA72304A69
:107C6400116A0029E7D192F82420002AE3D00122E6
:107C7400EFE7FFF7C3FC46E7FFF760FC43E75A88EA
:107C8400274B142101FB02335868FFF78BFC3AE7BA
:107C940000225A60FFF772FC35E701228DF80C20B0
:107CA4001A89ADF818209A88DB68ADF81A20059374
:107CB40010E002228DF80C201A89ADF818209A8859
:107CC400ADF81A20DA689B7D05929A1F53425341FE
:107CD4008DF81C3003A8FFF7DFFB0026414612484D
:107CE4003E6000F02CFB1148012100F0E2FB00286B
:107CF4007FF4D1ADDFE603228DF80C20DA88ADF8ED
:107D040018201A89D0E704228DF80C20DB88ADF8FE
:107D14001830DFE705238DF80C30DBE798310020BD
:107D2400B43100207C3200206832002078320020F8
:107D34008C3200204068FFF7A7BD000008B5054855
:107D4400012100F09EFB18B9BDE80840FFF79CBD77
:107D540008BD00BF783200202DE9F3419846354B29
:107D64001B7806460D46002B5BD000295BD00988A2
:107D74004FF6FF73994258D06B88002B55D06B682F
:107D84009B0754D14AB92F890DF102013846FFF7F8
:107D9400A7FB30B102B0BDE8F08113885788ADF875
:107DA400023001A8FFF746FC044658B9BDF802208A
:107DB400214B142101FB023358890338C01B58811D
:107DC4000820E7E780F8008000238375BDF80230BF
:107DD40083826B6803610121184800F05EFB2B88E5
:107DE4002381B8F1030F6B88A38004BF0423A37518
:107DF4004FF0000508BF3368E06008BFA361104876
:107E0400E780658101A900F05FFA36B1E368336069
:107E14000C4B75601B89B5723381FFF78FFF00200F
:107E2400B8E70220B6E70520B4E70420B2E7032050
:107E3400B0E700BF90310020B4310020AC31002005
:107E4400683200209831002008B5034607480268CC
:107E5400042A08D00168064A42F82130012100F0C2
:107E64001CFB002008BD0C20FCE700BF843200206E
:107E7400803100202DE9F04F89B01422002103A89D
:107E840007F0DCFB724B1B7803F0FF0201923BB15D
:107E940003A8FFF701FB0026304609B0BDE8F08FC8
:107EA4006B4B181D00F011FB0028F4D14FF0102388
:107EB4004FF080525B6911695269DFF8ACB1581C0C
:107EC40008BF02FB01F3CBF810306249A3F540531D
:107ED40000225846CBF80C3000F022FD064600285C
:107EE400DAD11C235C495D48DFF880A1DFF880818A
:107EF4008C2200F08AF90323B146354600933446B8
:107F0400DBF80C704F443846FFF7A2FB01283946D2
:107F14004AD0032815D0002835D11421614308EB39
:107F2400010208F80100576001F1100208314244CF
:107F340041443846FFF7A4FB45F002050134A4B2DE
:107F440021E007F580520868013074D10431914270
:107F5400F9D1DAF800203AB902220123CAF80070F4
:107F6400AAF8042001930CE014226243022008EBD7
:107F7400020108F802003A4A4F6054800134088133
:107F8400A4B245F0010509F58059B9F5405FB7D1B0
:107F9400009B012B98BF0025EDB2022D02D0062DC7
:107FA40020D045BB0B2677E7019B63B114226243C3
:107FB40008EB0201022008F802000134DAF800207C
:107FC4004A600881A4B200222649CAF800703846E3
:107FD400FFF756FBBAF80420022A0CBF0422082239
:107FE4001543D0E71A4A0123137003A800235360F2
:107FF400FFF752FA50E702A8FFF71CFBC8B10123B0
:10800400013D03700A2D09D8DFE805F006080608CB
:10801400070807080F110F000023037102A90F4876
:1080240000F052F9FFF78AFE36E70323F5E702234F
:10803400F3E7082630E7009B5A1E93B214226243EA
:1080440008EB020100934F60032108F8021075E762
:1080540090310020C8020300DC3100206832002087
:108064009831002080320020C82900207C32002072
:10807400B431002073B50D460446C8B1C1B10DF149
:108084000601FFF75BFBA8B1BDF806300A48666835
:10809400142202FB030001210C3000F0FEF9636896
:1080A4002E600C336B600123A372002002B070BDFC
:1080B4000520FBE70A20F9E7B431002013B5044694
:1080C400A8B10DF10601FFF739FB90B1BDF8062008
:1080D4000A4B142101FB0233DA6862B1A27A52B16D
:1080E400DA680020013ADA60A07202B010BD0520FF
:1080F400FBE70A20F9E70620F7E700BFB4310020C8
:1081040002230022FFF728BE18B103230022FFF741
:1081140023BE052070470000104B1B7813B504469E
:10812400ABB14FF6FF73984213D001A8FFF782FA60
:1081340088B10523037001230371C48001A9084891
:1081440000F0C2F8FFF7FAFD002002B010BD0220D3
:10815400FBE70420F9E70820F7E700BF903100208F
:10816400683200200E4B1B7807B5A3B101A8FFF7B6
:1081740061FA90B10623037001A90A4800F0A4F83B
:10818400094B1A780AB101221A73FFF7D7FD0020B0
:1081940003B05DF804FB0220FAE70820F8E700BF0B
:1081A40090310020683200209831002007B5ADF8E6
:1081B4000600ADF804100DF1060001A9FFF710FB4D
:1081C40003B05DF804FB07B51346ADF806000A4694
:1081D40000200DF10601FFF703FB03B05DF804FB7B
:1081E40007B51346ADF806000A460DF10600002156
:1081F400FFF7F6FA03B05DF804FB20B119B1036888
:108204000B60002070470520704710B561B1B2FBC8
:10821400F3F403FB1424A4B244B9C0E90014846049
:108224008281C381204610BD0E20FCE70920FAE7B5
:1082340082B050E8022FC188B2EB324F4FF00003F6
:1082440017BF92B241EA014142EA014104E04268A7
:10825400B2EB324F08BF012340E80212002AE8D1F2
:108264008DF807309DF80730002B0CBF112000203B
:1082740002B0704737B550E8013F9DB2C489254428
:108284008489A54228BF2D1B0489A54202BFBFF3E0
:108294002F8F002207E0C5EA030540E80154002CB3
:1082A400E9D14FF001028DF803200193019A0A608D
:1082B4009DF8031001F0FF0321B1006810FA82F069
:1082C40003B030BD1846FBE70A884B889A4209D1AF
:1082D40050E8012FC2EA024240E80123002BF7D103
:1082E400012070470020704737B550E8023F1FFA5D
:1082F400A3F5C488A54202BFBFF32F8F00220DE06F
:10830400C48925448489A54228BF2D1BC3EA054599
:1083140040E80254002CE8D14FF001028DF803200C
:108324000193019A0A609DF8031001F0FF0321B143
:10833400006800EB124003B030BD1846FBE70A8822
:108344004B889A4209D150E8022FC2EA224240E8FF
:108354000223002BF7D1012070470020704701F061
:108364001F024B090121914000EB830000F065B826
:108374004B0910B501F01F040121A14000EB83005B
:1083840000F04FF8E04000F0010010BD01F01F03C1
:1083940001229A404B0900EB8300D14300F065B8F9
:1083A4004B0901F01F0150F82300C84000F0010000
:1083B40070472DE9F0474F1E7F0980460E4601376E
:1083C400002558F8254008EB8509E44394FAA4F401
:1083D400B4FA84F44FEA451A202C06D10135AF4291
:1083E400EFD834462046BDE8F0875444A642F5D978
:1083F40021464046FFF7BCFF0028F3D0D9F80040DF
:10840400E44394FAA4F4B4FA84F4E5E710B503461B
:1084140053E8000F0A4643E8002494F0000FF7D114
:1084240010BD10B5034653E8000F40EA010243E8CB
:10843400002494F0000FF6D110BD10B5034653E8A4
:10844400002F42EA010043E8000494F0000FF6D143
:1084540010BD10B5034653E8000F00EA010243E8DB
:10846400002494F0000FF6D110BD10B5034653E874
:10847400002F02EA010043E8000494F0000FF6D153
:1084840010BD10B5034653E8000F00EB010243E8AA
:10849400002494F0000FF6D110BD10B5034653E844
:1084A400002F02EB010043E8000494F0000FF6D122
:1084B40010BD10B5034653E8002FA2EB010043E8BA
:1084C400000494F0000FF6D110BD0121FFF7A9BFFD
:1084D4000121FFF7B2BF0021FFF7BBBF10B590B178
:1084E400D0E9012301689B1ADBB20A60013BDBB2CD
:1084F400FF2B026802D10020107110BD11684C1CC2
:1085040014600B70F2E70E20F7E737B50546002438
:108514000DF107008DF80740FEF784FF2A686B68A9
:10852400116899420ED9481E106011F8013CEC689C
:10853400298A01FB0344AB6811791B1ADBB2994207
:1085440038BF13719DF80700FEF790FF204603B073
:1085540030BD37B5054600230DF107000C468DF8F4
:108564000730FEF75FFF2A681368591C1160E96839
:10857400641A298AB4FBF1F41C709DF80700FEF715
:1085840075FF03B030BD826810B504462AB1436953
:108594000168006998470023A36010BD0EB403B5B9
:1085A400039921B104AB01AA019300F06FF802B062
:1085B4005DF804EB03B07047826830B40468551C5E
:1085C4008560A154D0E901329A4202D330BCFFF74E
:1085D400DABF30BC704700002DE9F84F9846DDE95A
:1085E4000A43154682460F460A464FF00109AA423D
:1085F4000FD2C14538BFC14613F0010B01D16CB98C
:1086040000240126B8F1010F1BD908F1FF386E438D
:10861400F8E709F10109B2FBF5F2E8E79B070ED58B
:10862400B8F1000F0CBF30262026A145E9D2013C49
:1086340031465046FFF7C0FF002CF6D1E0E7202674
:10864400F3E7B7FBF6F39D42E1D9DFF83C80B7FBD3
:10865400F6F3504618F8031006FB1377FFF7ACFF48
:108664003346AB42B6FBF5F6F1D2BBF1000F02D0B4
:108674000CB1A14501D3BDE8F88F20215046013C3F
:10868400FFF79AFFF4E700BFDC0003002DE9F74F82
:10869400054617468846002900F03E8118F8011B5C
:1086A40049B92B7B002B00F03781284603B0BDE885
:1086B400F04FFFF768BF252940F0B780002698F8EF
:1086C40000302D2B424608F1010823D0302B24D052
:1086D4002B2B25D000242A2B02F1010123D13B6846
:1086E4001A1D1B683A601C440A4613782E2B26D1A7
:1086F40001324FF0000A104610F8011BA1F1300CB2
:10870400BCF1090F1DD80A2303FB0A13A3F1300A95
:108714000246F0E746F00106D1E746F00206CEE74E
:1087240046F00406CBE711F8013CA3F13000092818
:10873400DBD80A2202FB0434303C0A46CBE74FF074
:10874400000A12F8011B01F0FB0068289046F8D0DB
:10875400782909D86F290CD8632962D022D8252911
:1087640063D0582900F0888098F80030002B95D108
:1087740097E770390829F7D801A353F821F000BF0F
:10878400F78802006D8702006D8702008D88020061
:108794006D8702006B8802006D8702006D870200FE
:1087A4007D880200642901D06929DDD13A68D2F8B4
:1087B4000090111D89EAE9723960A2EBE9724FF069
:1087C400010B092A35DCD34538BFD3462CB1B9F1A6
:1087D400000F01DB720700D5013CB30702D5BAF1E3
:1087E400000F03D0F00701D44CBB0024B9F1000FF3
:1087F4002DDAC9F100092D212846FFF7DDFE06F028
:108804000302022A04D1BAF1000F01D11CBB0024D7
:10881400CDE9004653460A2249462846FFF7DCFEC6
:10882400A2E73B681A1D19783A602846FFF7C4FE90
:108834009AE70A230BF1010BB2FBF3F2C1E7A3455C
:10884400D4D220212846013CFFF7B6FECCE77107BD
:10885400D5D52B21D0E7A345DAD230212846013CD7
:10886400FFF7AAFED2E73968CDE900460A1D3A604F
:1088740053460A220968D0E739680A1D3A60CDE9EF
:10888400004653461022F5E73B681A1D3A6016F07D
:108894000106D3F8009024D1B9F1000F03D0484663
:1088A40006F021FF0646B4421DD809F1FF3919F834
:1088B400011F00293FF458AF2846FFF77DFEF6E775
:1088C40028460136FFF778FE19F806100029F7D17B
:1088D400A642BFF449AF20212846013CFFF76CFEB5
:1088E400F6E70026F0E720212846013CFFF764FE66
:1088F400D9E73B681A1D3A60302128461C68FFF707
:108904005BFE78212846FFF757FE00220823CDE9B5
:1089140000322146102280E703B0BDE8F08F00BF8B
:1089240013B50B46114680B9104B1148114AC01AB1
:108934000E23C0080093104B0004104940F00100BE
:10894400FEF707F90E2002B010BD4BB9074B0848DB
:108954000B4AC01AC0080E2300930004064BECE730
:1089640003601B6802B0BDE81040184734FE0200E3
:10897400A4FE0200EC000300A8020300F1000300BF
:10898400200103002DE9F743DDF8288088B93E4B28
:108994003E483F4AC01AC0080E243E4B00940004CF
:1089A4003D4940F00100FEF7D4F8204603B0BDE88D
:1089B400F0834AB9344B3548384AC01AC0080E24EB
:1089C400344B00940004EBE7D0F800E0BEF1000F54
:1089D40009D12D4B2D48324AC01AC00808242D4B0A
:1089E40000940004DCE74BB9274B28482D4AC01AF1
:1089F400C0080924274B00940004D1E74568D5F842
:108A04000490B3FBF9F509FB15354DB11E4B1F4816
:108A1400254AC01AC00809241E4B00940004BFE76D
:108A24008D0709D0184B1948204AC01AC0081024D1
:108A3400184B00940004B3E712F0030F09D0124B53
:108A440012481B4AC01AC0081024124B0094000498
:108A5400A6E7C568A9420DD34D1EEC180569AC42C2
:108A640008D8CDF82880DEF80C40A44603B0BDE851
:108A7400F0436047044B05480E4AC01AC00810244E
:108A8400044B009400048BE734FE0200A4FE0200B1
:108A9400EC00030095020300F10003006E010300E3
:108AA4001A0103002D010300740103009E01030059
:108AB400B6010300D9010300F7B580B92A4B2B484E
:108AC4002B4AC01AC0080E242A4B009400042A49D9
:108AD40040F00100FEF73DF8204603B0F0BDD0F8A9
:108AE40000C0BCF1000F09D11F4B2048234AC01A13
:108AF400C00808241F4B00940004E8E74AB91A4B45
:108B04001A481F4AC01AC00809241A4B00940004CA
:108B1400DDE74568D5F800E00EF1FF350D4209D0D8
:108B2400114B1248174AC01AC0081024114B009464
:108B34000004CCE7C568A9420CD34D1E0EFB0254B9
:108B44000569AC4206D8DCF81040A44603B0BDE881
:108B5400F0406047044B05480B4AC01AC008102473
:108B6400044B00940004B2E734FE0200A4FE0200A9
:108B7400EC00030082020300F10003001A01030069
:108B84002D010300000203002602030029DF7047C1
:108B940028DF704770B503689E6886B004460D46AA
:108BA4006EB114220021684606F048FDA3680593BF
:108BB400237901952BB1012B0DD06846B04706B03F
:108BC40070BD01238DF8003023690293E368039399
:108BD40063690493F1E702238DF80030E3681B0313
:108BE4000293F5E70846704700207047024B187A55
:108BF400003818BF0120704730330020034B187A27
:108C04000122B0FA80F05A744009704730330020D2
:108C140008B510461A4606F0E8FC002008BD00001E
:108C240008B514220021044806F008FD0348FFF7A4
:108C3400FFFA002008BD00BF30330020203300209D
:108C440010B5094C094B43602046FFF73EFC40B980
:108C540006F08EF9064920741C2306488C22FFF77F
:108C6400D4FA002010BD00BF30330020BC02030042
:108C7400943200202033002038B5234D234C2B7A26
:108C84003BB923492348FFF72FFB206008B96860EC
:108C940038BD022324682B72237973B1012B24D0AD
:108CA40020460321FFF776FF00232B726B601849DF
:108CB4001848BDE83840FFF742BBD4E90523D21A6F
:108CC400B2F5805FD4E9031028BF4FF480529208B4
:108CD400012A38BF012219441844FFF757FF50B145
:108CE4001128DDD101232B72D2E7D4E90303184400
:108CF400FFF74EFFF3E72B7C002BC9D1BDE83840CA
:108D0400022000F009B800BF3033002048330020AF
:108D1400443300202033002038B5234C237A002B21
:108D240041D0022B09D1032830D0204B00221B68EC
:108D3400E2601A793AB1012A22D0637C7BBBBDE898
:108D44003840FFF799BFD3E905128D1AB5F5805F56
:108D540094BF521902F580529A619142EDD10228D2
:108D64004FF0000308BF19462372104B18BF0D21A2
:108D74001868FFF70FFF0E490E48FFF7E0FADCE72B
:108D84001A6901321A615B699A42E7E7E3680133C1
:108D9400082B01D8E360D0E70023E360DFE7BDE8F8
:108DA400384006F0D5B838BD3033002048330020B1
:108DB4004433002020330020831E012B01D8FFF709
:108DC400ABBF704700F0FD03012B08D1044B002218
:108DD4005A74421E504250411874FFF74DBF7047F9
:108DE4003033002010B5064C201DFFF76EFB28B968
:108DF400637C1BB9BDE81040FFF73EBF10BD00BF48
:108E0400303300202DE9F34180460D46104801A976
:108E140016461F46FFF72EFA0446B0B11822002169
:108E2400043006F00BFC2D0B0123237101A9084823
:108E3400C4F80080A760E5606661FFF745FAFFF7B4
:108E4400D1FF002002B0BDE8F0810420FAE700BFA2
:108E5400203300202DE9F34180460F460F4801A935
:108E640016461D46FFF706FA0446A8B1182200214B
:108E7400043006F0E3FB089BA36001A9C4E903677F
:108E84000648C4F800806561FFF71EFAFFF7AAFFE1
:108E9400002002B0BDE8F0810420FAE7203300206E
:108EA4002DE9F84FB0F806A04579D2F800B09DF846
:108EB40028900AFB05F5043D88460BEB0301A94203
:108EC40003F1040488BFA5EB030BB4FBFAF60746D1
:108ED4000AFB1644C2F800B04EB9AAEB04055D457E
:108EE40028BF5D46BBF1000F04D1BDE8F88F3F6891
:108EF400013EF1E7043408EB06003C442A46B9F18C
:108F0400000F0DD02146ABEB050B06F06EFBDA45E6
:108F14002E443F6855464FF0000428BF5D46E1E704
:108F240001462046EFE7FFF7D9BAF8B5467901467E
:108F3400721E0546002393422D6803D30024A642E3
:108F440002D8F8BD0133F6E70F682846FFF701FBA6
:108F540001343946F3E72DE9F843068ACD1C074668
:108F6400FFF7D3FA043E35440446B5FBF6F5F0B1F9
:108F74004FF48073EDB28380C680013D0760814663
:108F84004FF00008A84512D23846FFF7BEFA06464D
:108F940048B163790133637108F10108C9F800002D
:108FA40007608146EEE72046FFF7BFFF34462046C0
:108FB400BDE8F88301210430FFF76FBA10B5012131
:108FC40004460430FFF775FAC0B220B92046BDE864
:108FD4001040FFF7AABF10BD1FB5039200220092F4
:108FE40003AAFFF75DFF05B05DF804FB1FB503920C
:108FF4000122009203AAFFF753FF05B05DF804FBBA
:1090040033DF7047064B10B500241C70054B1C6001
:10901400BFF35F8F0449054800F06BF8204610BD8C
:109024005533002058330020F40203004C33002051
:109034007047000070B5244D044601212846FFF70F
:10904400E5F9BFF35F8F38B9042C0AD01F4B1A78A7
:109054001AB1BFF35F8F286070BD1D4A14700122DE
:109064001A701C4C1A4E6368BBB9FDF7AFFDFDF7CF
:10907400F7FB0028FBD1164B1B78023B012B15D8BC
:10908400BFF34F8F1449154BCA6802F4E0621343CF
:10909400CB60BFF34F8F00BFFDE71B683078984764
:1090A4000028D6D0204600F02EF8DCE705F060FF5B
:1090B40008B1FFF7A5FF4FF080430122C3F8002554
:1090C400BFF34F8F20BFFDE75833002055330020F6
:1090D400543300204C33002000ED00E00400FA0576
:1090E400836800225A60C3E904229A60DA601A6035
:1090F40070470B684A684360934208BF00230160CD
:1091040008BF43607047436843B10268916852687E
:109114000B449342436004BF002343607047000044
:1091240010B50D49A1F59472914201D800200FE0C9
:109134008C1AE30F03EBE4035B1002EBC30452F855
:109144003330834205D802D204F10802ECE76068A8
:1091540010BD2146E8E700BFF807030008B5FFF794
:10916400DFFF024B002808BF184608BDBA060300FB
:10917400BFF34F8F0549064BCA6802F4E0621343FC
:10918400CB60BFF34F8F00BFFDE700BF00ED00E0F1
:109194000400FA054FF0704393F8E02F062A10D12B
:1091A400D3F8E42F12070CD1D3F8E80F00F0F00342
:1091B400302B08D000F0E000A0F1400358425841A1
:1091C400704700207047012070474FF0704393F8B8
:1091D400E02F062A0CD1D3F8E42F120708D1D3F8D4
:1091E400E80F00F0F000A0F13003584258417047F6
:1091F4000020704708B5FFF7CDFF40B14FF0805312
:10920400934AD3F82433C3F30423C2F84035FFF759
:10921400DCFF10B18F4B904A5A67FFF7BBFF48B190
:109224004FF080534FF08042D3F84432C3F34233BB
:10923400C2F83C35FFF7C9FF30B1884AD2F8FC3098
:1092440023F08073C2F8FC30FFF7A4FF40B14FF065
:1092540080430022C3F80C21C3F81021C3F8382539
:10926400FFF7B3FF20B14FF080430322C3F8A025DA
:10927400FFF7ABFF60B17A4B0522C3F81026012239
:10928400C3F888260022C3F818263F22C3F8142600
:109294004FF0704393F8E02F062A50D1D3F8E42F0F
:1092A40010074CD1D3F8E83F03F0F003502B46D11C
:1092B4004FF080526B4BD2F80414C3F82015D2F847
:1092C4000814C3F82415D2F80C14C3F82815D2F8DE
:1092D4001014C3F82C15D2F81414C3F83015D2F8AE
:1092E4001814C3F83415D2F81C14C3F84015D2F876
:1092F4002014C3F84415D2F82414C3F84815D2F83E
:109304002814C3F84C15D2F82C14C3F85015D2F80D
:109314003014C3F85415D2F83414C3F86015D2F8D5
:109324003814C3F86415D2F83C14C3F86815D2F89D
:109334004014C3F86C15D2F84424C3F87025FFF721
:1093440029FF48B14FF080534FF08042D3F8583290
:1093540003F04F03C2F8E43EFFF71CFF48B14FF09F
:109364008043D3F80024D10744BF6FF00102C3F84F
:1093740000244FF08053D3F83021062A0AD1D3F8C1
:109384003431062B01BF384AD2F83C3743F48063AA
:10939400C2F83C37314AD2F8883043F47003C2F83B
:1093A4008830BFF34F8FBFF36F8F4FF01023D3F884
:1093B4000C22D2071DD52D4B0122C3F80425D3F866
:1093C4000024002AFBD04FF01022D2F80C3223F0F4
:1093D4000103C2F80C32254BD3F80024002AFBD039
:1093E4000022C3F80425D3F80024002AFBD0FFF799
:1093F400BFFED3F80022002A03DBD3F80432002B8B
:1094040022DA1A4B0122C3F80425D3F80024002AD7
:10941400FBD04FF010221521C2F80012D3F800241B
:10942400002AFBD04FF010231522C3F804220F4B5F
:10943400D3F80024002AFBD00022C3F80425D3F873
:109444000024002AFBD0D2E7094B0A4A1A6008BD5F
:109454000030014000C007400DF0ADBA00ED00E05F
:109464000050004000C000400010004000E00140F7
:10947400002A00200090D00338B5074C051E04F1E3
:10948400080318BF1C4623682BB11A6822605B6866
:1094940028469847F7E738BD6433002020B9054BC8
:1094A40001225A70FFF7E8BF012802D1014A9070E7
:1094B400F8E770475C33002020B9034B01225A704F
:1094C400FFF7DABF704700BF5C33002038B50B4CA0
:1094D400237883B90A486360A3602361E36000F0E2
:1094E400D5F8054605F044FD08B900F0DBF8012382
:1094F4002370284638BD8525FBE700BF5C33002078
:10950400A194020037B50B4C00230DF107008DF830
:109514000730FDF787FFE368013BE360E56815B9B1
:1095240000F0D4F8A5709DF80700FDF79FFF03B085
:1095340030BD00BF5C330020012813B508D00328D8
:109544001CD018B9114B0122C3F8802002B010BD01
:109554000F4C00230DF107008DF80730FDF762FF73
:1095640023780BB9FFF7B2FFE3689DF807000133D6
:10957400E3600123A370FDF779FFE7E700F092F8B9
:1095840002B0BDE81040FFF7BDBF00BF00E100E03E
:109594005C3300201FB503788DF8003043680193D5
:1095A400037A8DF80830C368054A0393054B68466F
:1095B40053F8213052F82110984705B05DF804FBA8
:1095C40070330020743300201FB503788DF8003009
:1095D4004368019383688DF80830C368054A039390
:1095E400054B684653F8213052F82110984705B0CE
:1095F4005DF804FB7033002074330020F0B5194B80
:1096040090F800C091F81DE043F82C20164B164644
:109614000A6943F82C20154B03F80CE00C46074666
:109624000FCC89B06D460FC594E80F0085E80F0094
:10963400CDF810C0BEF1000F09D0002E0C4A6946C7
:1096440008BF3246381D00F06FFC09B0F0BD002E93
:10965400084A694608BF324607F10C0000F05CFA7C
:10966400F3E700BF74330020703300207833002008
:1096740099950200CD95020000F18040002382B04C
:10968400036003680193019B02B07047044A137995
:1096940023B90121106091801846704785207047D6
:1096A4007C330020084B1A68D20706D4C02283F802
:1096B40000230122C3F880211A604FF08043012265
:1096C400C3F81825704700BF00E100E04FF0804365
:1096D4000122DA60D3F81824D203FBD470470000C7
:1096E4004FF0804110B5D1F8003163B14FF4807070
:1096F400FFF7C2FF0D4B58790122C1F8082310B9B6
:109704005A711B6898474FF08042D2F8043163B114
:109714004FF48270FFF7B0FF0223C2F80833034B03
:10972400BDE810401B680120184710BD7C330020A1
:1097340000F1804000F5C040002382B0036003685C
:109744000193019B02B07047800000F1A040D0F863
:10975400002722F44032C0F80027D0F8003743EA4B
:109764000141C0F800177047C208012300F0070048
:1097740003FA00F08B5C1843885470472DE9F04FCE
:1097840087B00024584D03944FF48072012102F1F4
:10979400804303F5C04390B21B68012B06D1D5F872
:1097A40004330B4202D0FFF7C3FF0C430432B2F57B
:1097B400907F4FEA4101EAD14B4BD3F87C31012B26
:1097C4000AD14FF4BE70FFF7B3FF4FF0A04344F04B
:1097D4000044D3F810350393E3B2D3B1434F0025CB
:1097E4000126344210D0AB0003F1804303F5C0439B
:1097F400D3F81005D3F8101557F8253023B1C1F369
:109804000141C0F3042098470135082D4FEA46066C
:10981400E7D1002C61DA00224FF0FF33CDE90423B5
:10982400DFF8C880DFF8C89000273E464FF0A04B11
:1098340019F9014B631C45D0C4F3C2030122E5B2FC
:1098440004F03F0004F0070402FA04F406AA1344E7
:1098540013F8042C224235D008EB0002AD0992F92A
:10986400302058F822A0BAF1000F09D1032D29D1D4
:1098740004A901930090FFF777FFDDE9000301E0FD
:10988400032DF5D000F5E07113F80C3C5BF82110C2
:109894002342C1F3014105D0022913D1032D0CD178
:1098A400294604E003290DD1032D06D1022100909D
:1098B4000136FFF749FF0098F6B2BAF1000F01D064
:1098C4002946D0470137042FB2D136B14FF0A04317
:1098D400039AD3F81035934202D107B0BDE8F08F54
:1098E4000393049B05939DE70060004084330020AC
:1098F400D4330020014B1B68184700BFE03300201D
:109904000E4B984237B50C4602D0002003B030BD50
:1099140000230DF107008DF80730FDF783FD084B98
:109924001D7915B901221C601A719DF80700FDF715
:109934009DFD002DE9D01120E8E700BF0020004084
:10994400E0330020034B984201BF034B00221A600E
:109954001A71704700200040E03300200023435078
:1099640082B043580193019B02B070470A4610B578
:109974004FF48E71FFF7F2FF136A9168C95C136AA2
:1099840001331362C0F81C1510BD8B690A4610B56B
:109994004FF4847123B9FFF7E1FFD0F8183510BDF7
:1099A400FFF7DCFF536AD168D0F81805C854536A2E
:1099B40001335362F3E700001FB501238DF8003033
:1099C400044BCDE90110D3E900126846904705B075
:1099D4005DF804FBE833002030B54D4DD5F8043371
:1099E4009A0585B051D5D5F82431002B4DD04FF4CC
:1099F40092712846FFF7B2FF4FF40173C5F808339C
:109A0400444B93F829200AB901226A604049022292
:109A14008DF80020D1F88024C1F8802403929A693B
:109A24000292DA6801920022C3E906226846D3E969
:109A3400001290473648D0F81C315BB1354A116AA0
:109A4400536999424DD292F82830002B49D11146DE
:109A5400FFF78CFF2E48D0F84431002B55D04FF43B
:109A6400A271FFF77BFF2B4B93F829200AB1012247
:109A740002609A69002A48D0586AD96800229A611B
:109A840005B0BDE83040FFF797BFD5F804335B0756
:109A9400D0D5D5F80831002BCCD01E4C1C4821461B
:109AA400FFF773FF636AA2699A42C3D1E369E1686D
:109AB4004BB1A3612369E3600023606AE3616362DD
:109AC400FFF77AFFB6E794F829300BB901236B60EE
:109AD4000F4B4FF40172C3F808230023606AA3619B
:109AE400EEE74FF48E710A48FFF738FF51690029F9
:109AF400B0D00023029191688DF800300191536138
:109B04006846D2E900139847A4E705B030BD00BF0A
:109B140000200040E83300202DE9F843594D90F827
:109B240004802C2303FB0853064693F82A300C4682
:109B34009146002B40F0A28053490068FFF7E0FEF5
:109B44000746002840F09C8022683068511C0BD0E6
:109B54004FF0A04101239340C1F8083502F5E073AA
:109B64004FF0030C41F823C061684B1C1FBF01F583
:109B7400E0734FF0A04C4FF0000E4CF823E0A369C3
:109B8400C0F8243594F814C0637DBCF1010F4CEA8D
:109B94000303C0F86C35C0F81415C0F80C251DD1AA
:109BA400A268531C1FBF02F5E0734FF0A0414FF0B1
:109BB400000C41F823C0E368591C0BD04FF0A04CB3
:109BC40001219940CCF8081503F5E0714FF0030E1C
:109BD4004CF821E0C0F80835C0F810252C2202FB0F
:109BE40008F2AB18C3F804902369AB50B9F1000F25
:109BF40031D04FF48E71227FFFF7B0FE30684FF4FE
:109C0400A271FFF7ABFE33682049C3F80413190BA4
:109C140043F30733002BA8BF03F160404FEA53130B
:109C2400BCBF01F00F041A484FEA4212A8BF00F566
:109C340061404FEA8303D2B203F16043B4BF0255DB
:109C440080F8002303F5614301F01F0101228A40DB
:109C5400C3F880211A6033680422C3F800252C233A
:109C640003FB08530022C3E9062283F829205A6122
:109C7400012283F82A203846BDE8F8830827FAE74A
:109C84001127F8E7E8330020DD9902008000020084
:109C940014ED00E0F8B5057900682C4C0023C0F8F9
:109CA40000352C2303FB05435B686BB1284BC0F8DC
:109CB400083340F30733C0F304315B0901228A40BF
:109CC4002033244941F82320D0F80C65D0F814152A
:109CD400D0F80835D0F810254FF0FF37BE42C0F851
:109CE400147518BF06F5E076C0F80C75C0F8087551
:109CF400C0F810751EBF4FF0A0474FF0020C47F894
:109D040026C04E1C1FBF4FF0A04601F5E07102278C
:109D140046F82170511C1FBF4FF0A04102F5E072BC
:109D2400022641F822605A1C1FBF03F5E0734FF06E
:109D3400A042022142F82310FFF704FE2C2303FB68
:109D44000544002384F82A306360F8BDE83300201A
:109D54008402020000E100E00279044B2C2101FBA3
:109D640002335869003818BF01207047E8330020D7
:109D74002DE9F84F064689469246FFF7EDFF044663
:109D840000283DD196F804801F4F2C2508FB057B45
:109D94004FF48E71CBF82000CBF814A08BF8280078
:109DA400CBF808903068FFF7D9FD30680123836051
:109DB4005946FFF7DBFDDBF804305D4613BB306822
:109DC4002A6A6B699A4211D33368D3F81C21002A9A
:109DD400FBD00122DA6000202C2303FB0877002348
:109DE4007B61BDE8F88F95F828303BB9D0F81C3179
:109DF400002BF8D05946FFF7B9FDE1E70F20EBE758
:109E04001120EEE72046ECE7E8330020002343501E
:109E140082B043580193019B02B070471FB50123E0
:109E24008DF80030054B8DF8080001916846D3E9A0
:109E34000012904705B05DF804FB00BF1434002005
:109E44007FB5374AD2F82461002E47D010464FF42C
:109E54009271FFF7DBFF02238DF80030D2F88034D3
:109E6400C2F880340393D2F83C358DF808302D4B7A
:109E7400DA6801920022C3E906226846D3E9001297
:109E840090472748D0F844316BB14FF4A271FFF7E3
:109E9400BDFF244B9A6932B100229A61D0F83C0587
:109EA400D968FFF7BBFF1E48D0F82031A3B14FF4A7
:109EB4009071FFF7ABFF1B4B5A696AB1D0F84C1590
:109EC4008DF80810002299688DF8002001915A61DC
:109ED4006846D3E90012904704B070BDD2F810313F
:109EE400002BCED04FF488711046FFF78FFF0D4B37
:109EF400D2F83C0599698842C3D1DC69D96864B158
:109F0400D2F8005225F02005C2F800521A699C616B
:109F1400DA60DE61FFF782FFB3E79C61FAE700BF16
:109F240000200040143400202DE9F8435D4E90F8E1
:109F34000480242303FB0863054693F820300C4671
:109F44009146002B40F0AA8057490068FFF7D8FCDF
:109F54000746002840F0A48022682868511C0BD0D2
:109F64004FF0A04101239340C1F8083502F5E07396
:109F74004FF0030C41F823C061684B1C1FBF01F56F
:109F8400E0734FF0A04C4FF0000E4CF823E0A369AF
:109F9400C0F8243594F814C0637DBCF1010F4CEA79
:109FA4000303C0F86C35C0F80C25C0F814151DD196
:109FB400A268531C1FBF02F5E0734FF0A0414FF09D
:109FC400000C41F823C0E368591C0BD04FF0A04C9F
:109FD40001219940CCF8081503F5E0714FF0030E08
:109FE4004CF821E0C0F80835C0F81025242202FB03
:109FF40008F2B318C3F804902369B350B9F1000F01
:10A004003BD04FF48871227FFFF700FF28684FF49C
:10A014009071FFF7FBFE28684FF49271FFF7F6FE8C
:10A0240028684FF4A271FFF7F1FE2B681F49C3F8AB
:10A034000413190B43F30733002BA8BF03F160404B
:10A044004FEA5313BCBF01F00F0419484FEA421200
:10A05400A8BF00F561404FEA8303D2B203F1604325
:10A06400B4BF025580F8002303F5614301F01F01DA
:10A0740001228A40C3F880211A602B680822C3F8A1
:10A084000025242303FB08660023C6E90633736115
:10A09400012386F820303846BDE8F8830827FAE71C
:10A0A4001127F8E714340020459E02001003020033
:10A0B40014ED00E0F8B5057900682C4C0023C0F8D5
:10A0C4000035242303FB05435B686BB1284BC0F8C0
:10A0D400083340F30733C0F304315B0901228A409B
:10A0E4002033244941F82320D0F80C65D0F8141506
:10A0F400D0F80835D0F810254FF0FF37BE42C0F82D
:10A104000C7518BF06F5E076C0F81475C0F808752C
:10A11400C0F810751EBF4FF0A0474FF0020C47F86F
:10A1240026C04E1C1FBF4FF0A04601F5E071022768
:10A1340046F82170511C1FBF4FF0A04102F5E07298
:10A14400022641F822605A1C1FBF03F5E0734FF04A
:10A15400A042022142F82310FFF7F4FB242303FB5F
:10A164000544002384F820306360F8BD14340020D3
:10A174001003020000E100E00279044B242101FBFA
:10A1840002335869003818BF012070471434002086
:10A194002DE9F84301F06043B3F1005F06468846B9
:10A1A400914634D1FFF7E8FF044690BB32791B4F48
:10A1B4003068242505FB02754FF49071C5F814909E
:10A1C400C5F80880FFF722FE30684FF4AC71FFF742
:10A1D4001DFE33686969A868C3F84405C3F84815C7
:10A1E400012199606968B1B9D3F82011D3F85801F5
:10A1F40049B90028F8D00F20242303FB0277002359
:10A204007B61BDE8F883002818BF0F20F4E7102015
:10A21400F7E71120F5E72046F3E700BF14340020E8
:10A22400C27FFF2A07D0817F012393404FF0A042D1
:10A2340051B1C2F80C3500230372437703464168D9
:10A2440053F8082B18461047C2F80835F3E7000006
:10A25400084BD3F8182182B052B10022C3F8182158
:10A26400D3F818310193019B034802B0FFF7D8BF1C
:10A2740002B07047003002405C3400204FF04023AD
:10A2840082B0D3F8182152B10022C3F81821D3F8B0
:10A2940018310193019B034802B0FFF7C1BF02B01C
:10A2A400704700BF383400200023435082B0435825
:10A2B4000193019B02B07047F0B55F485F4CD0F842
:10A2C400503187B023B34FF4A871FFF7EDFF4FF47B
:10A2D4008013C0F80833D0F82435CBB9C0F8003562
:10A2E4000623C0F80035636BC0F82435236A13F0E5
:10A2F400010218BF0122C0F8502513F002034E4A90
:10A3040018BF0123C2F840350123936007B0F0BDA4
:10A31400494DD5F824319BB14FF492712846FFF78B
:10A32400C3FFD5F804315BB9A368C5F80833022329
:10A33400A360A368C5F8043301232B626B61E5E7CE
:10A34400D5F80431002B48D03D4F3B484FF482717F
:10A35400FFF7AAFF0FCF01AE0FC63B68336094F836
:10A364002E307BB1237B012B0CBFD5F83C25D5F8CF
:10A374004C250292022B304B0CBFD3F83C35D3F85A
:10A384004C3503932C484FF4B071FFF78DFF4FF415
:10A39400AE71FFF789FF94F8303013B194F82E3082
:10A3A4003BB1254B0022C3F80022A260254AC3F822
:10A3B4000823214AD2F8C434C2F8C4349A0736D5E3
:10A3C40001238DF8003094F830300BB984F82F3025
:10A3D400D4E900316846984798E717484FF4A471C8
:10A3E400FFF762FF237B83B9154F0FCF01AE0FC672
:10A3F4003B68336094F83030002BDAD1C5F8003272
:10A40400A360104BC5F80833D3E74FF40073C5F8C5
:10A41400003240F20223A36003F1CE73C5F808337F
:10A42400A368C5F804330123AB602B626EE713F015
:10A43400040318BF0223C4E7003000408034002026
:10A444008C34002002029C0100F1804000F5E040C1
:10A45400002382B0036003680193019B02B070473C
:10A46400F0B5524B524CD3F8043185B0002B3DD09B
:10A4740094F82E204FF48270FFF7E6FF2AB394F885
:10A484002F3013BB494AD2F80031002B32D04FF49D
:10A494008070FFF7D9FF638B94F82D00834250D965
:10A4A40021891B1A9BB289B26383CB1A616801EBC1
:10A4B4004303C2F82C36C2F830064FF48270FFF71B
:10A4C400C3FF3A4B01225A6014E063680293238964
:10A4D400ADF80C30E36800218DF8041033BB23740D
:10A4E400236801A89847002384F82F3094F82E306D
:10A4F400002BC7D12D4BD3F810315BB14FF48870CA
:10A50400FFF7A2FF0023237402238DF8043001A86F
:10A5140023689847254BD3F81431EBB14FF48A7074
:10A52400FFF792FF0023237405B0F0BD208B6083F6
:10A5340063602081E160002AD2D11C4B01221A60A1
:10A54400CEE7BAD1E368012184F82F1013B10021BA
:10A554006183AEE76383B0E766694FF00047012586
:10A56400002EE1D0B6FA86F227FA02F346329200C0
:10A5740026EA030602F1804303F5E0431B68002B3F
:10A58400EED01046A2F58C72FFF75EFFD30882F07E
:10A594000402C2F380028DF808308DF80450236859
:10A5A4008DF8092001A89847DAE700BF0070004041
:10A5B400B83400202DE9F743002406460F4600F581
:10A5C400A0754FF48038A146A30003F5A07398B298
:10A5D4002B686BB1D6F8043308FA04F21A4207D098
:10A5E400C5F800902B680193019BD7E90031984787
:10A5F4000134042C05F10405E6D103B0BDE8F08371
:10A6040001490248FFF7D6BFE8340020008000402B
:10A6140001490248FFF7CEBFF43400200090004007
:10A62400032811D8012A0AD101290FD100F10E0201
:10A63400D2B20D4B00EB40001A54002070470129A0
:10A64400F7D0022904D049B1072070470022F8E767
:10A65400054B00EB400018444270EEE7024B00EB60
:10A66400400018448270E8E70035002008B5012254
:10A6740002210020FFF7D4FF08B1072810D10722D8
:10A6840002210120FFF7CCFF08B1072808D10021DF
:10A694000A220846FFF7C4FF10B1072808BF0020AC
:10A6A40008BD00000388102B10B502D0112B1ED05A
:10A6B40010BD1A4C2168B1B901220846FFF7B0FF5A
:10A6C40008B1072824D1072202210120FFF7A8FF9F
:10A6D40008B107281CD1042202210020FFF7A0FFA3
:10A6E40008B1072814D1236801332360E0E70B4A3B
:10A6F4001368013B1360002BDAD1FFF7B7FF002882
:10A70400D6D0074B1B68002BD2D0BDE810401847A9
:10A71400034B1B68002BE6D09847E4E71035002074
:10A724000C35002041DF704738B5054D044645F02F
:10A7340001054FF47A40A847013CFAD138BD00BF67
:10A74400B00803004FF0A0434FF0007210B9C3F8F3
:10A754000C257047C3F80825704770B505460C46AC
:10A764000026F3B2AB4204D340F2DC50FFF7DCFF27
:10A77400F6E70120FFF7E6FF14B12046FFF7D4FF08
:10A784000020FFF7DFFF14B12046FFF7CDFF0136AD
:10A79400E7E7000008B500F085FA1E481E4C00F0FB
:10A7A400ACFC4FF0A04340F20332C3F8642701200D
:10A7B400FFF7C8FF194800F0A0FC00F019FA00F0F8
:10A7C4007EFA00F02BFA00F047FA154B15481649AB
:10A7D400C01AC008000440F00300FCF7A3F91348B2
:10A7E40000F08BFC00F028FA0020FFF7ABFF207884
:10A7F400012808D1FFF7A6FFFCF732F80028F6D1AC
:10A80400FFF790FFF3E70028F4D04FF4FA71052026
:10A81400FFF7A3FF340803001435002042080300A7
:10A8240034FE020084FE0200760803008F08030051
:10A8340076DF70478FDF7047AEDF7047B5DF704754
:10A844004CDF704730B5044685B003F02BFC20463E
:10A8540003F044FA23780D2B49D8DFE803F0077D91
:10A86400103037484A7648614868546F3E483F4B39
:10A874003F49C01AC008000440F003004BE03B4BC2
:10A88400394D6088ED1AED0801F09AF82D04237A09
:10A89400009345F003056388364902462846FCF7D1
:10A8A40058F9237A012B22D128463349FCF73AF987
:10A8B4006088002105B0BDE8304002F09FBF2A48FF
:10A8C4002A4B2E49C01AC0080004D5E7274B264856
:10A8D4002B49C01AC008000440F00300FCF722F919
:10A8E400012360888DF80C3003A902F095FF05B0B0
:10A8F40030BDFDF737FC30F00803F8D005B0BDE8F3
:10A904003040FCF795BA1848184B1E49C01AC008C5
:10A91400000440F0040005B0BDE83040FCF702B983
:10A924001148124B1849C01AC0080004A4E70E4885
:10A934000E4B1649C01AC00800049DE70A480B4B89
:10A944001349C01AC008000496E70748074B114989
:10A95400C01AC00800048FE70348044B0E49C01A0C
:10A96400C008000488E700BF84FE020034FE020031
:10A97400B6080300DF0803001F09030046090300AB
:10A984006109030095090300B3090300D209030018
:10A99400EC090300070A03001F0A0300022807B595
:10A9A4000ED1094B09480A49C01AC008000440F0F6
:10A9B40003000190FCF7B6F806490198FCF7B2F8D9
:10A9C400012003B05DF804FB34FE020084FE0200A3
:10A9D400320A03005F0A0300032807D14FF08043C3
:10A9E400A922C3F820250020FEF724BB70470000ED
:10A9F40008B50548032100F035FD18B1BDE808404D
:10AA0400FCF716BA08BD00BF2835002003883B2B8D
:10AA140013B5044600F086800ED8212B64D005D8E7
:10AA2400102B33D0112B1BD002B010BD222B73D0AE
:10AA3400242BF9D1594870E0533B9AB2042AF3D835
:10AA4400042BF1D801A252F823F000BF5DAB020041
:10AA54002DAA020041AB020029AB020051AB020057
:10AA64004F4B50485049C01AC008000440F003003E
:10AA7400FCF758F84D4B4FF6FF721A804C4B0022EE
:10AA84001A7002B0BDE81040FFF7B2BF444B45480E
:10AA94004849C01AC008000440F00300FCF742F81B
:10AAA400454BA188454801221A70404B198002F099
:10AAB4003BF808B1FCF7BCF9414BA068A189A27B23
:10AAC400186099809A713F4BA0881B88ADF80430B8
:10AAD40001A9FFF7AFFE08B1FCF7AAF9FEF7A8FA3F
:10AAE400334B01221A709FE72D4B2E483649C01A6A
:10AAF400C008000440F00400FCF714F80023A08808
:10AB04008DF8043001A98DF80530FFF793FE08B1E4
:10AB1400FCF78EF9284BE4E72C4800F0EEFA264BBC
:10AB24000022DFE7A0881321FFF782FE00283FF40C
:10AB34007BAF02B0BDE81040FCF77AB91E4BA08889
:10AB44000122C8211A70FFF779FEEFE7204802B00E
:10AB5400BDE8104000F0D1BA1E4AE388B2F84420A0
:10AB64009A4201D11C48F2E71C4AB2F86411994296
:10AB740001D11B48EBE7B2F8AC11994201D1194855
:10AB8400E5E7B2F88C10994201D11748DFE7B2F833
:10AB940044209A427FF448AF1448D8E79F0B03003F
:10ABA40034FE020084FE02008E0A0300042A002000
:10ABB40014350020A80A030027350020943700200C
:10ABC40020350020990D0300BF0A0300D30A0300B7
:10ABD400EF0A0300A0370020010B030038380020DF
:10ABE4001E0B0300450B0300620B0300820B0300E2
:10ABF40008B5FCF773FB08B1FCF71AF9054A0648D7
:10AC04000121FCF79BFB18B1BDE80840FCF710B923
:10AC140008BD00BF71AE0200B80D030008B50548B9
:10AC2400002101F0F3FD18B1BDE80840FCF700B9BC
:10AC340008BD00BF8037002008B5064800224FF445
:10AC4400C031FCF78DFB18B1BDE80840FCF7F0B843
:10AC540008BD00BFF039002007B502F02BFD08B194
:10AC6400FCF7E6F831238DF8003007238DF8013026
:10AC740010238DF80230684603238DF803308DF8D5
:10AC8400043002F0B1FD08B1FCF7D2F8044802F038
:10AC940093FD08B1FCF7CCF803B05DF804FB00BFEA
:10ACA40049A8020008B54FF400410020FBF77EFDDF
:10ACB40008B1FCF7BDF8BDE80840FBF79FBC08B538
:10ACC400FEF7A0F918B1BDE80840FCF7B1B808BD1B
:10ACD4001FB5154B1A884FF6FF739A4221D0134BB8
:10ACE4001B78C3B9124A039101241480114C0292B7
:10ACF400B4F84440ADF80040694602248DF802409F
:10AD0400ADF80430FFF798FD112802D10A4800F08D
:10AD1400F4F904B010BD094804B0BDE8104000F0D7
:10AD2400ECB90748F8E700BF042A002027350020C3
:10AD34001E35002038380020AB0B0300C90B03007C
:10AD4400F20B030030B51B4B1A884FF6FF739A427F
:10AD540085B005460C462BD00B78174A49781370FA
:10AD64005170164803EB012100F0AAF9144B1B782B
:10AD7400C3B91448144AB0F8AC01ADF8000002217C
:10AD840011808DF80210284669460292ADF804300D
:10AD94000394FFF751FD112802D10C4800F0ADF9DE
:10ADA40005B030BD0A4805B0BDE8304000F0A5B993
:10ADB4000848F8E7042A002019350020120C030083
:10ADC40027350020383800201E350020270C0300CA
:10ADD400540C03008C0C030030B51B4B1A884FF63F
:10ADE400FF739A4285B005460C462BD00B78174A60
:10ADF400497813705170164803EB012100F060F993
:10AE0400144B1B78C3B91448144AB0F84400ADF885
:10AE14000000022111808DF8021028466946029232
:10AE2400ADF804300394FFF707FD112802D10C4854
:10AE340000F063F905B030BD0A4805B0BDE8304004
:10AE440000F05BB90848F8E7042A00201B3500200D
:10AE5400BB0C030027350020A03700201E3500203E
:10AE6400D00C0300020D03003F0D030070B51D4814
:10AE74001D4CFFF7E5FC1B4B1C481968890805238A
:10AE840001EBC101B1FBF3F12031C9B24FF0A04392
:10AE94002170D3F8103500231A4600F011F9144B31
:10AEA4001B78012B1DD1134D21462888124CFFF726
:10AEB4000FFFC82644F001044FF47A40A047013E36
:10AEC400FAD10E492888FFF73DFFC8264FF47A408F
:10AED400A047013EFAD128880949BDE87040FFF730
:10AEE4007BBF70BD103A0020143A0020730D03009C
:10AEF40014350020042A0020B00D0300153500206D
:10AF0400173500200369C26893429CBF80681B18F0
:10AF1400013B981A70472DE9F843D0E9029405469D
:10AF2400A9EB04084068904520440F46144404D912
:10AF340004F05BFBEC60BDE8F8834246A4EB090433
:10AF440004F053FB6868224607EB0801F0E72DE99B
:10AF5400F843C5680646894617464FF00008346929
:10AF6400B3687068A54228BFE418013C621B5C1BEF
:10AF7400BC4228BF3C46944228BF14464946284454
:10AF8400224604F032FBB3682544AB4208BF0025D7
:10AF94003F1BA044A144F560E1D14046BDE8F883DD
:10AFA40010B5114C1149A1610223C4E90433A16411
:10AFB4000F4B1049E361E1644FF400631021012257
:10AFC4002362216500230C49A362E01D6362A3652B
:10AFD4006365E262E26504F064FB0849204604F01C
:10AFE40060FB2023A37110BD183A0020BC0D0300A0
:10AFF400A03A0020903A0020C50D0300C90D0300BB
:10B0040070B5164B182400FB04451D4404FB0033A3
:10B014001646DC6A012C0ED0022C18D0E4B928465E
:10B02400FFF770FF864204D832462846FFF773FFC5
:10B034003446204670BD2846FFF764FF86423446F6
:10B0440028BF044622462846FFF765FFF1E7284655
:10B05400BDE87040FFF77BBF0024EAE7183A002000
:10B0640073B50E4B1B7804460D4616460BB9FFF715
:10B0740097FF00230DF107008DF80730FCF7D2F994
:10B08400324629462046FFF7BBFF04469DF80700D9
:10B09400FCF7ECF9204602B070BD00BF183A00205E
:10B0A40013B504460846019104F01DFB01990246BC
:10B0B400204602B0BDE81040FFF7D2BFFFF770BFD3
:10B0C4000FB410B5A2B024AB802153F8042B019324
:10B0D40002A804F07CFA802804460ADD802202A932
:10B0E4000020FFF7BDFF204622B0BDE8104004B0A9
:10B0F40070470028F7DD0246F1E701460020FFF71C
:10B10400CFBF00001B4B70B5014608254FF0FF3040
:10B1140000269A7C72B15A7CBAB1DA688A4205D99F
:10B12400521ADA60904228BF104603E01A7C5E741B
:10B134002AB99A74013D03F11403EAD170BDB0F544
:10B14400A02F28BF4FF4A020F4E71C7C0CB99C74FA
:10B15400F0E79A680A44B2F5A02F9A6024BFA2F5DA
:10B16400A0229A609A6824BF04F1FF341C74C2F5CB
:10B17400A022D7E7A042002010B5FFF7C3FF044682
:10B18400FCF746F90C4B1860631C14D00B4822469C
:10B194002146FCF7E5F870B1FDF7E0FF084B0949DB
:10B1A400024609481B1ADB081B04BDE8104043F0A3
:10B1B4000200FBF7BBBC10BD6043002040430020ED
:10B1C400CCFE0200D00D030034FE0200024A034804
:10B1D4000021FCF7B3B800BF7DB10200900E03005C
:10B1E4002DE9F04F85B00DF108084146054601F000
:10B1F40063F980B1FDF7B2FF544C554902465548F6
:10B20400241AE40824042B4644F00200FBF797FCBC
:10B2140005B0BDE8F08F5048FCF7EAF8064668B17F
:10B22400FDF79CFF494B4D4902464A481B1ADB086F
:10B234001B0443F00200FBF779FCE9E7484CFCF7F8
:10B24400E7F82168FCF7EAF8FFF75CFF0546FCF72E
:10B25400DFF82060434C01230827A1464FF47A6AA3
:10B26400B346A27C002A60D00622611C0DF10900BD
:10B27400019304F064F9019B08BB237CC4F808B073
:10B284000AFA03F2B2F57A4FBCBF0133DBB20AFA11
:10B2940003F04FF4004E4FF4FA7C5946C0FB0EC144
:10B2A40023744FF47A720023604604F04DF84FF093
:10B2B400010385426374E06028BF0546002301361C
:10B2C400082E04F11404CCD1002B3AD0082F2ED030
:10B2D400142398E803005F4309EB070349F80700C8
:10B2E4009980090C4FF4003299710021C3E90212CC
:10B2F4004FF48072B5F5003F1A824FF0010228BF67
:10B304004FF400359A7414482A462946FCF728F865
:10B3140000283FF47DAFFDF721FF0C4B1249024694
:10B324000C481B1ADB081B0483E73746C7E70748AA
:10B33400084B0E49C01AC008000440F00200FBF795
:10B34400F1FB6B1C3FF464AFDDE700BFCCFE0200F1
:10B35400EE0D030034FE0200404300203C0E0300C7
:10B3640060430020A0420020D00D0300590E0300CA
:10B3740037B56946054601F09FF8044680B1FDF7EC
:10B38400EDFE114C114902461148241AE408240424
:10B3940044F002002B46FBF7D2FB012003B030BD82
:10B3A4000C4DAB7C4BB10622691C0DF1010004F07D
:10B3B400C6F810B9687C0028F0D10134082C05F1D6
:10B3C4001405EED10020E9E7CCFE0200EE0D0300E7
:10B3D40034FE0200A042002070B5C0B14AB1168804
:10B3E4000024B44203D305196D789D4208D0A142CC
:10B3F40001D800200BE0055D01352C44A4B2F0E730
:10B40400A142F6D9A31C1380005D013880B270BD3F
:10B4140013B513460022ADF806200DF106020446CA
:10B42400FFF7DAFF10B1BDF80630E01802B010BD26
:10B4340072DF704773DF704738B5012204460D464A
:10B44400B0F83812D0F83402FFF7E2FF00B105700B
:10B4540004F13C0204F50D7104F15400BDE83840D8
:10B46400FFF7E6BFF8B5067804460D46002E00F057
:10B4740003810023C0F84A32C0F84D32C38881707A
:10B4840000F24A270BB1012903D0E37943B1022D1D
:10B4940006D1636BA3B1012284F851220820984796
:10B4A40004F24B2204F2512112F8013B5BB99142A0
:10B4B400FAD16A1E032A4FD8DFE802F0070D1114EF
:10B4C40084F85132ECE73346F3E7A2791AB194F8E1
:10B4D400242002B95BB9E2790AB1002B3ED1237A68
:10B4E400002B3DD1637A002B0CBF00250425636B30
:10B4F400A570002B36D0033D012D33D862798AB371
:10B5040094F8522272BB84F85422012284F8532204
:10B514000720984704F13C0518220021284604F02E
:10B524008DF8E26A0123511E994284F83C3098BF99
:10B53400D3B284F8513094F8243088BF00261BB16C
:10B54400A6B1A26A84F85220A278042A1ED8DFE8A1
:10B5540002F07A0F25385C000025C8E70225C6E70B
:10B564000325C4E7002384F85332D3E70122E9E733
:10B57400012384F831300023C4E91073C4F8443241
:10B58400022384F83C308023A4F84830A378002BAD
:10B594005DD1636B002B6BD1002068E0002B14BFDE
:10B5A4000723032384F83C302369A4F8483000239C
:10B5B4000222C4F84432E36884F8312027646364C7
:10B5C400E4E762696264A269A4F8482013B106231F
:10B5D40084F83C306379B3B194F852329BB994F84F
:10B5E400543283B1022384F8503004212046FFF7FB
:10B5F40023FF0028CAD1052384F8313004F50D73E4
:10B60400C4F84432C2E70323F6E7E2696264226ABB
:10B61400A4F8482013B1062384F83C30637983B13D
:10B6240094F852326BB994F8543253B1022384F82B
:10B63400503004212046FFF7FFFE0028A6D1062340
:10B64400DAE70423D8E7002384F831309EE7D4F8FE
:10B6540044122A4604F15400FFF7EAFE38B994F87C
:10B66400301094F85400FFF7E5FE002891D0F8BD9F
:10B6740094F8310098478FE70820F8E70388112BE6
:10B6840010B50C460AD0262B1FD0102B05D1C37B36
:10B69400012B02D18388A1F8483210BD002283888F
:10B6A40081F85222B1F848229A42F6D10B79002B44
:10B6B400F3D101212046FFF7D5FE0028EDD0A36B7E
:10B6C400002BEAD0BDE810401847037A013B012B58
:10B6D400E3D8897805230131B1FBF3F303EB83034A
:10B6E400C91AC9B2E6E77047034B1A8882420CBFF5
:10B6F40018460020704700BF80430020024B9B691E
:10B7040003B11847704700BF6443002037B50B46A8
:10B71400497A0F4A79B9D2E901141D7A0246002DFB
:10B7240018BF21465868FBF71BFE78B103B0BDE88B
:10B734003040FFF7E3BF00211972536933B101228E
:10B74400ADF806008DF8042001A8984703B030BD79
:10B75400644300204B8802889A4212D842889A4255
:10B764000FD380888B8840F2F311884294BF021A69
:10B77400421A9A4205D80844984234BF0020012056
:10B7840070470020704700000388122B70B50146F3
:10B7940059D004D8102B1ED0112B44D070BD502B7F
:10B7A400FCD12F4BC288DB899A42F7D1038A022B42
:10B7B400F4D186883046FFF797FF05460028EDD080
:10B7C40001F1120000F09EF938BB6868FBF710FE27
:10B7D4000028E3D009E0C37B012BDFD14FF6FF70D3
:10B7E400FFF782FF054620B90420BDE87040FFF74B
:10B7F40085BF1C4A8E880680002303721368C0F834
:10B804000A305368C0F80E3010310A30FFF7A2FF37
:10B81400134B6872DB89002BC0D129463046BDE842
:10B824007040FFF773BF8088FFF75EFF044600286F
:10B83400B4D04068FBF7DCFD08B1FFF75FFF4FF6BB
:10B84400FF732380AAE786883046FFF74DFF05463D
:10B854000028A3D008310A30FFF77CFF6872DCE7C8
:10B864006443002094430020F7B5174601900E4628
:10B8740091B1019C6CB100252C46294601A8FCF726
:10B884008FFD18B13946A8B2B04701340135142DE3
:10B89400F3D1204603B0F0BD0C46FAE773B501912D
:10B8A400019C06466CB100252C46294601A8FCF7EC
:10B8B40077FD18B106EB440301349D800135142D46
:10B8C400F3D13046346002B070BD00002DE9F0477A
:10B8D40003888488112B8CB005463DD01A2B42D0A6
:10B8E400102B19D1DFF8C080D8F80830DB4300935F
:10B8F400D8F804106846FCF7B8FD009901A8FFF7D2
:10B90400CDFF0DF108090027019B9F4207D3132C9B
:10B9140012D90420FBF78CFA0CB0BDE8F08739F893
:10B9240002AB00260136514608EB8600FCF72EFDDB
:10B934001D2EF7D10137E7E716482146FCF70FFD26
:10B9440015482146FCF70BFDEB7B012BE4D0134893
:10B954002146FCF704FDDFE70E4821460CB0BDE8A4
:10B96400F047FCF713BD037A0D481F2B4FEA13155C
:10B9740021460AD9FCF7F3FC022D0A482146EDD0F2
:10B984000CB0BDE8F047FCF7EABCFCF7FFFC054847
:10B994002146E3E7A4430020A0430020A84300205D
:10B9A400AC430020B04300209C43002013280146F0
:10B9B40002D80248FCF7F4BC00207047A0430020E2
:10B9C40007B50190FFF7F2FF019930B10448FCF785
:10B9D400E7FC002814BF0220012003B05DF804FB3B
:10B9E400A843002007B50190FFF7E0FF019930B1AB
:10B9F4000448FCF7D5FC002814BF0220012003B042
:10BA04005DF804FBA443002007B50190FFF7CEFFC7
:10BA1400019928B1044803B05DF804EBFCF7C0BCFD
:10BA240003B05DF804FB00BFAC43002007B50190F0
:10BA3400FFF7BCFF019928B1044803B05DF804EB9B
:10BA4400FCF7AEBC03B05DF804FB00BFB0430020BC
:10BA540008B518210248FCF7ACFCC0B208BD00BF11
:10BA64009C43002070B50A4E054630460C46FCF750
:10BA740097FC58B12846FFF799FF38B10634294698
:10BA840006EB8400BDE87040FCF78ABC002070BD62
:10BA94009C430020F8B50D4C054620460E4617463B
:10BAA400FCF77EFC80B12846FFF780FF60B1B01D33
:10BAB40004EB800029461FB1BDE8F840FCF74FBCF9
:10BAC400BDE8F840FCF762BCF8BD00BF9C43002011
