:020000022000DC
:10600000000001205D630200456302004763020057
:10601000496302004B6302004D6302000000000070
:106020000000000000000000000000004F630200BC
:106030005163020000000000536302005563020038
:10604000A1820200576302004D86020057630200DE
:106050005763020057630200D584020057630200B1
:106060005763020057630200576302005763020040
:106070005763020057630200576302005763020030
:1060800057630200C57002005763020057630200A5
:10609000617102005763020029A3020057630200E6
:1060A0005763020057630200576302005763020000
:1060B0005763020057630200000000000000000068
:1060C00057630200576302005763020057630200E0
:1060D000576302005763020057630200000000008C
:1060E00000000000000000000000000000000000B0
:1060F00000000000000000000000000000000000A0
:10610000000000000000000000000000000000008F
:10611000000000000000000000000000000000007F
:10612000000000000000000000000000000000006F
:10613000000000000000000000000000000000005F
:10614000000000000000000000000000000000004F
:10615000000000000000000000000000000000003F
:10616000000000000000000000000000000000002F
:10617000000000000000000000000000000000001F
:10618000000000000000000000000000000000000F
:1061900000000000000000000000000000000000FF
:1061A00000000000000000000000000000000000EF
:1061B00000000000000000000000000000000000DF
:1061C00000000000000000000000000000000000CF
:1061D00000000000000000000000000000000000BF
:1061E00000000000000000000000000000000000AF
:1061F000000000000000000000000000000000009F
:10620000314932480A1A02D0072291438D4630495B
:1062100030480A1A06D00722914381F309880222E6
:1062200082F314882C482D492D4A00F03CF82D4863
:106230002D492E4A00F037F82D482E492E4A00F0FD
:1062400032F82E482E492F4A00F02DF82E482F49BB
:106250002F4A00F028F82F482F49304A00F023F841
:106260002F483049304A00F01EF8304830490022AB
:1062700000F024F82F483049002200F01FF82F4A80
:1062800090471F481F49884205D00268043003B474
:10629000904703BCF7E700208646EC46002000212B
:1062A000274A9047FEE7884207D0521A05D0037864
:1062B00001300B700131013AF9D17047884202D0A8
:1062C00002700130FAE770470000012000E0002072
:1062D000000001200000012028BF0200701D0020E6
:1062E00078200020BC630200BC63020018AF0200EB
:1062F00028BF0200701D0020701D00200CB002009D
:106300000CB002000CB002000CB002000CB0020095
:106310000CB002000CB002000CB0020027BF02005B
:1063200030C2020078200020782000207820002051
:10633000183000201830002018300020856302003B
:10634000E1910200FEE7FEE7FEE7FEE7FEE7FEE77B
:10635000FEE7FEE7FEE7FEE7704700BF1048804714
:1063600010484FF00701884385460F4880470F4883
:10637000016841F470010160BFF34F8FBFF36F8F6D
:10638000FFF73EBF0A480B490B4A884207D0521A12
:1063900005D0037801300B700131013AF9D1704713
:1063A0005963020000000120517D020088ED00E0E9
:0C63B0000CB00200701D0020701D0020C9
:1063BC00F0B595B01D46164608460C4601F00EFC8D
:1063CC001A9B0D93CDE9086500252B46082205A9DB
:1063DC0020460A958DF82C500C9501F01BFC079B60
:1063EC000293069B03939DF814308DF8115003F023
:1063FC000302012A1DD1BDF81420059DC3F3C2036D
:10640C00C2F383168DF81030B20008230EA9204673
:10641C0001F000FCC5F3952508AB0093324602ABA6
:10642C000EA9284600F0D6FB204601F0DBFB15B088
:10643C00F0BD022AF8D1BDF81650C3F3C203C5F360
:10644C0089158DF810300827082D2E4628BF0826F0
:10645C003B4632460EA9204601F0DCFBAD1B08ABD7
:10646C0002AA31460EA8374400F018FC002DEBD1DF
:10647C00DAE70000014B01221A707047B9200020A6
:10648C007047000070B50E4D06460FCD88B06C46B7
:10649C000FC495E80F00002E84E80F00094A0A4843
:1064AC004FF0060308BF00226946009301F080FEFE
:1064BC0008B100F055FD054B1E7008B070BD00BF53
:1064CC000CB0020081640200701D002078200020B6
:1064DC0007B5044B0093044A4023FFF769FF03B050
:1064EC005DF804FBF96402007920002038B50D48F2
:1064FC000D4C0E4D002323700378EB5CD2B263B1CC
:10650C00043002F0EBFC08B100F02AFD084B1A78BD
:10651C0012B12378002BFBD038BD0C3002F0CEFA30
:10652C00F1E700BF701D0020B9200020E0270020FB
:10653C007820002008B50848084A0378D35C3BB1A2
:10654C00043002F05DFCBDE808400020FFF79ABF64
:10655C000C3002F045FAF6E7701D0020E027002011
:10656C000120FFF78FBF000008B5FFF7F9FF0448C3
:10657C00042100F099FA034B01225A7108BD00BFA7
:10658C00FCAF0200841D0020037813F0040216D027
:10659C0003F00303012B03D0022B09D00120704719
:1065AC000A6800880232C0F3831002440A60F5E7DF
:1065BC000B684288023303EB92130B60EEE7104634
:1065CC00704700002DE9F04FDFF830A187B00F467F
:1065DC0000230446861C0DF1070015468DF8073084
:1065EC0000F0AEFFDAF800103960DAE9013213443A
:1065FC0001335B1A0AF21C470AF583690AF2144844
:10660C00B3421CD30020002D73D004F00F039B0168
:10661C0043F0050363F30F00DAF80020DAF80830D2
:10662C001340033332444AF823009DF80700CAF89C
:10663C00002000F0A9FF012007B0BDE8F08F012178
:10664C00384601F002F8484601F017F8404601F0D0
:10665C0014F8DAF80400DAF808B0029000EA0B003B
:10666C0003300AEB800002A9FFF78EFF029B50BBA0
:10667C000BEA03020AEB820203F1020CD2680392CA
:10668C00013303EA0B0B0AEB8B0B02F00302012A1A
:10669C00DBF80C10CDF808C023D0022A16D08346A4
:1066AC00404600F0EDFF10B1029BCAF80430594689
:1066BC00384600F0CAFFDAE901231344DAF8002067
:1066CC0001339B1A9CE70BEA0300C9E7BDF80E30B7
:1066DC00C3F3891303334FEA114B0CEB930302936F
:1066EC00DEE7BDF80C30C3F383134FEA114B634460
:1066FC00F5E7A40544F006008EE700BF8C210020CE
:10670C000B4B0C48FF2210B59A600022C3F81824DA
:10671C00C3E90022C3F8142483F8202401F017FAEB
:10672C00044610B9044801F095FA204610BD00BF8C
:10673C008C210020D0AF020060B0020030B50A4CB2
:10674C0071B10A4A0A49121BD20800239A4201D19C
:10675C00002030BD31F82350854202D00133F5E7DB
:10676C00034654F83300F4E758AF0200D0AF0200F0
:10677C00701D0020094B013903EBC000032909D817
:10678C00DFE801F00A020406042070470079704724
:10679C0040797047002070470220704758AF0200C4
:1067AC00034BD3E90030C31A58425841704700BF1D
:1067BC008C2100202DE9F04387B0FFF7F1FF06464E
:1067CC00002840F0FE80804CC4F81804BFF34F8FB3
:1067DC006368A56802932B40033304EB830002A982
:1067EC00FFF7D2FE029B18B1D4F81824002A62D00D
:1067FC0005EA0302991C013304EB82022B4004EBE3
:10680C008303D268DB68049302F00303022B039228
:10681C00029163D1BDF80E306C48C3F38917502F29
:10682C00B84628BF4FF0500808F1080168F38F13E1
:10683C00C1F30901ADF80E3001F0A1F906460028AC
:10684C0000F0AA8001F0CAF90023082203A93046FF
:10685C0001F0D6F9029925EA01020132B8EB820F58
:10686C004FEA820333D95FFA88F863B32940DDB26B
:10687C00A8EB050803315FFA88F9A846544D04EBE0
:10688C00810108234246304601F0BAF93DB108F1C6
:10689C000803DBB24A462946304601F0B1F9029BA7
:1068AC00033703EB97070297D4F81834002B4BD11E
:1068BC00D4F810545BE022689A428CD8626030465F
:1068CC0007B0BDE8F08342491D469946D9E72940F7
:1068DC0003310823424604EB8101DDE7012B5BD138
:1068EC00BDF80C303948C3F38311062928BF0621A3
:1068FC0061F38913023101F00F018900ADF80C30FE
:10690C0001F03DF90646002846D001F067F9002356
:10691C00082203A9304601F073F90027BDF80C20BA
:10692C00C2F38312BB00974203F10803BCD2029955
:10693C004A1C29400331029204EB810104223046A7
:10694C0001F05EF90137E9E7304601F04BF9FFF74A
:10695C0027FF80F00100C6B2B1E7EB685B7923B189
:10696C002B6831461B6828469847EB681D68002D3C
:10697C00F3D1304601F036F90DF107008DF80750D0
:10698C0000F0DEFDD4F818340BB9029B63609DF85F
:10699C00070000F0F9FDDAE7D4F8104454B90D4BB8
:1069AC000D480E49C01AC008000440F0020000F067
:1069BC0063F8CCE7236820469B689847E3681C681B
:1069CC00ECE700267BE700BF8C210020D0AF020053
:1069DC009821002058AF020080AF020049B002009D
:1069EC002DE9F74F224E04460F46924601A901228B
:1069FC001846D6F808909B46FFF7E4FD20B3019D9E
:106A0C004FF00008AA1CD84508EB020126D1194802
:106A1C00002100F0EBFD80F31000000440EA14406C
:106A2C00E4006B1C04F0380403EA090305EA0905C9
:106A3C0044F0010406EB8303033544EA881444EA6A
:106A4C008724D86046F8254096F820341BB1FFF710
:106A5C00B1FE0028FBD103B0BDE8F08F09EA0101BB
:106A6C0006EB81015AF82830CB6008F10108CAE71F
:106A7C008C210020A825002000231A46FFF7B0BF68
:106A8C0007B50123019201AAFFF7AAFF03B05DF835
:106A9C0004FB07B5CDE9002302236A46FFF7A0FFEC
:106AAC0003B05DF804FB000030B50F4CD4F8102493
:106ABC0003460020114631B9D96808714AB9C4F8A7
:106ACC0010340A6030BDC9680D79854206D009685A
:106ADC00F1E7D26814680C601360F3E701300A2800
:106AEC00E8D14FF0FF30EDE78C21002038B5084B92
:106AFC000125D3F8104483F8205404B938BDE36859
:106B0C005D71236820465B689847E3681C68F4E76E
:106B1C008C21002030B5C38885B004460D4633B1B6
:106B2C00144A00921449154A284600F00CFE217AAA
:106B3C0005291DD0637A4BB1A088FFF71BFE104BC3
:106B4C00104953F82020284600F0FDFD227A0E4B08
:106B5C00A08853F8222003920021FFF7EFFD039A3F
:106B6C000A490346284605B0BDE8304000F0EBBDAD
:106B7C0005B030BD8CB0020074B002006CB00200E5
:106B8C00F8B0020091B002001CB1020094B00200F7
:106B9C0007B503460846197A052911D05B7A2BB143
:106BAC00094A0A49019000F0CEFD0198084901906C
:106BBC0000F0C9FD019803B05DF804EB00F0B8BD1E
:106BCC00002AF8D0F2E700BF8CB0020091B00200AE
:106BDC0089B002002DE9F04385B01F460C9D0023BF
:106BEC0095F80C902B7306460C4690462946384671
:106BFC00FFF790FFB8F1060F09D8DFE808F0041290
:106C0C00181F283340003146284600F09CFD002216
:106C1C0029463846FFF7BCFF85F80C9005B0BDE857
:106C2C00F08322683146284600F08DFDEFE7D4E969
:106C3C0000233146284600F086FDE8E7A368009360
:106C4C003146D4E90023284600F07DFDDFE7E368F8
:106C5C000193A36800933146D4E90023284600F041
:106C6C0072FDD4E723690293E3680193A368009350
:106C7C003146D4E90023284600F065FDC7E7636977
:106C8C00039323690293E3680193A368009331464D
:106C9C00D4E90023284600F056FDB8E708292DE971
:106CAC00F74F80460E4617461C4639D8002593F8F8
:106CBC000C901D7319461046FFF72CFFDFF880A0CF
:106CCC00DFF880B0AE422ED918F805205946204680
:106CDC0000F039FD0135082DF4D11849DFF868A012
:106CEC00DFF868B0204600F02EFD0025AE421FD91B
:106CFC0018F805200192104603F0E2FC0028019AD6
:106D0C00594608BF2E22204600F01DFD0135082DE6
:106D1C00ECD1012221463846FFF73AFF84F80C905B
:106D2C0003B0BDE8F08F5146204600F00CFDD1E7D2
:106D3C005146204600F007FDE8E700BFA8B002006E
:106D4C00A4B002009EB00200A6B00200AAB00200DD
:106D5C002DE9F84F2F4F304E4FF000082F4B1B787A
:106D6C005FFA88F5AB4201D8BDE8F88FD7F80090F0
:106D7C0019F835000124A0F12002C0F1200304FA17
:106D8C0002F224FA03F31343D6E9001204FA00FCCE
:106D9C0001EA0C0B02EA030E5BEA0E0E09EBC50AC4
:106DAC0035D021EA0C0122EA0303C6E9001301F0F5
:106DBC0081FB024619F83500194DA0F12003C0F1F2
:106DCC00200124FA01F104FA03F30B43D5E900C1C5
:106DDC00C0F120050B40A0F1200122FA05F58440FA
:106DEC0002FA01F1294304EA0C0402FA00F58B4281
:106DFC0008BFAC420BD1DAF8043043B19AF8011059
:106E0C004C1E614261418D1A69426941984708F1F3
:106E1C000108A3E7802600207826002048260020C1
:106E2C0070260020F8B507461E4800F079FBB8BB69
:106E3C0001251D4EA7F12004C7F1200325FA03F309
:106E4C0005FA04F41C43D6E90023BD4002EA050010
:106E5C0003EA040101431DD1384601F02BFB134B0F
:106E6C00D3E9001288B129432243C3E90012D6E9C1
:106E7C0000232A432343C6E900230D4B0948196814
:106E8C000022BDE8F84000F003BB21EA050122EA2C
:106E9C000402EAE722EA050223EA0403C6E9002316
:106EAC00F8BD00BF50260020782600207026002058
:106EBC004C260020042A2DE9F34105460C461646C3
:106ECC003BD901F075FAE8B11D4B1E491D601E4BF4
:106EDC00DFF888801C701D4B00221E600023C1E966
:106EEC0000231B49C1E90023013CE4B2002603271F
:106EFC00FF2C0ED1174A1848002102B0BDE8F04112
:106F0C0000F0B4BA01F022FA0028DDD002B0BDE8DE
:106F1C00F08105EBC40315F834009B788DF80660FE
:106F2C00424601A98DF804708DF8053001F04AFA3B
:106F3C00013CE4B20028DBD0E8E70720E6E700BF1D
:106F4C008026002070260020482600204C26002099
:106F5C00782600205D6D020030B10200316E020017
:106F6C001FB50021039001AA44F20100CDE90111E3
:106F7C0000F004F805B05DF804FB000038B572B6FB
:106F8C00FFF7B4FDFFF716FC0028FBD1104B114C9A
:106F9C00114D1249E41AE408240444F00100FFF7EF
:106FAC006BFDD5F8F030DB0700D500BE0C4944F082
:106FBC000200FFF761FDBFF34F8FEA68094B02F443
:106FCC00E0621343EB60BFF34F8F00BFFDE700BFE0
:106FDC0058AF020080AF020000ED00E034B10200B7
:106FEC0040B102000400FA05094B5A789978013235
:106FFC00D2B2914208BF0022197891421FBF027091
:10700C005878182202FB003014BF0430002070475F
:10701C008426002073B5054600240DF107000E46AA
:10702C008DF8074000F08CFA0DF10600FFF7DCFF3D
:10703C0090B10670094B9DF8062045605A709DF87A
:10704C00070000F0A1FA24B9054B4FF48012C3F8E5
:10705C000021204602B070BD0424F0E784260020F5
:10706C0000E100E0024B4FF43C6043F00103184791
:10707C0050B1020038B50C4B0C4C4FF40032C3F835
:10708C00802001254FF48033C4F84833C4F808330A
:10709C006560FFF7E7FF064BA56000241C60FFF757
:1070AC00E1FF044B1C7038BD00E100E00010014012
:1070BC00A027002091270020F8B51F4B1F491B6803
:1070CC000025C1F84051C1F84451C1F84851C1F8EC
:1070DC004C51C1F80051C1F804514BB3D1F80445DF
:1070EC0017490968641A24F07F442F461A68A24293
:1070FC0009D8A41A15441A7CDE691AB1D3E9052003
:10710C001F749047AEB90F4A0F4B11781B788B4206
:10711C0005D10133DBB2022B08BF002313701278A8
:10712C000A4B43F822500A4B4FF48012C3F800214B
:10713C00F8BD3346DAE700BFA42700200010014059
:10714C00A02700209D2700209C27002094270020AA
:10715C0000E100E02DE9F04FA14AA249137809782B
:10716C00A14D994285B03CD00133DBB2022B08BF54
:10717C00002313709D4912789D4B0F6853F8220021
:10718C003B1823F07F4300220B602B6816461446F5
:10719C00944613B942B12B6006E0196881420ED9AE
:1071AC0002B12B60091A196001272B68DFF848A27D
:1071BC0001934FF00008BEB9DFF844B260E0401A0A
:1071CC000C44D968D3F81CE0C3F800C031B13A19AB
:1071DC0022F07F42C3E90121DE611E467346012283
:1071EC00D7E700263746E0E73446F6697F4B606800
:1071FC001B68DFF810C2A168C21A22F07F426245F8
:10720C0000F2A6800A442260012222742A6800231C
:10721C00C4E90133E361002A40F0A3802C60CAE783
:10722C009BF802105A1CD2B291428BF8002004BF7A
:10723C0000228BF80020182202FB03B32A6819796C
:10724C009C68022975D003297FD0012918D1207C94
:10725C00B0B9D3E90312A2605A69E2609A69654B2E
:10726C00A2611A78002A18BF01466160BEE78C4201
:10727C0000F094808946C9690029F8D10023237451
:10728C009BF800309BF801209A42C9D12B68B8F1C9
:10729C00000F04D1019A9A4201D1002F43D0002B48
:1072AC0079D0D3F800A0544D504BD5F804751C6818
:1072BC00DFF854813E1B98F8003026F07F460336E9
:1072CC009BB94FF48033C5F84433C5F804334B4BAA
:1072DC004FF400324FF00109C3F880211A60C5F851
:1072EC000090FFF7BFFE88F80090B2452CBF5444C5
:1072FC00A41924F07F44C5F84045D5F80435DB1BB0
:10730C0023F07F43E41B033324F07F44A3420AD9C8
:10731C00D5F80435C5F84035FFF7A4FE374B4FF4CC
:10732C000032C3F80021334B00221A7005B0BDE8BF
:10733C00F08F114691469FE71174D2690123002A00
:10734C00FAD1002B9CD02A609AE700231946F6E765
:10735C001B1A23F07F438B4234BFCB1A00232360CC
:10736C0052E721681368994213D85B1A1360E261E3
:10737C0054E7091AD8691A4638B103461868884286
:10738C00F7D3401A1860184613462160E061DC619F
:10739C0011E71346F2E7FFF76DFEC4E74C4511D138
:1073AC00D3692B6073B9DFF844E00120CDE90212F8
:1073BC00CAF80800CEF800300E4B1870FFF752FEDA
:1073CC00DDE902120B68C969C9F81C1011B1086813
:1073DC0003440B602B68934218BF4FF001084DE734
:1073EC009C2700209D270020A4270020A0270020F8
:1073FC0094270020902700200010014000E100E0BD
:10740C0084260020FEFF7F009127002008B5FFF79F
:10741C0031FE104B00200B2218809A700E4B186016
:10742C000E4B18700E4B18700E4B4FF48012C0217F
:10743C00C3F8802183F814131A6002F18042A2F57C
:10744C006F22C2F8080583F81113074BD2F80425F4
:10745C001A6008BD84260020A42700209C27002049
:10746C009D27002000E100E0A0270020074B9B781F
:10747C004BB132B128B10368187C20B959745A61E8
:10748C007047072070470820704700BF84260020F3
:10749C002DE9F743DFF8848098F8023005460E4654
:1074AC001746ABB3A0B3042930D9436983B3437CEB
:1074BC000024012B0DF107000CBF8946A1468DF865
:1074CC00074000F03DF80DF10600FFF78DFDD8B137
:1074DC00012303700F4B4560D3F80435C0E90497C2
:1074EC00C0E902369DF8063088F801309DF8070097
:1074FC0000F04AF824B9084B4FF48012C3F800216D
:10750C00204603B0BDE8F0830424EFE70724F7E737
:10751C000824F5E70010014000E100E0842600207B
:10752C00064A92783AB130B1426922B10022027413
:10753C000221FFF76FBD0820704700BF8426002092
:10754C0070B5EFF3108672B60C4A946801239CB99F
:10755C0093600B4B0B4DD3F8801029401160C3F88E
:10756C008050D3F8841051604FF0FF32C3F8842060
:10757C00047006B962B670BD0370FAE7A827002044
:10758C0000E100E0FC06FFBD084B9A6810B55AB14B
:10759C0050B9EFF3108172B6054A1C6814605C6830
:1075AC005460986001B962B610BD00BFA8270020D6
:1075BC0000E100E001F01F024B090121914000EBBA
:1075CC00830000F01EB801F01F0301229A404B0902
:1075DC0000EB8300D14300F02CB84B0901F01F01E4
:1075EC0050F82300C84000F00100704710B5034666
:1075FC0053E8000F0A4643E8002494F0000FF7D13B
:10760C0010BD10B5034653E8002F42EA010043E8D1
:10761C00000494F0000FF6D110BD10B5034653E8EA
:10762C00000F00EA010243E8002494F0000FF6D1A9
:10763C0010BD10B5034653E8002F02EA010043E8E1
:10764C00000494F0000FF6D110BD10B5034653E8BA
:10765C00002F02EB010043E8000494F0000FF6D178
:10766C0010BD10B5034653E8002FA2EB010043E810
:10767C00000494F0000FF6D110BD0121FFF7C1BF3B
:10768C000021FFF7CABF10B590B1D0E90123016802
:10769C009B1ADBB20A60013BDBB2FF2B026802D102
:1076AC000020107110BD11684C1C14600B70F2E7B7
:1076BC000E20F7E737B5054600240DF107008DF8CD
:1076CC000740FFF73DFF2A686B68116899420ED995
:1076DC00481E106011F8013CEC68298A01FB034438
:1076EC00AB6811791B1ADBB2994238BF13719DF844
:1076FC000700FFF749FF204603B030BD37B50546FC
:10770C0000230DF107000C468DF80730FFF718FF2A
:10771C002A681368591C1160E968641A298AB4FB39
:10772C00F1F41C709DF80700FFF72EFF03B030BD7D
:10773C00826810B504462AB143690168006998470C
:10774C000023A36010BD0EB403B5039921B104ABA3
:10775C0001AA019300F06EF802B05DF804EB03B0DF
:10776C007047826830B40468551C8560A154D0E918
:10777C0001329A4202D330BCFFF7DABF30BC7047FB
:10778C002DE9F84F9846DDE90A43154682460F4627
:10779C000A464FF00109AA420FD2C14538BFC14673
:1077AC0013F0010B01D16CB900240126B8F1010FC3
:1077BC001BD908F1FF386E43F8E709F10109B2FB58
:1077CC00F5F2E8E79B070ED5B8F1000F0CBF302699
:1077DC002026A145E9D2013C31465046FFF7C1FFB6
:1077EC00002CF6D1E0E72026F3E7B7FBF6F39D4239
:1077FC00E1D9DFF83C80B7FBF6F3504618F80310DC
:10780C0006FB1377FFF7ADFF3346AB42B6FBF5F63D
:10781C00F1D2BBF1000F02D00CB1A14501D3BDE8F0
:10782C00F88F20215046013CFFF79BFFF4E700BF87
:10783C0056B102002DE9F74F054617468846002938
:10784C0000F03E8118F8011B49B92B7B002B00F08E
:10785C003781284603B0BDE8F04FFFF769BF2529F3
:10786C0040F0B780002698F800302D2B424608F1E6
:10787C00010823D0302B24D02B2B25D000242A2BED
:10788C0002F1010123D13B681A1D1B683A601C44AC
:10789C000A4613782E2B26D101324FF0000A1046DF
:1078AC0010F8011BA1F1300CBCF1090F1DD80A23F3
:1078BC0003FB0A13A3F1300A0246F0E746F0010677
:1078CC00D1E746F00206CEE746F00406CBE711F806
:1078DC00013CA3F130000928DBD80A2202FB043456
:1078EC00303C0A46CBE74FF0000A12F8011B01F0BE
:1078FC00FB0068289046F8D0782909D86F290CD855
:10790C00632962D022D8252963D0582900F08880B9
:10791C0098F80030002B95D197E770390829F7D8E3
:10792C0001A353F821F000BFA77A02001D790200D1
:10793C001D7902003D7A02001D7902001B7A0200BB
:10794C001D7902001D7902002D7A0200642901D0F4
:10795C006929DDD13A68D2F80090111D89EAE972E3
:10796C003960A2EBE9724FF0010B092A35DCD345E3
:10797C0038BFD3462CB1B9F1000F01DB720700D52B
:10798C00013CB30702D5BAF1000F03D0F00701D4C4
:10799C004CBB0024B9F1000F2DDAC9F100092D21DF
:1079AC002846FFF7DEFE06F00302022A04D1BAF1E4
:1079BC00000F01D11CBB0024CDE9004653460A221E
:1079CC0049462846FFF7DCFEA2E73B681A1D1978EA
:1079DC003A602846FFF7C5FE9AE70A230BF1010B24
:1079EC00B2FBF3F2C1E7A345D4D220212846013CD7
:1079FC00FFF7B7FECCE77107D5D52B21D0E7A34510
:107A0C00DAD230212846013CFFF7ABFED2E73968C9
:107A1C00CDE900460A1D3A6053460A220968D0E7B0
:107A2C0039680A1D3A60CDE9004653461022F5E745
:107A3C003B681A1D3A6016F00106D3F8009024D169
:107A4C00B9F1000F03D0484602F013FF0646B442CA
:107A5C001DD809F1FF3919F8011F00293FF458AF5F
:107A6C002846FFF77EFEF6E728460136FFF779FE3B
:107A7C0019F806100029F7D1A642BFF449AF20210E
:107A8C002846013CFFF76DFEF6E70026F0E72021C3
:107A9C002846013CFFF765FED9E73B681A1D3A60A2
:107AAC00302128461C68FFF75CFE78212846FFF73A
:107ABC0058FE00220823CDE900322146102280E72F
:107ACC0003B0BDE8F08F00BF2DE9F84FB0F806A069
:107ADC004579D2F800B09DF828900AFB05F5043DD5
:107AEC0088460BEB0301A94203F1040488BFA5EB04
:107AFC00030BB4FBFAF607460AFB1644C2F800B0B7
:107B0C004EB9AAEB04055D4528BF5D46BBF1000FDD
:107B1C0004D1BDE8F88F3F68013EF1E7043408EB6F
:107B2C0006003C442A46B9F1000F0DD02146ABEBC0
:107B3C00050B02F020FEDA452E443F6855464FF007
:107B4C00000428BF5D46E1E701462046EFE7FFF75A
:107B5C009ABDF8B546790146721E0546002393423C
:107B6C002D6803D30024A64202D8F8BD0133F6E7F2
:107B7C000F682846FFF7C2FD01343946F3E72DE9BB
:107B8C00F843068ACD1C0746FFF794FD043E3544A6
:107B9C000446B5FBF6F5F0B14FF48073EDB283807B
:107BAC00C680013D076081464FF00008A84512D2FF
:107BBC003846FFF77FFD064648B1637901336371A0
:107BCC0008F10108C9F8000007608146EEE720467D
:107BDC00FFF7BFFF34462046BDE8F883012104308F
:107BEC00FFF733BD10B5012104460430FFF739FD12
:107BFC00C0B220B92046BDE81040FFF7AABF10BDA7
:107C0C001FB503920022009203AAFFF75DFF05B097
:107C1C005DF804FB1FB503920122009203AAFFF743
:107C2C0053FF05B05DF804FB064B10B500241C7027
:107C3C00054B1C60BFF35F8F0449054800F013F837
:107C4C00204610BDBC270020C027002070B10200C8
:107C5C00B4270020836800225A60C3E904229A608A
:107C6C00DA601A6070470B684A684360934208BF39
:107C7C000023016008BF43607047436843B102684A
:107C8C00916852680B449342436004BF00234360E5
:107C9C007047000010B50D49A1F59472914201D8BE
:107CAC0000200FE08C1AE30F03EBE4035B1002EBF4
:107CBC00C30452F83330834205D802D204F10802CF
:107CCC00ECE7606810BD2146E8E700BF74B602001F
:107CDC0008B5FFF7DFFF024B002808BF184608BDA8
:107CEC0036B502004FF0704393F8E02F062A10D1FE
:107CFC00D3F8E42F12070CD1D3F8E80F00F0F003FF
:107D0C00302B08D000F0E000A0F14003584258415D
:107D1C00704700207047012070474FF0704393F874
:107D2C00E02F062A0CD1D3F8E42F120708D1D3F890
:107D3C00E80F00F0F000A0F13003584258417047B2
:107D4C000020704708B5FFF7CDFF40B14FF08053CE
:107D5C00884AD3F82433C3F30423C2F84035FFF721
:107D6C00DCFF10B1844B854A5A67FFF7BBFF48B163
:107D7C004FF080534FF08042D3F84432C3F3423378
:107D8C00C2F83C35FFF7C9FF30B17D4AD2F8FC3060
:107D9C0023F08073C2F8FC30FFF7A4FF40B14FF022
:107DAC0080430022C3F80C21C3F81021C3F83825F6
:107DBC00FFF7B3FF20B14FF080430322C3F8A02597
:107DCC00FFF7ABFF60B16F4B0522C3F81026012201
:107DDC00C3F888260022C3F818263F22C3F81426BD
:107DEC004FF0704393F8E02F062A50D1D3F8E42FCC
:107DFC0011074CD1D3F8E83F03F0F003502B46D1D8
:107E0C004FF08052604BD2F80414C3F82015D2F80E
:107E1C000814C3F82415D2F80C14C3F82815D2F89A
:107E2C001014C3F82C15D2F81414C3F83015D2F86A
:107E3C001814C3F83415D2F81C14C3F84015D2F832
:107E4C002014C3F84415D2F82414C3F84815D2F8FA
:107E5C002814C3F84C15D2F82C14C3F85015D2F8CA
:107E6C003014C3F85415D2F83414C3F86015D2F892
:107E7C003814C3F86415D2F83C14C3F86815D2F85A
:107E8C004014C3F86C15D2F84424C3F87025FFF7DE
:107E9C0029FF48B14FF080534FF08042D3F858324D
:107EAC0003F04F03C2F8E43EFFF71CFF48B14FF05C
:107EBC008043D3F80024D20744BF6FF00102C3F80B
:107ECC0000244FF08053D3F83021062A0AD1D3F87E
:107EDC003431062B01BF2D4AD2F83C3743F4806372
:107EEC00C2F83C37264AD2F8883043F47003C2F803
:107EFC008830BFF34F8FBFF36F8F4FF01023D3F841
:107F0C000022002A03DBD3F80432002B2EDA204B9C
:107F1C000122C3F80425D3F80024002AFBD04FF02B
:107F2C0010221521C2F80012D3F80024002AFBD02D
:107F3C004FF010231522C3F80422154BD3F800245C
:107F4C00002AFBD00022C3F80425D3F80024002A11
:107F5C00FBD0BFF34F8F0A490E4BCA6802F4E062A4
:107F6C001343CB60BFF34F8F00BFFDE70A4B0B4AA7
:107F7C001A6008BD0030014000C007400DF0ADBADA
:107F8C0000ED00E00050004000C000400010004038
:107F9C0000E001400400FA058C1D00200090D00385
:107FAC00044B1A5C012393404FF0A042C2F80C35ED
:107FBC00704700BF74B60200044B1A5C0123934057
:107FCC004FF0A042C2F80835704700BF74B60200EB
:107FDC0008B50020FFF7F0FF0120FFF7EDFF0220AE
:107FEC00FFF7EAFFBDE808400320FFF7E5BFC20733
:107FFC0008B501460CD54FF0A0430322C3F8442723
:10800C00C3F84827C3F84C27C3F85027FFF7E0FF05
:10801C008B070AD54FF0A0430C22C3F83427C3F8C2
:10802C003827C3F83C27C3F8402708BD38B5074CA0
:10803C00051E04F1080318BF1C4623682BB11A68EF
:10804C0022605B6828469847F7E738BDCC270020AC
:10805C0020B9054B01225A70FFF7E8BF012802D165
:10806C00014A9070F8E77047C427002020B9034BF1
:10807C0001225A70FFF7DABF704700BFC4270020F7
:10808C0038B50B4C237883B90A486360A36023612D
:10809C00E36000F0D5F8054602F026F908B900F0C7
:1080AC00DBF801232370284638BD8525FBE700BF8C
:1080BC00C42700205D80020037B50B4C00230DF166
:1080CC0007008DF80730FFF73BFAE368013BE360EC
:1080DC00E56815B900F0D4F8A5709DF80700FFF716
:1080EC0053FA03B030BD00BFC4270020012813B5DC
:1080FC0008D003281CD018B9114B0122C3F88020DA
:10810C0002B010BD0F4C00230DF107008DF80730A5
:10811C00FFF716FA23780BB9FFF7B2FFE3689DF867
:10812C0007000133E3600123A370FFF72DFAE7E7A3
:10813C0000F092F802B0BDE81040FFF7BDBF00BFE1
:10814C0000E100E0C42700201FB503788DF8003053
:10815C0043680193037A8DF80830C368054A03938A
:10816C00054B684653F8213052F82110984705B05A
:10817C005DF804FBD8270020DC2700201FB503780E
:10818C008DF800304368019383688DF80830C3681C
:10819C00054A0393054B684653F8213052F82110D9
:1081AC00984705B05DF804FBD8270020DC27002099
:1081BC00F0B5194B90F800C091F81DE043F82C2055
:1081CC00164B16460A6943F82C20154B03F80CE0A5
:1081DC000C4607460FCC89B06D460FC594E80F00CE
:1081EC0085E80F00CDF810C0BEF1000F09D0002EAD
:1081FC000C4A694608BF3246381D00F03BFD09B0F9
:10820C00F0BD002E084A694608BF324607F10C0043
:10821C0000F028FBF3E700BFDC270020D827002064
:10822C00E0270020558102008981020000F1804086
:10823C00002382B0036003680193019B02B0704776
:10824C00044A137923B901211060918018467047B4
:10825C0085207047E4270020084B1A68D20706D403
:10826C00C02283F800230122C3F880211A604FF04A
:10827C0080430122C3F81825704700BF00E100E0DD
:10828C004FF080430122DA60D3F81824D203FBD4D8
:10829C00704700004FF0804110B5D1F8003163B148
:1082AC004FF48070FFF7C2FF0D4B58790122C1F8D3
:1082BC00082310B95A711B6898474FF08042D2F8C6
:1082CC00043163B14FF48270FFF7B0FF0223C2F8A0
:1082DC000833034BBDE810401B680120184710BD44
:1082EC00E427002000F1804000F5C040002382B05C
:1082FC00036003680193019B02B07047800000F19A
:10830C00A040D0F8002722F44032C0F80027D0F863
:10831C00003743EA0141C0F800177047C208012337
:10832C0000F0070003FA00F08B5C18438854704788
:10833C00054B4FF0FF32072843F8202084BFC018AC
:10834C0080F84820704700BFEC27002038B5154D49
:10835C0095F858401CBB2022FF2105F1300002F09B
:10836C0033FAE0B20134FFF7E3FF0C2CF9D10E4BDA
:10837C000022C0216A6583F806134021C3F88011DE
:10838C004FF4BE701960FFF7ADFF084B4FF0004182
:10839C00C3F80413012385F85830104638BD082063
:1083AC00FCE700BFEC27002000E100E0006000408B
:1083BC00034B93F85800003818BF0120704700BFDA
:1083CC00EC2700202DE9F041DFF8E48008EB0003F6
:1083DC00054693F93030002B0F4664DA8B78C3F3E3
:1083EC004003002B0BBF082400240C2108218C42D5
:1083FC0002D10420BDE8F08158F8240001303DD1B1
:10840C0008EB050166B248F8242081F830601BB9EE
:10841C0008EB040383F84850BB785A070ED4D907ED
:10842C002ED5AB0003F1A043D3F8002722F00202B3
:10843C00C3F800271D492846FFF770FFBB783A7830
:10844C0013F0020325D0A40004F1804404F5C044C9
:10845C002D02D4F8103523F4473323F44073C4F8B9
:10846C0010351204D4F8103505F4F85502F44032E6
:10847C0015431D43C4F810550020BBE70134B6E783
:10848C007A7805F5E0734FF0A041920041F8232073
:10849C00D0E7083E48FA86F696F8505045EA821224
:1084AC0086F85020E8E70820A4E700BF4028002009
:1084BC00EC2700204FF0A043D3F8103523FA00F03E
:1084CC0000F00100704700002DE9F04F87B0002448
:1084DC00584D03944FF48072012102F1804303F54F
:1084EC00C04390B21B68012B06D1D5F804330B4264
:1084FC0002D0FFF7F7FE0C430432B2F5907F4FEA3F
:10850C004101EAD14B4BD3F87C31012B0AD14FF40A
:10851C00BE70FFF7E7FE4FF0A04344F00044D3F8E1
:10852C0010350393E3B2D3B1434F002501263442F7
:10853C0010D0AB0003F1804303F5C043D3F8100512
:10854C00D3F8101557F8253023B1C1F30141C0F30E
:10855C00042098470135082D4FEA4606E7D1002C38
:10856C0061DA00224FF0FF33CDE90423DFF8C88035
:10857C00DFF8C89000273E464FF0A04B19F9014B8D
:10858C00631C45D0C4F3C2030122E5B204F03F00E2
:10859C0004F0070402FA04F406AA134413F8042C9A
:1085AC00224235D008EB0002AD0992F9302058F880
:1085BC0022A0BAF1000F09D1032D29D104A90193EE
:1085CC000090FFF7ABFEDDE9000301E0032DF5D0D1
:1085DC0000F5E07113F80C3C5BF821102342C1F359
:1085EC00014105D0022913D1032D0CD1294604E0F9
:1085FC0003290DD1032D06D1022100900136FFF77E
:10860C007DFE0098F6B2BAF1000F01D02946D04792
:10861C000137042FB2D136B14FF0A043039AD3F8EF
:10862C001035934202D107B0BDE8F08F0393049B41
:10863C0005939DE700600040EC2700203C280020BB
:10864C00014B1B68184700BF482800200E4B98426E
:10865C0037B50C4602D0002003B030BD00230DF11D
:10866C0007008DF80730FEF76BFF084B1D7915B925
:10867C0001221C601A719DF80700FEF785FF002D82
:10868C00E9D01120E8E700BF002000404828002076
:10869C00034B984201BF034B00221A601A717047BA
:1086AC0000200040482800200023435082B043584B
:1086BC000193019B02B070470A4610B54FF48E71BE
:1086CC00FFF7F2FF136A9168C95C136A01331362F6
:1086DC00C0F81C1510BD8B690A4610B54FF4847197
:1086EC0023B9FFF7E1FFD0F8183510BDFFF7DCFF19
:1086FC00536AD168D0F81805C854536A01335362D1
:10870C00F3E700001FB501238DF80030044BCDE9D1
:10871C000110D3E900126846904705B05DF804FBE0
:10872C005028002030B54D4DD5F804339A0585B04E
:10873C0051D5D5F82431002B4DD04FF492712846E9
:10874C00FFF7B2FF4FF40173C5F80833444B93F8AD
:10875C0029200AB901226A60404902228DF80020C2
:10876C00D1F88024C1F8802403929A690292DA68C5
:10877C0001920022C3E906226846D3E90012904711
:10878C003648D0F81C315BB1354A116A53699942AD
:10879C004DD292F82830002B49D11146FFF78CFFAF
:1087AC002E48D0F84431002B55D04FF4A271FFF76E
:1087BC007BFF2B4B93F829200AB1012202609A69A6
:1087CC00002A48D0586AD96800229A6105B0BDE8E1
:1087DC003040FFF797BFD5F804335B07D0D5D5F8F9
:1087EC000831002BCCD01E4C1C482146FFF773FFE0
:1087FC00636AA2699A42C3D1E369E1684BB1A36190
:10880C002369E3600023606AE3616362FFF77AFF28
:10881C00B6E794F829300BB901236B600F4B4FF47A
:10882C000172C3F808230023606AA361EEE74FF4DA
:10883C008E710A48FFF738FF51690029B0D0002328
:10884C00029191688DF80030019153616846D2E92C
:10885C0000139847A4E705B030BD00BF00200040CE
:10886C00502800202DE9F843594D90F804802C2312
:10887C0003FB0853064693F82A300C469146002B0E
:10888C0040F0A28053490068FFF7E0FE074600283D
:10889C0040F09C8022683068511C0BD04FF0A041F6
:1088AC0001239340C1F8083502F5E0734FF0030C37
:1088BC0041F823C061684B1C1FBF01F5E0734FF0FA
:1088CC00A04C4FF0000E4CF823E0A369C0F82435FF
:1088DC0094F814C0637DBCF1010F4CEA0303C0F89B
:1088EC006C35C0F81415C0F80C251DD1A268531CAA
:1088FC001FBF02F5E0734FF0A0414FF0000C41F8A0
:10890C0023C0E368591C0BD04FF0A04C01219940B7
:10891C00CCF8081503F5E0714FF0030E4CF821E08C
:10892C00C0F80835C0F810252C2202FB08F2AB1851
:10893C00C3F804902369AB50B9F1000F31D04FF458
:10894C008E71227FFFF7B0FE30684FF4A271FFF7F3
:10895C00ABFE33682049C3F80413190B43F30733F8
:10896C00002BA8BF03F160404FEA5313BCBF01F0CA
:10897C000F041A484FEA4212A8BF00F561404FEAB3
:10898C008303D2B203F16043B4BF025580F80023D5
:10899C0003F5614301F01F0101228A40C3F88021D5
:1089AC001A6033680422C3F800252C2303FB0853F8
:1089BC000022C3E9062283F829205A61012283F898
:1089CC002A203846BDE8F8830827FAE71127F8E78C
:1089DC0050280020318702008000020014ED00E0D6
:1089EC00F8B5057900682C4C0023C0F800352C2311
:1089FC0003FB05435B686BB1284BC0F8083340F3AD
:108A0C000733C0F304315B0901228A402033244927
:108A1C0041F82320D0F80C65D0F81415D0F808359F
:108A2C00D0F810254FF0FF37BE42C0F8147518BFB0
:108A3C0006F5E076C0F80C75C0F80875C0F810752E
:108A4C001EBF4FF0A0474FF0020C47F826C04E1C3B
:108A5C001FBF4FF0A04601F5E071022746F82170C8
:108A6C00511C1FBF4FF0A04102F5E072022641F8E5
:108A7C0022605A1C1FBF03F5E0734FF0A042022185
:108A8C0042F82310FFF704FE2C2303FB05440023BC
:108A9C0084F82A306360F8BD50280020840202005C
:108AAC0000E100E00279044B2C2101FB02335869F0
:108ABC00003818BF01207047502800202DE9F84FCE
:108ACC00064689469246FFF7EDFF044600283DD145
:108ADC0096F804801F4F2C2508FB057B4FF48E71F4
:108AEC00CBF82000CBF814A08BF82800CBF808901A
:108AFC003068FFF7D9FD3068012383605946FFF7D2
:108B0C00DBFDDBF804305D4613BB30682A6A6B6909
:108B1C009A4211D33368D3F81C21002AFBD00122CE
:108B2C00DA6000202C2303FB087700237B61BDE86F
:108B3C00F88F95F828303BB9D0F81C31002BF8D0C1
:108B4C005946FFF7B9FDE1E70F20EBE71120EEE7FF
:108B5C002046ECE7502800200023435082B04358B5
:108B6C000193019B02B070471FB501238DF80030B3
:108B7C00054B8DF8080001916846D3E90012904727
:108B8C0005B05DF804FB00BF7C2800207FB5374A98
:108B9C00D2F82461002E47D010464FF49271FFF7A3
:108BAC00DBFF02238DF80030D2F88034C2F8803419
:108BBC000393D2F83C358DF808302D4BDA680192CE
:108BCC000022C3E906226846D3E9001290472748E1
:108BDC00D0F844316BB14FF4A271FFF7BDFF244BB9
:108BEC009A6932B100229A61D0F83C05D968FFF736
:108BFC00BBFF1E48D0F82031A3B14FF49071FFF7A2
:108C0C00ABFF1B4B5A696AB1D0F84C158DF80810A4
:108C1C00002299688DF8002001915A616846D3E9C9
:108C2C000012904704B070BDD2F81031002BCED09A
:108C3C004FF488711046FFF78FFF0D4BD2F83C05AF
:108C4C0099698842C3D1DC69D96864B1D2F8005201
:108C5C0025F02005C2F800521A699C61DA60DE61C9
:108C6C00FFF782FFB3E79C61FAE700BF00200040EA
:108C7C007C2800202DE9F8435D4E90F804802423D5
:108C8C0003FB0863054693F820300C469146002BF5
:108C9C0040F0AA8057490068FFF7D8FC0746002827
:108CAC0040F0A48022682868511C0BD04FF0A041E2
:108CBC0001239340C1F8083502F5E0734FF0030C23
:108CCC0041F823C061684B1C1FBF01F5E0734FF0E6
:108CDC00A04C4FF0000E4CF823E0A369C0F82435EB
:108CEC0094F814C0637DBCF1010F4CEA0303C0F887
:108CFC006C35C0F80C25C0F814151DD1A268531C96
:108D0C001FBF02F5E0734FF0A0414FF0000C41F88B
:108D1C0023C0E368591C0BD04FF0A04C01219940A3
:108D2C00CCF8081503F5E0714FF0030E4CF821E078
:108D3C00C0F80835C0F81025242202FB08F2B3183D
:108D4C00C3F804902369B350B9F1000F3BD04FF432
:108D5C008871227FFFF700FF28684FF49071FFF7AE
:108D6C00FBFE28684FF49271FFF7F6FE28684FF46B
:108D7C00A271FFF7F1FE2B681F49C3F80413190BFE
:108D8C0043F30733002BA8BF03F160404FEA5313A2
:108D9C00BCBF01F00F0419484FEA4212A8BF00F5FE
:108DAC0061404FEA8303D2B203F16043B4BF025572
:108DBC0080F8002303F5614301F01F0101228A4072
:108DCC00C3F880211A602B680822C3F800252423DD
:108DDC0003FB08660023C6E906337361012386F89A
:108DEC0020303846BDE8F8830827FAE71127F8E762
:108DFC007C280020998B02001003020014ED00E087
:108E0C00F8B5057900682C4C0023C0F800352423F4
:108E1C0003FB05435B686BB1284BC0F8083340F388
:108E2C000733C0F304315B0901228A402033244903
:108E3C0041F82320D0F80C65D0F81415D0F808357B
:108E4C00D0F810254FF0FF37BE42C0F80C7518BF94
:108E5C0006F5E076C0F81475C0F80875C0F8107502
:108E6C001EBF4FF0A0474FF0020C47F826C04E1C17
:108E7C001FBF4FF0A04601F5E071022746F82170A4
:108E8C00511C1FBF4FF0A04102F5E072022641F8C1
:108E9C0022605A1C1FBF03F5E0734FF0A042022161
:108EAC0042F82310FFF7F4FB242303FB05440023B3
:108EBC0084F820306360F8BD7C2800201003020089
:108ECC0000E100E00279044B242101FB02335869D4
:108EDC00003818BF012070477C2800202DE9F8438A
:108EEC0001F06043B3F1005F06468846914634D1E9
:108EFC00FFF7E8FF044690BB32791B4F30682425FE
:108F0C0005FB02754FF49071C5F81490C5F80880F4
:108F1C00FFF722FE30684FF4AC71FFF71DFE33688B
:108F2C006969A868C3F84405C3F84815012199601C
:108F3C006968B1B9D3F82011D3F8580149B90028A0
:108F4C00F8D00F20242303FB027700237B61BDE8BC
:108F5C00F883002818BF0F20F4E71020F7E7112042
:108F6C00F5E72046F3E700BF7C280020032811D842
:108F7C00012A0AD101290FD100F10E02D2B20D4BF8
:108F8C0000EB40001A54002070470129F7D0022949
:108F9C0004D049B1072070470022F8E7054B00EBDD
:108FAC00400018444270EEE7024B00EB40001844BE
:108FBC008270E8E7A028002008B5012202210020D9
:108FCC00FFF7D4FF08B1072810D107220221012096
:108FDC00FFF7CCFF08B1072808D100210A22084668
:108FEC00FFF7C4FF10B1072808BF002008BD000020
:108FFC000388102B10B502D0112B1ED010BD1A4CAB
:10900C002168B1B901220846FFF7B0FF08B1072863
:10901C0024D1072202210120FFF7A8FF08B107285D
:10902C001CD1042202210020FFF7A0FF08B1072861
:10903C0014D1236801332360E0E70B4A1368013B2A
:10904C001360002BDAD1FFF7B7FF0028D6D0074BFF
:10905C001B68002BD2D0BDE810401847034B1B688F
:10906C00002BE6D09847E4E7B0280020AC2800207D
:10907C0075DF704776DF70478FDF704708B507489C
:10908C0000F026FF08B1FDF76BFF0120FEF794FFFF
:10909C00BDE808400020FEF783BF00BFD8280020A1
:1090AC000388212B13B504464ED007D8112B30D092
:1090BC001F2B3DD0102B0AD002B010BD3B2B01D082
:1090CC00562BF9D1A0881321FFF7D4FF35E0254B9F
:1090DC0025482649C01AC008000440F00300FDF7DB
:1090EC00CBFCA1882248002201F06AF808B1FDF7F8
:1090FC0037FFA1881F4800F035FC08B1FDF730FFA1
:10910C000120FEF74DFF002002B0BDE81040FEF735
:10911C0053BF144B14481849C01AC008000440F03F
:10912C000300FDF7A9FC02B0BDE81040FFF7A6BF95
:10913C0000F108018088FFF79BFF0028BCD002B02B
:10914C00BDE81040FDF70CBF002380888DF804307B
:10915C0001A98DF80530FFF78FFF0028ACD0FDF783
:10916C00FFFEA9E758AF020080AF02009AB60200DA
:10917C00B4280020981D0020A5B602000D2807B5C4
:10918C000BD11048019100F0EFFF019A50B143F25E
:10919C000202904213D0082811D003B05DF804EB02
:1091AC00FDF7DEBE084B09480949C01AC008000487
:1091BC0040F0030003B05DF804EBFDF761BC03B0B5
:1091CC005DF804FBB428002058AF020080AF020009
:1091DC00B3B6020013B54FF400410020FDF790FA2E
:1091EC0008B1FDF7BDFEFDF7BFF9334800F07DF97E
:1091FC00FEF70CF908B1FDF7B3FE304800F075F935
:10920C000120FEF7F4FE2E4800F06FF92D4840F2D5
:10921C0066620121FDF74EFE08B1FDF7A1FE2A485A
:10922C0000F063F9FEF700FD08B1FDF799FE274841
:10923C0000F05BF901F01AF808B1FDF791FE00237C
:10924C0001A90120019301F09DF808B1FDF788FEFA
:10925C0001A801F039F908B1FDF782FE1C4800F0B5
:10926C0044F91C4800F041F91B4800F03EF91B483A
:10927C0000F03BF94FF0A044194800F036F940F2E9
:10928C000333C4F86437174800F012F9164B17482B
:10929C001749C01AC008000440F00300FDF7ECFBAE
:1092AC00144800F022F9FFF7E9FE4FF0007300209C
:1092BC00C4F8083502B010BDCAB60200DDB6020013
:1092CC00F2B60200901D002006B702001DB7020086
:1092DC003DB7020056B702006AB702007EB7020023
:1092EC0092B702009FB7020058AF020080AF020095
:1092FC00ACB70200CCB702000369C26893429CBFB2
:10930C0080681B18013B981A70472DE9F843D0E987
:10931C0002940546A9EB04084068904520440F468A
:10932C00144404D901F027FAEC60BDE8F8834246F6
:10933C00A4EB090401F01FFA6868224607EB080148
:10934C00F0E72DE9F843C5680646894617464FF005
:10935C0000083469B3687068A54228BFE418013C62
:10936C00621B5C1BBC4228BF3C46944228BF14467F
:10937C0049462844224601F0FEF9B3682544AB4225
:10938C0008BF00253F1BA044A144F560E1D1404635
:10939C00BDE8F88310B5114C114AA2610223C4E94F
:1093AC000433104BE361A2644FF400730E4A0F496F
:1093BC002362E26400231022E01DA3626362E36275
:1093CC00A3656365E365226501F031FA084920461F
:1093DC0001F02DFA2023A37110BD00BF40290020FD
:1093EC00EEB70200C8290020B8290020F7B7020008
:1093FC00FBB7020070B5164B182400FB04451D4446
:10940C0004FB00331646DC6A012C0ED0022C18D05B
:10941C00E4B92846FFF770FF864204D83246284646
:10942C00FFF773FF3446204670BD2846FFF764FFF4
:10943C008642344628BF044622462846FFF765FF7D
:10944C00F1E72846BDE87040FFF77BBF0024EAE750
:10945C004029002073B50E4B1B7804460D4616466A
:10946C000BB9FFF797FF00230DF107008DF80730BC
:10947C00FEF766F8324629462046FFF7BBFF044646
:10948C009DF80700FEF780F8204602B070BD00BFC3
:10949C004029002013B504460846019101F0E9F972
:1094AC0001990246204602B0BDE81040FFF7D2BF3A
:1094BC000FB410B5A2B024AB802153F8042B019348
:1094CC0002A801F04AF9802804460ADD802202A98C
:1094DC000020FFF7BFFF204622B0BDE8104004B0CB
:1094EC0070470028F7DD0246F1E701460020FFF740
:1094FC00D1BF70B5C0B14AB116880024B44203D3B1
:10950C0005196D789D4208D0A14201D800200BE0CE
:10951C00055D01352C44A4B2F0E7A142F6D9A31C99
:10952C001380005D013880B270BDF7B5002306468C
:10953C00ADF80630144612B9002003B0F0BD092373
:10954C000DF10602FFF7D5FFBDF806700546002F9A
:10955C00F2D00028F0D0204601F08BF9A842024648
:10956C00EAD1F119204601F0B0F8B0FA80F04009C8
:10957C00E3E773B50191019C06466CB100252C46BE
:10958C00294601A8FEF729F818B106EB440301346B
:10959C009D800135142DF3D13046346002B070BD7E
:1095AC002DE9F04703888488112B8CB005463DD0FB
:1095BC001A2B42D0102B19D1DFF8C080D8F8083004
:1095CC00DB430093D8F804106846FEF732F8009994
:1095DC0001A8FFF7CEFF0DF108090027019B9F4260
:1095EC0007D3132C12D90420FDF7BAFC0CB0BDE83C
:1095FC00F08739F802AB00260136514608EB86009D
:10960C00FDF7E1FF1D2EF7D10137E7E7164821469C
:10961C00FDF7D0FF15482146FDF7CCFFEB7B012B66
:10962C00E4D013482146FDF7C5FFDFE70E4821467D
:10963C000CB0BDE8F047FDF7C6BF037A0D481F2BF1
:10964C004FEA131521460AD9FDF7B4FF022D0A483B
:10965C002146EDD00CB0BDE8F047FDF7ABBFFDF7F0
:10966C00B2FF05482146E3E7D02B0020CC2B00208D
:10967C00D42B0020D82B0020DC2B0020C82B002062
:10968C009BDF70479DDF70479EDF704730B50B4BFB
:10969C0019680B4B0022914201D1002009E09D7802
:1096AC008478A54206D11D880488A54202D1054BB9
:1096BC00186830BD01320433EDE700BF482C0020A0
:1096CC00502F0020402C002070B590F8C632164662
:1096DC007622A0B002FB03000D46FFF7D7FF04462D
:1096EC0060B17C22002101A801F06EF801238DF8F5
:1096FC000430ADF80660029501A8A04720B070BDFB
:10970C002DE9F74F8A4690F8C612019193467622BE
:10971C00064601FB0200FFF7B9FF074688B3DFF8E6
:10972C007080D8F80050052D2BD8174C019904EBFC
:10973C00C5197622EB0102FB0161A9F802B009F10F
:10974C000400009301F017F8104E009BC9F87C70D0
:10975C00BAF1000F14BF00220222E2543368013523
:10976C009D42C8F800500CD10025E36F2046984765
:10977C00336801359D4204F18004F6D30023C8F808
:10978C00003003B0BDE8F08F4C2C0020482C00209A
:10979C004C2F002037B50346084693F8C52293F8A2
:1097AC00C612BAB1013AD4B276224A43122505FB4D
:1097BC0004221A44528A013292B2ADF80420762265
:1097CC0002FB013301A91B89ADF80630FFF75AFFE4
:1097DC0003B030BD762202FB0132D288EDE70000E7
:1097EC0070B54FF433720D460021044600F0ECFFC7
:1097FC000E4BA4F8CA5200261E600D4B1B6823604A
:10980C00224601212846FFF73BFF112806D020B93C
:10981C00012384F8C73284F8C80270BD012384F890
:10982C00C73284F8C8323046F7E700BF4C2F00200F
:10983C00502F002070B5194A90F8C93212680133C4
:10984C00DBB2934204460D4680F8C9324FF0000655
:10985C0021D290F8C63280F8C5620133DBB2762192
:10986C0013FB01F180F8C63242180D4850F8233032
:10987C006350284601211671FFF702FF014648B1DB
:10988C0084F8C7622A462046FFF71EFF054B0322C9
:10989C001A705D8070BD80F8C762F7E7482C002015
:1098AC00502F00204C2C00202DE9F3470546762341
:1098BC0095F8C66295F8C54216FB03F6AF1910462B
:1098CC004FF012083A7918FB046304F1010C0A33C7
:1098DC0094452B441FD005F11C0C07F1220902F111
:1098EC00FF3A66445FFA84FC624518D9A24527D03A
:1098FC00B3F808E008FB04F30EF1010E39F803C0CD
:10990C00E64528D1334495F8C5C20CF1010C85F815
:10991C00C5C20134E6E71B893A89934205D101237C
:10992C000B70002002B0BDE8F0870133ADF80430B5
:10993C00ADF8062000230B7001A9FFF7A5FEF1E797
:10994C001B89B7F808C063450AD00133ADF8043061
:10995C00ADF806C0EEE7ADF804E00CF1FF3CF7E71C
:10996C000023D0E750B1084A12784AB1074A12686E
:10997C0032B190F8C7322BB9FFF732BF0E207047C7
:10998C000820704711207047442C0020482C0020E0
:10999C002DE9FF410C460546002800F03C810029CA
:1099AC0000F039819D4B1B78002B00F0348103882B
:1099BC00322B74D01BD8112B00F01D81302B3FD0D3
:1099CC0094F8C832002B00F026812B88303B9BB2D8
:1099DC001F2B00F22081B4F8CA32A988994240F0BA
:1099EC001A81204604B0BDE8F041FFF7F9BE332BD5
:1099FC00E6D18288B1F8CA329342E1D1C08891F89D
:109A0C00C6C291F8C562002800F0B880762101FB2F
:109A1C000C4C731C9CF8041000278B428DF80F70B3
:109A2C0000F0DD800DF10F0184F8C5322046FFF700
:109A3C003BFF0146002800F0D88084F8C7721BE079
:109A4C008388B1F8CA229A42BAD1C388F3B991F883
:109A5C00C632C068762113FB01F3E118E0502B6984
:109A6C00C1F8063011462046FFF794FE0146002847
:109A7C00A6D0002384F8C732AA882046FFF724FE1C
:109A8C00674B03221A70AA885A8099E70021204656
:109A9C00FFF736FEA9882046FFF7CCFE90E78288B8
:109AAC00B1F8CA329A428BD1C388002B57D191F8A6
:109ABC00C672762317FB03F701EB0708837A98F835
:109ACC0004603344062B25DC88F80430122212FB88
:109ADC000672334605F10C012244002098F804600C
:109AEC00B34201F10A0102F1120227D31222013B07
:109AFC0002FB034394F8C62276213B4401FB02424D
:109B0C00598A138999422AD2062E28D0A98884F81A
:109B1C00C562A8E7062388F804304248424BCA5B6A
:109B2C004249C01AC008000440F002000190FCF742
:109B3C00A7FF3F490198FCF79FFFC7E751F80A6C54
:109B4C0042F8086C51F8066C42F8046C31F8026C5F
:109B5C00168050809080D08010810133BEE70026A3
:109B6C0084F8C5620DF10F01AA882046FFF79CFE10
:109B7C000146002839D084F8C7627DE7762303FBC1
:109B8C000CF3122707FB0633B5F80AE029462344E9
:109B9C007045BFF43BAFCF89A7F52457082F08D8E1
:109BAC00DFE807F014170507070707071A008F8966
:109BBC009F829F8A3FB1DF8A2FB11F8B1FB15F8BB2
:109BCC00002F7FF423AF01300631E1E78F89DF826C
:109BDC00EFE78F891F83ECE78F895F83E9E7012328
:109BEC008DF80F30AA88012151E79DF80F30002B1A
:109BFC003FF4E6AEF6E78288B1F8CA329A427FF4B7
:109C0C00DFAE002381F8C73281F8C8324FF6FF73FC
:109C1C00A1F8CA32D4E604B0BDE8F081442C00208F
:109C2C004C2C002088AF020058AF020002B8020092
:109C3C0048B8020090DF7047A5DF7047B5DF70476A
:109C4C007FB50023ADF80810ADF80A106A4602A9DA
:109C5C000646ADF80C30ADF80E300093ADF804307C
:109C6C00FFF7E8FF054600B3114B124CE41AE40869
:109C7C00FEF72EF8240444F0010403460E49324644
:109C8C002046FCF706FFBDF80020BDF8023052EA72
:109C9C00030103D009492046FCF7FBFEBDF8042064
:109CAC001AB107492046FCF7EBFE284604B070BDFC
:109CBC0058AF0200A8AF0200AEB80200F8B802001C
:109CCC0037B9020013B5034680880C46B8B91A8818
:109CDC00242A00F09B8014D8112A74D0232A00F077
:109CEC00A680102A3ED0A37A4BB1E1880020FFF762
:109CFC00A3FF002840F0A1804FF48073638102B071
:109D0C0010BD3A2A67D0552AEDD1DB88C988A072DC
:109D1C00172B38BF17238B4228BF0B462381FFF725
:109D2C008DFF60B1FDF7D4FF4D4B4E4902464E48B6
:109D3C001B1ADB081B0443F00100FCF7A1FEE27ABE
:109D4C00002AD0D12369002BCDD040F67721ADF875
:109D5C0002202289ADF80010ADF804206946204697
:109D6C009847C0E7DB7B0A790A73012B13D0022BCF
:109D7C0014D0E18823898B4205D20020FFF75CFFC9
:109D8C0070B90123E372217B637B8B42ABD2002041
:109D9C00FFF756FFA7E70B88E380EAE74B88FBE762
:109DAC00112802D10123A372EDE7FDF791FF2C4B93
:109DBC002E4902462C481B1ADB081B0443F00100F9
:109DCC00FCF75EFEDFE71723CB800B8141F61B33DC
:109DDC0048818B8187E75B89CA88934228BF1346E9
:109DEC00172B0A6938BF17230B8162B1C97A51B19D
:109DFC0040F67721ADF80010ADF80200ADF8043054
:109E0C00694620469047002363816CE71A7A0B69F8
:109E1C004A73002B3FF467AF4DF67A218DF805009D
:109E2C00ADF80010ADF802008DF8042096E7197A11
:109E3C00237B994228BF1946AAE711283FF45FAF4C
:109E4C00FDF746FF064B0949024607481B1ADB087B
:109E5C001B0443F0010002B0BDE81040FCF710BE3B
:109E6C00A8AF0200BEB9020058AF02008DB90200C3
:109E7C008ADF70478BDF70478CDF704730B590F806
:109E8C00233089B004460D46D3B190F82C300193A1
:109E9C00FFF7F0FF1422002103A800F095FC019BB2
:109EAC0004F1240204F12E01A81CFFF7E5FF0623A0
:109EBC008DF80C30049018B1E36B0BB103A89847E4
:109ECC0009B030BD90F82E00C0F3C0007047000000
:109EDC0010B5044686B048B31422002101A800F046
:109EEC0073FCFFF7C7FF2046FFF7ECFF30B1E36BC5
:109EFC0023B101228DF8042001A8984704F16001D8
:109F0C0004F12E00FFF7B4FF044630F008000BD02C
:109F1C000748084B08491B1ADB081B0443F00100D7
:109F2C002246FCF7ADFD204606B010BD0E20FBE727
:109F3C0058AF020098AF0200FAB902002DE9F04FB9
:109F4C00054687B035F8082B1D2A06460C4620D04E
:109F5C0007D8102A00F095801B2A7AD007B0BDE8EC
:109F6C00F08F202AFAD11422002101A800F02CFC39
:109F7C00E26B002AF2D0B068696805238DF80430D2
:109F8C002E3402AB059403C3297A197001A89047AB
:109F9C00E4E71022002101A800F016FC04F12E03C6
:109FAC0020460593FFF78EFF04F1600878B1022379
:109FBC008DF8043001A8E36B0295984741460020C8
:109FCC00FFF756FF29462046FFF758FFC6E794F8DF
:109FDC00210094F8229088B394F820A0B6F824B00D
:109FEC00274604EB4A1A574518D100200346012294
:109FFC000295B9F1000F24D09A4226D100238DF896
:10A00C00043029462046FFF739FFE36B0BB101A85A
:10A01C00984741460020FFF72BFF9FE73A46306AEE
:10A02C005946FFF782FA20370028DCD09DF80C3017
:10A03C0043F001038DF80C300123D8E703460246A8
:10A04C00D6E710B18DF80490DBE703238DF80430CC
:10A05C00DBE71422002101A800F0B6FB327A012ABA
:10A06C007FF47CAFE36B002B3FF478AF04212E34EC
:10A07C008DF8041005948DF808200DEB010098471D
:10A08C006CE7002101A800F09FFB07238DF804303A
:10A09C00B388ADF80C3004F12E030593E36B0295F5
:10A0AC00002B3FF45BAF01A8E9E7A1DF7047A3DF0A
:10A0BC007047000070B50D4B0D4D1B682C689C4211
:10A0CC000ED00C4914236343CE18C85AB27842B947
:10A0DC00B188FFF7EAFF18B9013404F007042C60CB
:10A0EC0070BD08331944FFF7E2FFF4E70C30002091
:10A0FC0008300020682F00201FB50346084639B3EE
:10A10C0033B31A88382A25D0392A0BD0112A1FD1FB
:10A11C009A880B889A4202BF4FF6FF720023C1E95E
:10A12C00002315E009889A888A4211D15C898188BC
:10A13C008C420DD1D98901290AD11B7C8DF80830AC
:10A14C0002218DF804108368ADF8062001A9984708
:10A15C0004B010BD0A889B889A42F9D104B0BDE8BE
:10A16C001040FFF7A7BF000038B500B305884FF6C5
:10A17C00FF739D421DD0104CC0882268531C03F005
:10A18C00070323600D4C14235A43A3185881101D48
:10A19C00204418614FF48030D8600220A55201226F
:10A1AC00187219719A70FFF785FF002038BD0E20C8
:10A1BC00FCE70820FAE700BF0C300020682F0020D5
:10A1CC0040B1018022B11368C0F802309388C3807B
:10A1DC00002070470E20704710DF704713B50446FF
:10A1EC0009496846FDF73FFD019808B902B010BD5A
:10A1FC00D0E900212046904718B16846FDF73DFD97
:10A20C00F2E71120F2E700BF40BA020013B5044692
:10A21C0007496846FDF727FD019B0BB902B010BD3D
:10A22C002046D3E9002190476846FDF726FDF3E769
:10A23C0058BA02000B4991F816335A09EC23134112
:10A24C00DB0706D5084B9A683AB94FF480030B60CC
:10A25C00704742F20200FCF783BE1A6842F4800297
:10A26C001A60704700E100E0A8270020F7B5194FED
:10A27C003C7864BB184E012520463570FFF7AEFFC5
:10A28C00112821D02046FFF7C1FF144B8DF8034055
:10A29C00186801900DF10300FDF752F9104901A85F
:10A2AC00FFF79AFF0446B0FA80F0400938709DF829
:10A2BC000300FDF769F93CB90A4B34701C70FFF7C9
:10A2CC00B9FF2846FFF7A2FF204603B0F0BD0824D3
:10A2DC00FAE700BF113000201030002039BA02001C
:10A2EC00896F020012300020014B1878704700BFB4
:10A2FC001130002007B508496846FDF7B4FC019BF6
:10A30C0013B903B05DF804FBD3E90020904768460D
:10A31C00FDF7B3FCF3E700BF4CBA0200FFF7EABF4E
:10A32C0060DF704769DF704761DF704730B5134BF2
:10A33C001B7891B0FBB1124D34240DF1020103A82E
:10A34C00ADF80240FFF7F0FF70B9294601A8FDF700
:10A35C008AFC029B002BF0D003A8D3E90021904784
:10A36C0001A8FDF78AFCF4E7052804D011B0BDE87C
:10A37C003040FCF7F5BD11B030BD00BF13300020EC
:10A38C009CBC020030B50C4685B0002900F08980D9
:10A39C000023CDE90133444A039301230A608DF86D
:10A3AC0004008DF8063001A906232020ADF80830F2
:10A3BC00FFF7B8FF60B1FDF78BFC3C4B3C49024604
:10A3CC003C481B1ADB081B0443F00100FCF758FB4C
:10A3DC000023CDE901330393226840F2011301A954
:10A3EC004020ADF80630FFF79DFF60B1FDF770FC23
:10A3FC002E4B314902462F481B1ADB081B0443F035
:10A40C000100FCF73DFB0023CDE9013303932268E7
:10A41C000A2301A901208DF80430FFF783FF60B1F6
:10A42C00FDF756FC214B2549024622481B1ADB0836
:10A43C001B0443F00100FCF723FB0023CDE902339E
:10A44C002268F82301A9A1200193FFF76BFF60B1EB
:10A45C00FDF73EFC154B1A49024616481B1ADB0841
:10A46C001B0443F00100FCF70BFB0025226803954D
:10A47C0001A9A020CDE90155FFF754FF034668B1AF
:10A48C00FDF726FC094B0F4902460A481B1ADB084C
:10A49C001B0443F00100FCF7F3FA2B46184605B0F9
:10A4AC0030BD0E23FAE700BF701D0020B8AF0200CC
:10A4BC0064BA020058AF0200AABA0200F6BA02004F
:10A4CC0042BB020093BB020073B505460668FFF75A
:10A4DC0027FF2B68B34204461DD91A481A4B1B4957
:10A4EC001B1ADB081B0443F002000190FCF7C4FAB2
:10A4FC002B68174901983246FCF7CBFA4FF0805382
:10A50C002A68D3F80C31134901989B0203F10053CC
:10A51C009A1AFCF7B5FA2CB90F4B01221A70204687
:10A52C0002B070BD2046FDF7D3FB074B0B4902462A
:10A53C0004481B1ADB081B0443F00100FCF7A0FACB
:10A54C00EDE700BF58AF0200B8AF0200E6BB020057
:10A55C0015BC020046BC02001330002070BC020087
:10A56C004BDF70471FB50E4C01A8FFF7F9FF70B910
:10A57C00214602A8FDF777FB039B002BF4D0019832
:10A58C00D3E90021904702A8FDF777FBF4E70528F3
:10A59C0004D004B0BDE81040FCF7E2BC04B010BD20
:10A5AC00B4BC02007F2805D8034B185C034B5B5CE2
:10A5BC001840704700207047CCBC02004CBD020014
:10A5CC00A0F16103192B98BF20387047A0F141030B
:10A5DC00192B98BF203070477F2805D8034B185C87
:10A5EC00034B5B5C1840704700207047CCBC0200EA
:10A5FC004CBD0200A0F16103192B98BF20387047A5
:10A60C00A0F14103192B98BF203070477F299ABFC6
:10A61C00017001206FF02E0070475AB10A787F2A22
:10A62C000AD800B10260002119605960501A18BF95
:10A63C0001207047002070476FF02E00704710B556
:10A64C0004460846A2684AB12368616803F1010C0C
:10A65C008C4508BF00208B4208D2D054E3682BB144
:10A66C0021686268914201D22146984723680133E0
:10A67C00236010BD70B54C1E09D41646C5B22946D0
:10A68C003046FFF7DCFF013CB4F1FF3FF7D170BD62
:10A69C0010F0100F08D108B510F4007F14BF302053
:10A6AC002020FFF7E7FF08BD7047000008B5034BFB
:10A6BC005B689B681B68984708BD00BF642000203E
:10A6CC0008B50921FFF7F2FF08BD9AB330B59446DF
:10A6DC000F2A18D902460B4640EA010414F0030F66
:10A6EC0002D00CF1FF3C11E0194610460432043341
:10A6FC000C680568A54206D110461946ACF1040C4D
:10A70C00BCF1040FF0D8BCF1010C0FD00A46034683
:10A71C0084441146184601330132047891F800E064
:10A72C00744503D1184611466345F2D100780B7875
:10A73C00C01A30BD00207047037853B159B10144A1
:10A74C00034613F8012F12B18B42FAD10B46181A9B
:10A75C0070470346FBE70346F9E710B584B00C4697
:10A76C00114602900022039201941A46684600F0AA
:10A77C00B1F804B010BD844640EA010313F0030F96
:10A78C0018D18446202A0BD32DE9F007B1E8F8073D
:10A79C00A0E8F807A2F12002202AF7D2BDE8F007C2
:10A7AC00042A07D351F8043B40F8043BA2F10402FD
:10A7BC00042AF7D2002A05D011F8013B00F8013B1E
:10A7CC00013AF9D1604670478446002A2DD010F02A
:10A7DC00030F04D000F8011B013A26D0F7E7C9B2E9
:10A7EC0041EA012141EA0141202A12D3A2F12002BF
:10A7FC002DE9F0030B460C460D460E460F468846D7
:10A80C008946A0E8FA03203AFBD2BDE8F0032032D7
:10A81C000BD0042A05D340F8041B043A05D0042AB3
:10A82C00F9D200F8011B013AFBD160467047024691
:10A83C0010F0030F16D111F0030F13D12DE9F00016
:10A84C004FF001374FF0803351F8044BA4EB070560
:10A85C0025EA04051D4002D142F8044BF4E7A1F1AE
:10A86C000401F0BC11F8013B02F8013B002BF9D1BB
:10A87C00704700F1010110F0030F11D010F8012BFB
:10A88C00002A23D010F0030F0AD010F8012B002A55
:10A89C001CD010F0030F03D010F8012B002A15D098
:10A8AC002DE970004FF001324FF0803350F8044B1B
:10A8BC00A4EB020525EA04051D4000D1F6E7A0F142
:10A8CC00040070BC10F8012B002AFBD1A0EB010096
:10A8DC00704700002DE9F04F89B007460392002322
:10A8EC0003600C4614F8011B002900F0FC82DFF811
:10A8FC0018B5EBE2002507E05E2868D145F48055D9
:10A90C0001E045F040051C46234613F8010B3028A6
:10A91C00F2D81F2837D9A0F12002102A33D801A170
:10A92C0051F822F00FA9020093A9020093A902008A
:10A93C0075A9020093A9020093A9020093A9020031
:10A94C007BA9020093A9020093A9020093A902001B
:10A95C0081A9020093A9020087A9020093A9020011
:10A96C0093A902008DA9020045F08005CBE745F4C0
:10A97C000045C8E745F02005C5E745F01005C2E7DE
:10A98C0045F40075BFE72A2821D1039A111D0391C4
:10A99C00D2F800A0BAF1000FBCBFCAF1000A45F012
:10A9AC0010051878A31C2AEAEA7A2E2826D0002152
:10A9BC00742847D07A2845D06C2800F0A8804C2801
:10A9CC0000F0AB80682800F0B8801C463DE0A0F198
:10A9DC003002D2B2092A88BF4FF0000AE3D84FF0F8
:10A9EC00000A0AEB8A0A303800EB4A0A13F8010B0A
:10A9FC00A0F13002D2B2092AF3D9D4E718782A2868
:10AA0C000AD1039A111D0391116858780233002959
:10AA1C00CEDB45F48075CBE70133A0F13002D2B226
:10AA2C00092A88BF0021F4D8002101EB81013038BC
:10AA3C0000EB410113F8010BA0F13002D2B2092A4C
:10AA4C00F3D9E4E71C4614F8010B002800F05782F8
:10AA5C00A0F12503DBB2532B62D8A0F12503532BB5
:10AA6C005ED8DFE813F076005D005D005D005D00F0
:10AA7C005D005D005D005D005D005D005D005D00E2
:10AA8C005D005D005D005D005D005D005D005D00D2
:10AA9C005D005D005D005D005D005D005D005D00C2
:10AAAC005D005D005D005D005D005D005D005D00B2
:10AABC005D005D005D005D005D005D005D005D00A2
:10AACC005D005D005D005D005D005D00EC005D0003
:10AADC005D005D005D005D005D005D005D005D0082
:10AAEC005D007B0021015D005D005D005D002101CA
:10AAFC005D005D005D005D0095000F01D2005D0002
:10AB0C005D00A6005D001A015D005D00EE001C46B4
:10AB1C0014F8010B45F0010597E745F001051C46BB
:10AB2C00B54B1E68002E00F0CE8103AB0193009153
:10AB3C0053462A463946B047C5E11878682803D0F1
:10AB4C005C1C45F0040580E745F008059C1C587812
:10AB5C007BE725213846FFF772FDB4E1039B1A1DF4
:10AB6C0003921E780AF1FF3A3A4651462846FFF7FF
:10AB7C008FFD31463846FFF762FDA94619F0100FDC
:10AB8C0000F0A1813A4651462020FFF773FD9AE16F
:10AB9C0015F0080F06D03A68039B191D03911B682A
:10ABAC001A7090E1039B1A1D03921B683A681A6095
:10ABBC0089E1039B1A1D0392D3F800808F4BB8F1E7
:10ABCC00000F08BF9846464625F4007915F4807F9F
:10ABDC0016D04046FFF7B0FD0546AAEB050A3A46EB
:10ABEC0051464846FFF754FD002DC7D016F8011BFF
:10ABFC003846FFF724FDA8EB0603EB42F6D1BDE780
:10AC0C004046FFF736FE0546E7E7039B1A1D039205
:10AC1C001B6815F0800F0CBF0026232645F48075A9
:10AC2C0008211A46002B00F02A8105AB4FF00008D2
:10AC3C0005F4005CA64660468C460146D2E045F41D
:10AC4C00005515F0800F1BD043F2780643F25803E1
:10AC5C00782818BF1E4615F4807F01D025F40075A6
:10AC6C0015F4804F32D0039B1A1D03921B6815F00C
:10AC7C00040F1FD01BB2002B20DA5B422D262DE0D7
:10AC8C000026E8E715F0800F0CBF0026302615F4DF
:10AC9C00807FE5D025F40075E2E715F4807F07D0BE
:10ACAC0025F400750026DBE745F480450026D7E740
:10ACBC000026D5E715F0080FDDD0DBB215F0200F1C
:10ACCC0061D115F0400F18BF202607E0039B1A1D19
:10ACDC0003921B6815F0040F50D09BB215F4807FC3
:10ACEC0014BF25F4007501215838202800F2AF80DC
:10ACFC0001A252F820F000BF2FAC02005BAE0200A4
:10AD0C005BAE02005BAE02005BAE02005BAE02000B
:10AD1C005BAE02005BAE02005BAE02005BAE0200FB
:10AD2C005BAE02005BAE0200BFAD02005BAE020088
:10AD3C005BAE02005BAE02005BAE0200BFAD020078
:10AD4C005BAE02005BAE02005BAE02005BAE0200CB
:10AD5C005BAE020097AD02002FAC02005BAE0200AE
:10AD6C005BAE02005BAE02005BAE0200BFAD020048
:10AD7C005BAE02005BAE02002FAC020015F0080FB8
:10AD8C00ACD0DBB2AAE72B26A8E71A464FF0000896
:10AD9C00002B5ED005A84FF0000803F007033033FA
:10ADAC0000F8013B08F10108D2081346002AF4D13F
:10ADBC004FE018464FF00008002B4AD04FF0000827
:10ADCC0005F4004E4FF02C0973468E4619462FE0C1
:10ADDC0002F00F000A4C205C03F8010B08F101088B
:10ADEC00120906D00029F3D002F00F00054C205CAC
:10ADFC00F2E7744661462CE01430002020BF0200BC
:10AE0C0000BF020010BF0200CDCCCCCC08AB03EBD2
:10AE1C00080CABFB0032D20802EB8203A0EB43031D
:10AE2C0030330CF80C3C08F1010809280DD91046F8
:10AE3C000029EBD008F00303032BE7D108AB434404
:10AE4C0003F80C9C08F10108E0E7714601E04FF0B3
:10AE5C000008A1EB080121EAE179AAEB090AAAEBA7
:10AE6C00080AFF2E0ED9AAF1020AC6F307213846AA
:10AE7C00FFF7E5FBF1B23846FFF7E1FB04E04FF0DA
:10AE8C000008E6E7002E3DD13A4651462846FFF72A
:10AE9C00FFFB3A4649463020FFF7ECFBB8F1000FB8
:10AEAC000EDD0DF1140908F1FF38C84498F80010B4
:10AEBC0046463846FFF7C3FBC14508F1FF38F5D1CC
:10AECC0015F0100F09D114F8011B61B125293FF4BD
:10AEDC0011AD3846FFF7B3FBF5E73A465146202053
:10AEEC00FFF7C8FBEFE7BB682BB13A6879688A4279
:10AEFC003CBF00219954386809B0BDE8F08F4FF081
:0CAF0C00FF30F9E70AF1FF3AB4E700BF9C
:08AF1800798002000000000036
:10AF2000AD95020000000000FD8F0200000000004F
:10AF30009D990200981D0020D19C0200C428002089
:10AF4000499F0200D828002005A10200B428002053
:08AF5000AD90020000000000BA
:10AF58007EB602000000000084B602000000000077
:10AF68008BB60200000000008FB60200000000004F
:10AF780094B60200000000005AB00200000003036B
:10AF8800A2B802000000030327BA0200000003036E
:10AF98001EBA02000000030378B602000000000099
:10AFA800EDB902000000030331BA020000000303F8
:10AFB8008DBC020000000303A8BC020000000303CC
:08AFC80066B102000000000068
:10AFD000BC200020842100208C210020C4200020DF
:04AFE0001800000055
:10AFE40039A302000000000071A502000000000067
:08AFF400F980020000000000DA
:10AFFC002CB002000000000038B00200841D0020BC
:10B00C00FFFFFFFFFFFFFFFFFFFFFFFFFFFFFFFF44
:10B01C0000000000000000000000D6010601000046
:10B02C00DD640200416502008D640200756172747A
:10B03C005F6C6F675F6261636B656E640042616336
:10B04C006B656E647320666C757368656400617003
:10B05C0070000000B02500207F000000302600208A
:10B06C001B5B313B33316D0025734C6F6773206470
:10B07C00726F70706564202825642925730D0A0091
:10B08C001B5B306D002573003C25733E2025733A05
:10B09C002000202530327800202020007C00256301
:10B0AC00001B5B313B33306D001B5B313B33326D2E
:10B0BC00001B5B313B33336D001B5B313B33346D19
:10B0CC00001B5B313B33356D001B5B313B33366D05
:10B0DC00001B5B313B33376D007761726E696E67B5
:10B0EC0000696E666F006465627567008CB0020063
:10B0FC00ADB002006CB00200B5B00200BDB00200F1
:10B10C00C5B00200CDB00200D5B00200DDB0020027
:10B11C00000000003AB10200E5B00200EDB0020000
:10B12C00F2B0020050260020466174616C206572FA
:10B13C00726F720053797374656D207265736574E8
:10B14C00000000000338FDD87047303132333435FD
:10B15C00363738394142434445467077725F6D67E4
:10B16C006D74000058AF020058AF020004000000DC
:10B17C004E52465F53554343455353004E52465F20
:10B18C004552524F525F5356435F48414E444C45D3
:10B19C00525F4D495353494E47004E52465F4552FC
:10B1AC00524F525F534F46544445564943455F4EA8
:10B1BC004F545F454E41424C4544004E52465F450C
:10B1CC0052524F525F494E5445524E414C004E52D2
:10B1DC00465F4552524F525F4E4F5F4D454D004EAC
:10B1EC0052465F4552524F525F4E4F545F464F5539
:10B1FC004E44004E52465F4552524F525F4E4F5492
:10B20C005F535550504F52544544004E52465F4583
:10B21C0052524F525F494E56414C49445F50415235
:10B22C00414D004E52465F4552524F525F494E5669
:10B23C00414C49445F5354415445004E52465F457E
:10B24C0052524F525F494E56414C49445F4C454E09
:10B25C00475448004E52465F4552524F525F494E3A
:10B26C0056414C49445F464C414753004E52465F51
:10B27C004552524F525F494E56414C49445F4441EE
:10B28C005441004E52465F4552524F525F44415416
:10B29C00415F53495A45004E52465F4552524F52F8
:10B2AC005F54494D454F5554004E52465F455252DE
:10B2BC004F525F4E554C4C004E52465F4552524FCA
:10B2CC00525F464F5242494444454E004E52465FEF
:10B2DC004552524F525F494E56414C49445F41448E
:10B2EC004452004E52465F4552524F525F425553A4
:10B2FC0059004E52465F4552524F525F434F4E4E8D
:10B30C005F434F554E54004E52465F4552524F527A
:10B31C005F5245534F5552434553004E52465F457D
:10B32C0052524F525F4D4F44554C455F4E4F545FF8
:10B33C00494E495449414C495A4544004E52465F86
:10B34C004552524F525F4D555445585F494E4954E2
:10B35C005F4641494C4544004E52465F4552524F60
:10B36C00525F4D555445585F4C4F434B5F464149D6
:10B37C004C4544004E52465F4552524F525F4D551C
:10B38C005445585F554E4C4F434B5F4641494C45D5
:10B39C0044004E52465F4552524F525F4D555445F4
:10B3AC00585F434F4E445F494E49545F4641494CA8
:10B3BC004544004E52465F4552524F525F4D4F44EA
:10B3CC00554C455F414C52454144595F494E495497
:10B3DC0049414C495A4544004E52465F4552524FE2
:10B3EC00525F53544F524147455F46554C4C004EAB
:10B3FC0052465F4552524F525F4150495F4E4F5437
:10B40C005F494D504C454D454E544544004E5246B7
:10B41C005F4552524F525F464541545552455F4E1F
:10B42C004F545F454E41424C4544004E52465F4599
:10B43C0052524F525F494F5F50454E44494E470060
:10B44C004E52465F4552524F525F4452565F5457CC
:10B45C00495F4552525F4F56455252554E004E521F
:10B46C00465F4552524F525F4452565F5457495FA4
:10B47C004552525F414E41434B004E52465F45523E
:10B48C00524F525F4452565F5457495F4552525F78
:10B49C00444E41434B004E52465F4552524F525F11
:10B4AC00424C455F495053505F52585F504B545F6C
:10B4BC005452554E4341544544004E52465F4552FA
:10B4CC00524F525F424C455F495053505F43484185
:10B4DC004E4E454C5F414C52454144595F4558498D
:10B4EC00535453004E52465F4552524F525F424C9A
:10B4FC00455F495053505F4C494E4B5F4449534351
:10B50C004F4E4E4543544544004E52465F455252B1
:10B51C004F525F424C455F495053505F5045455226
:10B52C005F52454A454354454400556E6B6E6F77E8
:10B53C006E206572726F7220636F6465000000008C
:10B54C00000000007CB102000100000088B1020084
:10B55C0002000000A6B1020003000000C7B1020007
:10B56C0004000000DAB1020005000000EBB102009B
:10B57C0006000000FFB102000700000017B2020035
:10B58C00080000002FB202000900000047B20200C0
:10B59C000A00000060B202000B00000078B202004A
:10B5AC000C0000008FB202000D000000A3B20200DC
:10B5BC000E000000B5B202000F000000C4B2020081
:10B5CC0010000000D8B2020011000000EFB202001F
:10B5DC0012000000FEB202001300000013B30200C0
:10B5EC008000000027B302008100000048B3020075
:10B5FC008200000064B302008300000080B30200EC
:10B60C00840000009EB3020085000000BFB302005E
:10B61C0086000000E4B3020090000000FBB30200BF
:10B62C009100000019B402009200000037B402002F
:10B63C00008200004CB40200018200006AB40200D7
:10B64C000282000086B4020000840000A2B4020052
:10B65C0001840000C6B4020002840000F0B40200B1
:10B66C000384000015B5020011121314636C6F6390
:10B67C006B00434C4F434B004750494F54450050CF
:10B68C005253005541525400554152544500436F9A
:10B69C006E6E65637465642E00446973636F6E6EC1
:10B6AC0065637465642E004C42532077726974652F
:10B6BC00204C4544207374617465202564006C6FC4
:10B6CC006720696E69742073746172746564200AF2
:10B6DC000074696D657220696E697420737461728F
:10B6EC00746564200A006C65647320696E6974204B
:10B6FC0073746172746564200A00627574746F6E81
:10B70C007320696E69742073746172746564200AA5
:10B71C0000706F776572206D616E6167656D656E27
:10B72C007420696E69742073746172746564200A84
:10B73C0000626C6520737461636B20696E697420A0
:10B74C0073746172746564200A007363616E20699E
:10B75C006E69742073746172746564200A00676189
:10B76C00747420696E6974207374617274656420DA
:10B77C000A00646220646973636F7665727920696C
:10B78C006E6974200A006C6273206320696E6974A0
:10B79C00200A006770696F20646566696E656400D5
:10B7AC00426C696E6B792043454E5452414C206576
:10B7BC0078616D706C6520737461727465642E00B1
:10B7CC00426C696E6B792043454E5452414C206556
:10B7DC0078616D706C6520737461727465642E2071
:10B7EC000A005465726D696E616C005254540053BA
:10B7FC004547474552004E6F7420656E6F756768FC
:10B80C0020737061636520666F722063686172617A
:10B81C0063746572697374696373206173736F63A6
:10B82C0069617465642077697468207365727669E0
:10B83C00636520307825303458202100496E6372BE
:10B84C006561736520424C455F474154545F4442E7
:10B85C005F4D41585F434841525320746F206265DD
:10B86C002061626C6520746F2073746F7265206D3B
:10B87C006F72652063686172616374657269737459
:10B88C0069637320666F72206561636820736572EB
:10B89C00766963652100626C655F64625F646973DD
:10B8AC00630073645F626C655F6761705F64617491
:10B8BC00615F6C656E6774685F7570646174652830
:10B8CC002920287265717565737429206F6E206349
:10B8DC006F6E6E656374696F6E2030782578207298
:10B8EC00657475726E65642025732E00546865202E
:10B8FC007265717565737465642054582F525820A5
:10B90C007061636B6574206C656E67746820697315
:10B91C0020746F6F206C6F6E672062792025752FF5
:10B92C002575206F63746574732E005468652072DE
:10B93C00657175657374656420636F6D62696E61A2
:10B94C0074696F6E206F6620545820616E642052AB
:10B95C0058207061636B6574206C656E67746873D6
:10B96C0020697320746F6F206C6F6E672062792072
:10B97C002575206D6963726F7365636F6E64732ECA
:10B98C000073645F626C655F67617474635F657894
:10B99C006368616E67655F6D74755F7265717565FF
:10B9AC00737428292072657475726E656420257312
:10B9BC002E0073645F626C655F67617474735F659E
:10B9CC00786368616E67655F6D74755F7265706CC6
:10B9DC007928292072657475726E65642025732E22
:10B9EC00006E72665F626C655F676174740073648D
:10B9FC005F626C655F6761705F7363616E5F7374C8
:10BA0C006172742072657475726E6564203078256D
:10BA1C007800626C655F7363616E00626C655F6C6D
:10BA2C0062735F63006E72665F736468000100008E
:10BA3C0007000000F4AF0200F4AF020008000000A1
:10BA4C00E4AF0200F4AF020008000000F4AF020003
:10BA5C00FCAF02000800000073645F626C655F63FA
:10BA6C0066675F73657428292072657475726E65DC
:10BA7C0064202573207768656E20617474656D7021
:10BA8C0074696E6720746F2073657420424C455F37
:10BA9C00434F4E4E5F4346475F4741502E00736401
:10BAAC005F626C655F6366675F73657428292072DB
:10BABC00657475726E6564202573207768656E20D9
